:100000000C94190E0C94380E0C94380E0C94380E77
:100010000C94380E0C94380E0C94380E0C94FB1F74
:100020000C94380E0C94380E0C94380E0C94380E38
:100030000C94380E0C94380E0C94380E0C94380E28
:100040000C94380E0C9431270C94380E0C94380E06
:100050000C94380E0C94380E0C94380E0C94380E08
:100060000C94380E0C94380E0C94380E0C94380EF8
:100070000C94380E0C94380E0C94380E0C94380EE8
:100080000C949B190C94380E0C94380E0C94380E6A
:100090000C94380E0C94380E000000000000005F35
:1000A00000000003000300143E143E14242A7F2A9B
:1000B000124333086661364955225000050300009B
:1000C000001C2241000041221C0014083E081408B4
:1000D000083E0808005030000008080808080060C2
:1000E00060000020100804023E5149453E00040211
:1000F0007F00426151494622414949361814127F16
:100100001027454545393E494949320101710907E2
:100110003649494936264949493E003636000000ED
:10012000563600000814224100141414141400411F
:1001300022140802015109063E4159555E7E090903
:10014000097E7F494949363E414141227F41414133
:100150003E7F494949417F090909013E4141493AE8
:100160007F0808087F00417F4100304040403F7FCA
:10017000081422417F404040407F020C027F7F02F2
:1001800004087F3E4141413E7F090909061E2121A5
:10019000215E7F09090976264949493201017F011B
:1001A000013F4040403F1F2040201F7F2010207F04
:1001B00041221C224107087008076151494543004C
:1001C0007F41000002040810200000417F0004026B
:1001D0000102044040404040000102040020545409
:1001E00054787F4444443838444444443844444474
:1001F0007F385454541804047E0505085454543C64
:100200007F0804047800447D40002040443D007F86
:100210001028440000417F40007C047804787C086A
:1002200004047838444444387C1414140808141422
:10023000147C007C080404485454542004043F44B3
:10024000443C4040207C1C2040201C3C4030403C32
:1002500044281028440C5050503C4464544C4400F2
:100260000836414100007F0000414136080002018C
:100270000204020000000000000000000000000076
:100280000000000000000000000004000400040062
:10029000040000000000000000000000000000005A
:1002A000000000000000000000000000000000004E
:1002B000000000000000000000000000000004003A
:1002C000040004000400040004000000000000001A
:1002D000000000000000000000000000000000001E
:1002E000000000000000000000000000000000000E
:1002F00000000000040004000400040004000400E6
:1003000000000000000000000000000000000000ED
:1003100000000000000004000400040004000400C9
:1003200004000400040004000400040004000400AD
:10033000040004000400040004000400040004009D
:10034000040004000400040004000400040004008D
:10035000040004000400040004000400040004007D
:10036000040004000400040004000400040004006D
:10037000040004000400040004000400040004005D
:10038000040004000400040004000400040004004D
:10039000040004000400040004000400040004003D
:1003A000040004000400040004000400040004002D
:1003B000040004000400040004000400040004001D
:1003C000040004000400040004000400040004000D
:1003D00004000400040004000400040004000400FD
:1003E00004000400040004000400040004000400ED
:1003F00004000400040004000400040004000400DD
:1004000004000400040004000400040004000400CC
:1004100004000400040004000400040004000400BC
:1004200004000400040004000400040004000400AC
:10043000040004000400040004000400040004009C
:10044000040004000400040004000400040004008C
:10045000040004000400040004000400040004007C
:10046000040004000400040004000400040004006C
:10047000040004000400040004000400040004005C
:10048000040004000400040004000400040004004C
:10049000040004000400040004000400040004003C
:1004A000040004000400040004000400040004002C
:1004B000040004000400040004000400040004001C
:1004C0000400040004000000000000000000000020
:1004D000F800F800F800F800F800F80088000000C4
:1004E000000000000000000000000000000000000C
:1004F000F800F800F800F800F800F80088000000A4
:10050000000000000000000000000000F800F800FB
:10051000F800F800F800F800F800F800F800F8001B
:10052000880000000000000000000000F800F80053
:10053000F800F800F800F800F800F800F800F800FB
:1005400088000000000000000000F800F800F8003B
:10055000F800F800F800F800F800F800F800F800DB
:10056000F8008800000000000000F800F800F80023
:10057000F800F800F800F800F800F800F800F800BB
:10058000F800880000000000F800F8000000F80003
:10059000F8000000F800F8000000F800F800000083
:1005A000F800F80088000000F800F8000000F800EB
:1005B000F8000000F800F8000000F800F800000063
:1005C000F800F8008800F800F800F800F800F800DB
:1005D000F800F800F800F800F800F800F800F8005B
:1005E000F800F800F800F800F800F800F800F8004B
:1005F000F800F800F800F800F800F800F800F8003B
:10060000F800F800F80000000000F800F800F8001A
:1006100088000000F800F80088000000F800F800EA
:10062000F8008800000000000000F800F800F80062
:1006300088000000F800F80088000000F800F800CA
:10064000F80088000000000000000000F8008800AA
:100650000000000000000000000000000000F800A2
:10066000880000000000000000000000F800880082
:100670000000000000000000000000000000F80082
:1006800088000000000000FFFF00000000FFFF00E6
:100690000000000000FFFF00000000FFFF0000005E
:1006A00000FFFF00000000FFFF000000000000FF4F
:1006B000FF00000000FFFF000000000000FFFF003F
:1006C000000000FFFF0000FFFF00000000FFFF0030
:1006D00000000000000000FFFF00000000FFFF001E
:1006E00000FFFF00000000FFFF000000000000000E
:1006F000000000FFFF00000000000000000000FFFD
:10070000FF000000000000000000000000FFFF00EC
:10071000000000000000000000FFFF0000000000DB
:1007200000FFFFFFFF0000000000000000000000CD
:1007300000000000000000FFFFFFFFFFFFFFFF00C1
:1007400000000000000000000000000000000000A9
:1007500000FFFFFFFF000000000000FFFF0000009F
:1007600000000000000000FFFF000000000000008B
:100770000000000000FFFF0000000000000000007B
:1007800000FFFF00000000000000000000FFFF006D
:10079000000000FFFF0000FFFF00000000FFFF005F
:1007A00000000000000000FFFF00000000FFFF004D
:1007B00000FFFF00000000FFFF000000000000FF3E
:1007C000FF00000000FFFF000000000000FFFF002E
:1007D000000000FFFF00000000FFFF00000000FF1E
:1007E000FF000000000000FFFF00000000FFFF000E
:1007F00000000000000000000000000000000000F9
:1008000000000000000000000000000000000000E8
:1008100000000000000000000000000000000000D8
:1008200000000000000000000000000000000000C8
:1008300000000000000000000000000000000000B8
:1008400000000000000000000000000000000000A8
:100850000000000000000000000000000000000098
:100860000000000000000000000000000000000088
:100870000000000000000000000000000000000078
:100880000000000000000000000000000000000068
:100890000000000000000000000000000000000058
:1008A0000000000000000000000000000000000048
:1008B0000000000000000000000000000000000038
:1008C0000000000000000000000000000000000028
:1008D0000000000000000000000000000000000018
:1008E0000000000000000000000000000000000008
:1008F00000000000000000000000000000000000F8
:1009000000000000000000000000000000000000E7
:1009100000000000000000000000000000000000D7
:1009200000000000000000000000000000000000C7
:1009300000000000000000000000000000000000B7
:1009400000000000000000000000000000000000A7
:100950000000000000000000000000000000000097
:100960000000000000000000000000000000000087
:100970000000000000000000000000000000000077
:100980000000000000000000000000000000000067
:100990000000000000000000000000000000000057
:1009A0000000000000000000000000000000000047
:1009B0000000000000000000000000000000000037
:1009C0000000000000000000F800F8000000000037
:1009D0000000F800F8000000F800F800F800F80047
:1009E0000000F800F800F800F800F800F800F8003F
:1009F000F800F800F800F8FFFF00F800F800F80031
:100A0000F800F800F800F8FFFF00F800F800000018
:100A1000F800F800F800F800F800F800F80000000E
:100A200000000000F800F800F800F800F8000000EE
:100A30000000000000000000F800F800F8000000CE
:100A4000000000000000000000000000F8000000AE
:100A5000000000000000000000000000000000FF97
:100A6000FFFFFF0000000000000000000000000089
:100A7000000000000000000000FFFFFFFF0000007A
:100A80000000000000000000000000000000000066
:100A900000FFFFFFFFFFFFFFFF000000000000005E
:100AA0000000000000000000000000FFFFFFFFFF4B
:100AB000FFFFFF0000000000000000000000000039
:100AC000000000FFFFFFFFFFFFFFFFFFFFFFFF0032
:100AD00000000000000000000000000000FFFFFF19
:100AE000FFFFFFFFFFFFFFFFFF000000000000000F
:100AF0000000000000FFFFFFFF0000FFFFFFFF00FE
:100B000000FFFFFFFF00000000000000000000FFEA
:100B1000FFFFFF0000FFFFFFFF0000FFFFFFFF00E0
:100B2000000000000000000000FFFFFFFFFFFFFFCC
:100B3000FFFFFFFFFFFFFFFFFF00000000000000BE
:100B4000000000FFFFFFFFFFFFFFFFFFFFFFFFFFB2
:100B5000FFFFFF000000000000000000000000FF99
:100B6000FF0000FFFFFFFF0000FFFF00000000008C
:100B7000000000000000000000FFFF0000FFFFFF7A
:100B8000FF0000FFFF000000000000000000000068
:100B900000FFFF000000000000000000000000FF58
:100BA000FF00000000000000000000FFFF00000048
:100BB000000000000000000000FFFF000000000037
:100BC00000000000000000FFFF0000000000000027
:100BD00000FFFF0000000000000000000000000017
:100BE00000FFFF0000000000000000FFFF00000009
:100BF000000000000000000000000000000000FFF6
:100C0000FFFFFF00000000000000000000000000E7
:100C1000000000000000000000FFFFFFFF000000D8
:100C200000000000000000000000000000000000C4
:100C300000FFFFFFFFFFFFFFFF00000000000000BC
:100C40000000000000000000000000FFFFFFFFFFA9
:100C5000FFFFFF0000000000000000000000000097
:100C6000000000FFFFFFFFFFFFFFFFFFFFFFFF0090
:100C700000000000000000000000000000FFFFFF77
:100C8000FFFFFFFFFFFFFFFFFF000000000000006D
:100C90000000000000FFFFFFFF0000FFFFFFFF005C
:100CA00000FFFFFFFF00000000000000000000FF49
:100CB000FFFFFF0000FFFFFFFF0000FFFFFFFF003F
:100CC000000000000000000000FFFFFFFFFFFFFF2B
:100CD000FFFFFFFFFFFFFFFFFF000000000000001D
:100CE000000000FFFFFFFFFFFFFFFFFFFFFFFFFF11
:100CF000FFFFFF00000000000000000000000000F7
:100D000000FFFF00000000FFFF00000000000000E7
:100D10000000000000000000000000FFFF000000D5
:100D200000FFFF00000000000000000000000000C5
:100D3000000000FFFF0000FFFFFFFF0000FFFF00BB
:100D400000000000000000000000000000FFFF00A5
:100D500000FFFFFFFF0000FFFF0000000000000099
:100D60000000000000FFFF0000FFFF00000000FF88
:100D7000FF0000FFFF00000000000000000000FF77
:100D8000FF0000FFFF00000000FFFF0000FFFF006A
:100D90000000000000000000000000FFFF00000055
:100DA00000000000000000FFFF0000000000000045
:100DB0000000000000FFFF00000000000000000035
:100DC00000FFFF0000000000000000000000000025
:100DD00000FFFF000000000000FFFF000000000017
:100DE0000000000000000000000000FFFF00000005
:100DF000000000FFFF0000000000000000000000F5
:100E0000000000FFFFFFFFFFFFFFFFFFFFFFFFFFEF
:100E1000FF000000000000000000000000FFFFFFD6
:100E2000FFFFFFFFFFFFFFFFFFFFFF0000000000CD
:100E30000000000000FFFFFFFF0000FFFFFFFFFFBB
:100E4000FF0000FFFFFFFF0000000000000000FFA8
:100E5000FFFFFF0000FFFFFFFFFFFF0000FFFFFF9E
:100E6000FF000000000000FFFFFFFFFFFFFFFFFF8C
:100E7000FFFFFFFFFFFFFFFFFFFFFFFFFF0000007F
:100E800000FFFFFFFFFFFFFFFFFFFFFFFFFFFFFF71
:100E9000FFFFFFFFFFFFFF00000000FFFF0000FF5C
:100EA000FFFFFFFFFFFFFFFFFFFFFFFFFF0000FF50
:100EB000FF00000000FFFF0000FFFFFFFFFFFFFF3C
:100EC000FFFFFFFFFFFFFF0000FFFF00000000FF2C
:100ED000FF0000FFFF00000000000000000000FF16
:100EE000FF0000FFFF00000000FFFF0000FFFF0009
:100EF000000000000000000000FFFF0000FFFF00F6
:100F0000000000000000000000FFFFFFFF0000FFE6
:100F1000FFFFFF00000000000000000000000000D4
:100F2000000000FFFFFFFF0000FFFFFFFF000000C9
:100F300000000000000000000000000000000000B1
:100F400000000000000000000000000000000000A1
:100F50000000000000000000000000000000000091
:100F60000000000000000000000000000000000081
:100F70000000000000000000000000000000000071
:100F80000000000000000000000000000000000061
:100F90000000000000000000000000000000000051
:100FA0000000000000000000000000000000000041
:100FB0000000000000000000000000000000000031
:100FC0000000000000000000000000000000000021
:100FD0000000000000000000000000000000000011
:100FE0000000000000000000000000000000000001
:100FF00000000000000000000000000000000000F1
:1010000000000000000000000000000000000000E0
:1010100000000000000000000000000000000000D0
:1010200000000000000000000000000000000000C0
:1010300000000000000000000000000000000000B0
:1010400000000000000000000000000000000000A0
:101050000000000000000000000000000000000090
:101060000000000000000000000000000000000080
:101070000000000000000000000000000000000070
:101080000000000000000000000000000000000060
:101090000000000000000000000000000000000050
:1010A0000000000000000000000000000000000040
:1010B0000000000000000000000000000000000030
:1010C0000000000000000000000000000000000020
:1010D0000000000000000000000000FFFF00000012
:1010E00000000000000000FFFF0000000000000002
:1010F0000000000000FFFF000000000000000000F2
:1011000000FFFF0000000000000000FFFF000000E3
:1011100000FFFF000000000000FFFF00000000FFD4
:10112000FF00000000FFFF00000000FFFF000000C4
:10113000000000FFFF00000000FFFF00000000FFB4
:10114000FF0000FFFFFFFFFFFFFFFFFFFFFFFFFFAD
:10115000FF0000FFFF00000000FFFF0000FFFFFF97
:10116000FFFFFFFFFFFFFFFFFFFFFF0000FFFF008C
:10117000000000FFFFFFFFFFFF0000FFFFFFFFFF7A
:10118000FF0000FFFFFFFFFFFF00000000FFFFFF69
:10119000FFFFFF0000FFFFFFFFFFFF0000FFFFFF5B
:1011A000FFFFFF00000000FFFFFFFFFFFFFFFFFF4B
:1011B000FFFFFFFFFFFFFFFFFFFFFFFFFF0000003C
:1011C00000FFFFFFFFFFFFFFFFFFFFFFFFFFFFFF2E
:1011D000FFFFFFFFFFFFFF0000000000000000FF17
:1011E000FFFFFFFFFFFFFFFFFFFFFFFFFF0000000C
:1011F000000000000000000000FFFFFFFFFFFFFFF6
:10120000FFFFFFFFFFFFFF000000000000000000E5
:10121000000000FFFF00000000000000000000FFD1
:10122000FF000000000000000000000000FFFF00C1
:10123000000000000000000000FFFF0000000000B0
:101240000000000000FFFF000000000000000000A0
:101250000000000000FFFF0000000000000000FF91
:10126000FF0000000000000000000000000000FF80
:10127000FF0000000000000000000000000000006F
:10128000000000000000000000000000000000005E
:10129000000000000000000000000000000000004E
:1012A000000000000000000000000000000000003E
:1012B000000000000000000000000000000000002E
:1012C000000000000000000000000000000000001E
:1012D000000000000000000000000000000000000E
:1012E00000000000000000000000000000000000FE
:1012F00000000000000000000000000000000000EE
:1013000000000000000000000000000000000000DD
:1013100000000000000000000000000000000000CD
:1013200000000000000000000000000000000000BD
:1013300000000000000000000000000000000000AD
:10134000000000000000000000000000000000009D
:10135000000000000000000000000000000000008D
:10136000000000000000000000000000000000007D
:10137000000000000000000000000000000000006D
:10138000000000000000000000000000000000005D
:10139000000000000000000000000000000000004D
:1013A000000000000000000000000000000000003D
:1013B000000000000000000000000000000000002D
:1013C000000000000000000000000000000000001D
:1013D000000000000000000000000000000000000D
:1013E00000000000000000000000000000000000FD
:1013F00000000000000000000000000000000000ED
:1014000000000000000000000000000000000000DC
:1014100000000000000000000000000000FFFFFFCF
:10142000FFFFFFFFFF0000000000000000000000C1
:1014300000000000000000FFFFFFFFFFFFFFFF00B4
:101440000000000000000000000000FFFFFFFFFFA1
:10145000FFFFFFFFFFFFFFFFFFFFFFFFFFFFFF009B
:101460000000000000FFFFFFFFFFFFFFFFFFFFFF87
:10147000FFFFFFFFFFFFFFFFFF00000000FFFFFF78
:10148000FFFFFFFFFFFFFFFFFFFFFFFFFFFFFFFF6C
:10149000FFFFFFFFFF0000FFFFFFFFFFFFFFFFFF5A
:1014A000FFFFFFFFFFFFFFFFFFFFFFFFFFFFFF004B
:1014B00000FFFFFFFFFFFF00000000FFFFFFFF0036
:1014C000000000FFFFFFFFFFFF0000FFFFFFFFFF27
:1014D000FF00000000FFFFFFFF00000000FFFFFF14
:1014E000FFFFFF0000FFFFFFFFFFFFFFFFFFFFFF0A
:1014F000FFFFFFFFFFFFFFFFFFFFFFFFFF0000FFFA
:10150000FFFFFFFFFFFFFFFFFFFFFFFFFFFFFFFFEB
:10151000FFFFFFFFFFFFFF000000000000FFFFFFD5
:10152000FFFFFF00000000FFFFFFFFFFFF000000C4
:1015300000000000000000FFFFFFFFFFFF000000B1
:1015400000FFFFFFFFFFFF0000000000000000FFA2
:10155000FFFFFF00000000FFFFFFFF00000000FF93
:10156000FFFFFF000000000000FFFFFFFF00000082
:1015700000FFFFFFFF00000000FFFFFFFF00000073
:101580000000000000FFFFFFFF000000000000005F
:1015900000FFFFFFFF00000000000000000000FF50
:1015A000FFFFFF0000000000000000FFFFFFFF0042
:1015B00000000000000000000000000000FFFFFF2E
:1015C000FFFFFFFFFF000000000000000000000020
:1015D00000000000000000FFFFFFFFFFFFFFFF0013
:1015E0000000000000000000000000FFFFFFFFFF00
:1015F000FFFFFFFFFFFFFFFFFFFFFFFFFFFFFF00FA
:101600000000000000FFFFFFFFFFFFFFFFFFFFFFE5
:10161000FFFFFFFFFFFFFFFFFF00000000FFFFFFD6
:10162000FFFFFFFFFFFFFFFFFFFFFFFFFFFFFFFFCA
:10163000FFFFFFFFFF0000FFFFFFFFFFFFFFFFFFB8
:10164000FFFFFFFFFFFFFFFFFFFFFFFFFFFFFF00A9
:1016500000FFFFFFFFFFFF00000000FFFFFFFF0094
:10166000000000FFFFFFFFFFFF0000FFFFFFFFFF85
:10167000FF00000000FFFFFFFF00000000FFFFFF72
:10168000FFFFFF0000FFFFFFFFFFFFFFFFFFFFFF68
:10169000FFFFFFFFFFFFFFFFFFFFFFFFFF0000FF58
:1016A000FFFFFFFFFFFFFFFFFFFFFFFFFFFFFFFF4A
:1016B000FFFFFFFFFFFFFF0000000000000000FF32
:1016C000FFFFFF00000000FFFFFFFF000000000021
:1016D000000000000000000000FFFFFFFF0000000E
:1016E00000FFFFFFFF0000000000000000000000FE
:1016F00000FFFFFFFF0000FFFFFFFF0000FFFFFFF5
:10170000FF00000000000000000000FFFFFFFF00DE
:1017100000FFFFFFFF0000FFFFFFFF0000000000D1
:1017200000FFFFFFFF0000000000000000000000BD
:101730000000000000FFFFFFFF0000FFFFFFFF00B1
:10174000000000000000000000000000000000FF9A
:10175000FFFFFF00001F000000000000001F001F2F
:1017600000000000001F001F001F0000001F001FDE
:10177000001F001F001F001F001F0000001F001F90
:1017800000000000001F000000000000000000003A
:101790000000000000000000000000000000000049
:1017A0000000000004000000000004000000000031
:1017B0000000000000000000000000000000000029
:1017C0000000000000000000000000000000000019
:1017D0000000000000000000000000000000040005
:1017E00000000000000004000000000000000000F5
:1017F00000000400000000000000000000000000E5
:1018000004000000000004000000000000000400CC
:1018100000000400000004000000000000000000C0
:1018200000000400000000000000040000000000B0
:101830000400000004000000040004000000000098
:101840000000040000000000000000000000040090
:101850000400000000000400000000000000000080
:101860000000040004000000000000000000000070
:101870000400000004000000000000000000000060
:101880000000000000000400000000000000040050
:101890000000000000000000000000000400000044
:1018A0000400000004000000040000000400000028
:1018B000040000000400000000000400000000001C
:1018C0000400000000000400000004000000040008
:1018D0000000000000000000040000000000000004
:1018E00004000000000000000400000004000000EC
:1018F00000000400000000000400000000000400DC
:1019000000000400000000000000040000000000CF
:1019100000000000000000000000040000000400BF
:1019200004000400040000000000000004000000A7
:10193000040000000000000004000000000004009B
:101940000000000004000000040004000000040087
:10195000000004000400040004000400000004006F
:10196000000000000400000004000000000000006F
:10197000040004000000000000000000040000005B
:101980000400040000000000040004000000040043
:101990000400040004000400040004000400040027
:1019A000000000000400000000000000000004002F
:1019B000000004000400040000000400040004000F
:1019C00004000400040004000400000004000400FB
:1019D00004000000040004000400000004000000F3
:1019E00000000000000000000000000000000000F7
:1019F00000000000000004000000000000000000E3
:101A000000000000000000000000000000000000D6
:101A100000000400000000000000040000000000BE
:101A200000000000000000000000000000000000B6
:101A3000000000000400000004000000000000009E
:101A4000040000000000000004000000000000008E
:101A5000040000000400000000000400000000007A
:101A60000000000000000000040000000000000072
:101A7000000004000000000004000000000000005E
:101A8000040000000400000000000000040000004A
:101A90000000000000000400000000000000000042
:101AA000000000000000040000000400000000002E
:101AB0000000040000000000000000000000000022
:101AC000000004000000000004000000000000000E
:101AD0000000000000000000040000000000000002
:101AE00000000000040004000000000000000400EA
:101AF00000000000040000000000000000000400DE
:101B000000000400000004000000000000000000CD
:101B100000000400000000000400000004000000B9
:101B200000000400040004000000000000000000A9
:101B30000400000000000000000004000000040099
:101B40000000000000000000000000000000000095
:101B50000000000000000000000000000000040081
:101B60000000000000000000000000000000040071
:101B7000000004000400000000000000000000005D
:101B80000400000000000000040000000400000049
:101B9000040000000000000000000400000000003D
:101BA0000400040004000400040000000400040019
:101BB000040000000000000000000000040000001D
:101BC000000000000000000000000000040004000D
:101BD00000000000040000000000040004000000F9
:101BE00004000400040000000400040004000400D9
:101BF00000000000000004000000000004000400D9
:101C000000000400000004000400000004000400C0
:101C100004000000000004000400000004000400B0
:101C200004000000040004000000040000000400A0
:101C3000000011241FBECFEFD0E2DEBFCDBF12E007
:101C4000A0E0B1E0E6E8FEE500E00BBF02C00790CF
:101C50000D92A634B107D9F715E0A6E4B2E001C0B1
:101C60001D92AA3CB107E1F70E949E2C0C94412FD3
:101C70000C94000080E80E941811882309F44CC0DD
:101C80008091590290915A0220915B02FC01E20F6F
:101C9000F11D2081283081F480915C028823E1F1DC
:101CA00080915C02815080935C02E0915C02F0E0E4
:101CB000E25BFD4F108230C02D3021F40E942211D2
:101CC00081E00895263039F48050914009F40BC02A
:101CD00080E091E00AC0273081F48E51914019F4E0
:101CE0008CE391E002C08EE191E090935A028093E0
:101CF00059028FEF80934D020FC080915C028A30B1
:101D000058F4E0915C02F0E0E25BFD4F20838091AB
:101D10005C028F5F80935C0284E00E94181188232C
:101D200049F080915B028A3028F080915B028A50F2
:101D300080935B0288E00E941811882349F080910B
:101D40005B028D3128F480915B028F5F80935B0290
:101D500080E10E941811882349F080915B02843150
:101D600028F480915B02865F80935B0280E20E9490
:101D70001811882349F080915B02882329F0809113
:101D80005B02815080935B020E94B61087FF08C0FF
:101D900080915B02882379F080915B02815009C0B9
:101DA000882349F080915B028D3128F480915B0299
:101DB0008F5F80935B0280E008959F92AF92BF9205
:101DC000CF92DF92EF92FF920F931F93CF93DF9307
:101DD0006C015B01942EE9016E5F7F4F89012CE15C
:101DE00030E04CE150E002960E94B0148DE0E82E05
:101DF000F12CEA0CFB1C28E0921211C06C2D655FDF
:101E00002FEF3FEFA70170E08CE30E9444176C2D89
:101E10006F5E2FEF3FEFA70170E08DE2A2C08DE073
:101E200098122DC0B6016D5F7F4F8E012FEF3FEFEF
:101E3000A70185E40E944417B601685F7F4F2FEF2A
:101E40003FEFA7018EE60E944417B601635F7F4F04
:101E50002FEF3FEFA70184E70E944417B6016E5EA3
:101E60007F4F2FEF3FEFA70185E60E944417B60191
:101E7000695E7F4F2FEF3FEFA70182E772C026E038
:101E8000921241C08091590290915A028050914023
:101E9000F9F475018DE0E80EF11C6C2D685F8E0180
:101EA0002FEF3FEFA70170E081E60E9444176C2DF1
:101EB000625F2FEF3FEFA70170E082E60E944417B8
:101EC0006C2D6C5E2FEF3FEFA70170E083E649C0F9
:101ED0006C2D685F8E012FEF3FEFA70170E08EE25F
:101EE0000E9444176C2D625F2FEF3FEFA70170E057
:101EF0008FE30E9444176C2D6C5E2FEF3FEFA7011C
:101F000070E08AE22EC027E0921223C0809159022D
:101F100090915A028E51914009F0BBCF6C2D685FB1
:101F20008E012FEF3FEFA70170E081E40E9444177C
:101F30006C2D625F2FEF3FEFA70170E082E40E94FB
:101F400044176C2D6C5E2FEF3FEFA70170E083E428
:101F500008C0B601605F7F4F8E012FEF3FEFA701F2
:101F6000892D0E944417DF91CF911F910F91FF900F
:101F7000EF90DF90CF90BF90AF909F900895DF9249
:101F8000EF92FF920F931F93CF93DF93F82E262F9C
:101F90006E3120F52AC02E2D30E04091590250912B
:101FA0005A02FA01E20FF31F4081EF1003C02FE144
:101FB00030E002C020E134E8B801CE010E94DD0E1D
:101FC000E3946E96C63321E0D20729F78AE0D80E53
:101FD000025E1F4F063E110521F446C00CE810E0DA
:101FE000D12CED2CCAE0D0E0D6CF6817E9F1CAE0D9
:101FF000862F6C2F0E945B2EE0915902F0915A02BD
:10200000E20FF11D40812EE1829FD0011124BD011C
:1020100064577F4F2EE1929FC001112420E134E8E4
:102020000A960E94DD0E8F2D6C2F0E945B2EE09190
:102030005902F0915A02EF0DF11D40812EE1829F6D
:10204000B001112464577F4F2EE1929FC0011124EB
:102050002FE130E00A96DF91CF911F910F91FF9011
:10206000EF90DF900C94DD0EDF91CF911F910F91D7
:10207000FF90EF90DF9008958FEF80934D028EE1F7
:1020800091E090935A028093590210925B02EEE421
:10209000F2E0119282E0E935F807D9F708950F933D
:1020A0001F9390915B0280914D02981751F06091BF
:1020B0004D0280915B020E94BF0F80915B02809372
:1020C0004D0290915C0280914C02981770F400913F
:1020D0006D0210916E0227E030E046E450E062E3CA
:1020E00070E086E990E00E94B01490915C028091CB
:1020F0004C02981771F02FEF3FEF42E350E066E992
:1021000070E08EE492E00E94811780915C028093DF
:102110004C021F910F9108958DB18F7C8DB98EB1B6
:1021200080638EB96F98779A87B1837C87B988B1BD
:102130008C6388B926982E9A08959CB195FF02C0A9
:1021400083E001C080E094FF02C091E08927909174
:102150004602981B90FF09C080934602809160025E
:1021600081509270890F809360020895809160027F
:1021700090916002917090936002859508953091DE
:102180005F0286B12CB193B1806C2F6782239F6B65
:102190008923809583279091470298239095909367
:1021A00047022091480228232927209348028923A7
:1021B000822390915F02982790935F0290915D0235
:1021C00020915F022823292B20935D0280915F02DA
:1021D0008C7F19F48CE380934902809149028150ED
:1021E00019F08093490208958AE080934902909102
:1021F0005E0280915F028C7F892B80935E0208953E
:1022000090915D02982380915D02892780935D0201
:10221000892F089590915E02982380915E0289270C
:1022200080935E02892F089590915F02892308951B
:1022300090915F02909589230C9400110E940A11DD
:102240000C94001110925D0210925E02089593E8C2
:102250009093B00091E09093B1008093B300089503
:10226000909366028093650226E330E0209300405D
:10227000009779F480EF90E090936202809361027E
:1022800080E491E0909364028093630288E490E09C
:1022900034C08130910579F480E491E0909362023A
:1022A0008093610280EF90E09093640280936302D8
:1022B00088EE90E022C08230910579F480EF90E0C2
:1022C000909362028093610280E491E090936402B3
:1022D0008093630288E890E010C0039781F480E463
:1022E00091E0909362028093610280EF90E090937E
:1022F00064028093630288E290E0809300418AE266
:1023000090E08093004020E030E030930041209343
:102310000041809161029091620201979093004187
:10232000809300418BE290E0809300403093004125
:1023300020930041809163029091640201979093F1
:102340000041809300410895CF93873750F488303F
:1023500050F08D3350F48F3150F4803150F0C2E0A2
:1023600009C086E702C088E004C0C0E003C0C1E045
:1023700001C0C3E021EB30E020930040C093004156
:10238000682F70E080E090E00E94592A9B01AC0128
:1023900060E070E080EF94E40E9487290E94A22709
:1023A00070E002C075956795CA95E2F760930041A9
:1023B000CF910895FF920F931F93CF93DF93EAE29B
:1023C000F0E0E09300409093004180930041840F3F
:1023D000951F90930041809300418BE290E08093A1
:1023E00000407093004160930041620F731F70932F
:1023F0000041609300418CE290E0809300404F5F89
:102400005F4F2F5F3F4F42175307A8F4C9018770F2
:102410009927849FB001859F700D949F700D1124A2
:10242000F3E036952795FA95E1F7249FD001259F93
:10243000B00D112414C0CA0187709927829FB00182
:10244000839F700D929F700D1124E3E05695479580
:10245000EA95E1F7429FD001439FB00D1124CB01D3
:1024600087709927F82EA80120E030E00BC0FA0110
:102470004E5F5F4FC591D491D0930041C09300410E
:102480002F5F3F4FF212F3CF880F991F800F911FDC
:102490009B0143E0369527954A95E1F72A0F3B1FAC
:1024A00042C0AC01FC01659174917093004160934E
:1024B0000041FC01329665917491709300416093E4
:1024C0000041FC01349665917491709300416093D2
:1024D0000041FC01369665917491709300416093C0
:1024E0000041FC01389665917491709300416093AE
:1024F0000041FC013A96659174917093004160939C
:102500000041FC013C966591749170930041609389
:1025100000414096425F5F4FFA01459154915093BC
:102520000041409300412150310908F0BACFDF91BA
:10253000CF911F910F91FF900895DF92EF92FF923C
:102540000F931F93CF93DF93EAE2F0E0E093004014
:1025500090930041809300410197840F951F9093C1
:102560000041809300418BE290E0809300407093A3
:1025700000416093004161507109620F731F7093B5
:102580000041609300418CE290E08093004042174C
:102590005307A8F4C90187709927849FB001859FCC
:1025A000700D949F700D112493E0369527959A95A0
:1025B000E1F7249FD001259FB00D112414C0CA015A
:1025C00087709927829FB001839F700D929F700D35
:1025D000112483E0569547958A95E1F7429FD001F3
:1025E000439FB00D1124CB0187709927D82EA801E5
:1025F00020E030E013C0EA01FA01E590F490F09297
:102600000041E09200414E5F5F4FFE01C591D491C1
:10261000D0930041C09300412F5F3F4FD212EBCFC8
:10262000880F991F800F911F9B01D3E03695279546
:10263000DA95E1F72A0F3B1F32C0AC01FC0165912E
:1026400074917093004160930041709300416093D6
:102650000041FC0132966591749170930041609342
:1026600000417093004160930041FC0134966591F4
:1026700074917093004160930041709300416093A6
:10268000004108964A5F5F4FFA014591549150937B
:10269000004140930041509300414093004121503C
:1026A000310908F0CACFDF91CF911F910F91FF90B0
:1026B000EF90DF9008950F931F93CF93EAE2F0E03D
:1026C000E09300409093004180930041840F951F58
:1026D00090930041809300418BE290E08093004012
:1026E0007093004160930041620F731F709300412B
:1026F000609300418CE290E0809300404F5F5F4F19
:102700002F5F3F4F42175307A8F4B901677077272F
:10271000649FC001659F900D749F900D112473E01C
:10272000369527957A95E1F7249FB001259F700D86
:10273000112414C0BA0167707727629FC001639F9C
:10274000900D729F900D112463E0569547956A9500
:10275000E1F7429FB001439F700D1124FC01E77027
:10276000FF27CE2FD80120E030E008C04D915D91C9
:1027700050930041409300412F5F3F4FC213F6CF6B
:10278000EE0FFF1FE00FF11F33E0969587953A9506
:10279000E1F7860F971F31C02081318130930041CE
:1027A00020930041228133813093004120930041E6
:1027B0002481358130930041209300412681378167
:1027C00030930041209300412085318530930041B2
:1027D00020930041228533853093004120930041AE
:1027E0002485358530930041209300412685378527
:1027F00030930041209300417096019768F6CF9185
:102800001F910F9108950F931F93CF93DF93CDB72F
:10281000DEB728970FB6F894DEBF0FBECDBF298371
:102820003A834B835C836D837E838F839887698132
:102830007A812B813C814D815E818F819885EAE28E
:10284000F0E0E093004070930041609300413093CA
:10285000004120930041EBE2F0E0E0930040509310
:102860000041409300419093004180930041ECE28D
:10287000F0E0E09300402F5F3F4F261B370B01969F
:10288000841B950B28173907A8F4BC0167707727BC
:10289000629FA001639F500D729F500D1124A3E011
:1028A00096958795AA95E1F7829FB001839F700D59
:1028B000112414C0B90167707727689FA001699F30
:1028C000500D789F500D1124F3E036952795FA9519
:1028D000E1F7289FB001299F700D1124242F277044
:1028E00080E090E005C01093004100930041019604
:1028F0002813F9CFCA01E3E096958795EA95E1F7A9
:10290000860F971F20C01093004100930041109341
:102910000041009300411093004100930041109347
:102920000041009300411093004100930041109337
:102930000041009300411093004100930041109327
:102940000041009300410197F0F628960FB6F894E5
:10295000DEBF0FBECDBFDF91CF911F910F910895C4
:102960000F931F93EAE2F0E0E09300409093004160
:1029700080930041840F951F909300418093004104
:102980008BE290E08093004070930041609300419F
:10299000620F731F70930041609300418CE290E0DE
:1029A000809300404F5F5F4F2F5F3F4F42175307A9
:1029B000A8F4B90167707727649FC001659F900DE7
:1029C000749F900D112473E0369527957A95E1F761
:1029D000249FB001259F700D112414C0BA016770A7
:1029E0007727629FC001639F900D729F900D112405
:1029F00063E0569547956A95E1F7429FB001439F82
:102A0000700D1124482F477020E030E006C010936D
:102A10000041009300412F5F3F4F4213F8CFB3E0D6
:102A200096958795BA95E1F7860F971F20C010936A
:102A30000041009300411093004100930041109326
:102A40000041009300411093004100930041109316
:102A50000041009300411093004100930041109306
:102A60000041009300411093004100930041019701
:102A7000F0F61F910F9108950F931F93CF93DF935B
:102A8000CDB7DEB728970FB6F894DEBF0FBECDBF27
:102A900029833A834B835C836D837E838F839887FE
:102AA000D80129813A816B817C814D815E81EF81E2
:102AB000F8858AE290E080930040309300412093B3
:102AC000004170930041609300418BE290E080935D
:102AD00000405093004140930041F0930041E09347
:102AE00000418CE290E0809300400CC00D911D915C
:102AF00010930041009300410196E817F907B0F7E1
:102B00002F5F3F4F6217730710F0CA01F6CF289668
:102B10000FB6F894DEBF0FBECDBFDF91CF911F91EE
:102B20000F9108950F931F93CF93DF93CDB7DEB727
:102B300028970FB6F894DEBF0FBECDBF1092680283
:102B40001092670210926A02109269021A82198228
:102B500080916102909162020197482F9C838B8340
:102B60001E821D8280916302909164020197988772
:102B70008F8300916D0210916E0220E03A815C819A
:102B800060E07E8198850E94031428960FB6F89421
:102B9000DEBF0FBECDBFDF91CF911F910F91089582
:102BA00086E08093750080E8809374003F9A249AB1
:102BB0008FEC97E00197F1F700C0000047988FE392
:102BC0009CE90197F1F700C00000479A9FEF2DEEB6
:102BD00082E0915020408040E1F700C0000088E290
:102BE00090E08093004081E190E0809300409FEF6F
:102BF00026E781E0915020408040E1F700C00000CE
:102C000021E030E08BEC90E0809300402093004185
:102C100080EC90E08093004088E096E29093004141
:102C20008093004120E130E081EC90E0809300400F
:102C30002093004185EC90E0809300408EE395E383
:102C4000909300418093004125EB30E087EC90E0C9
:102C5000809300402093004121E030E086EF90E037
:102C6000809300402093004180E090E090930041E9
:102C70008093004125E530E08AE390E080930040B6
:102C80002093004181E090E00E9430110E94921553
:102C9000109268021092670210926A021092690202
:102CA00010926E0210926D028FEF9FEF90936C0264
:102CB00080936B0289E290E0809300409FE728E3D5
:102CC00081E0915020408040E1F700C0000020E00A
:102CD00030E085E390E08093004020930041EAE6F5
:102CE000F0E08081806280832C9A08957F928F9299
:102CF0009F92AF92BF92CF92DF92EF92FF920F938B
:102D00001F93CF93DF93F0916702E0916802A09147
:102D10006902B0916A028A3001F51092680210923D
:102D200067021896B0936A02A093690280916302C9
:102D300090916402A817B90708F498C0DF91CF9169
:102D40001F910F91FF90EF90DF90CF90BF90AF90C9
:102D50009F908F907F900C949215982F90529F3552
:102D600008F084C08D01095F1F4F25E08202C00179
:102D70001124885090402BE230E020930040B09323
:102D80000041A093004110930041009300412F2F78
:102D90003E2F7901C4E0EC0EF11CEAE2CE2ED12CDC
:102DA000FCE2AF2EB12C821B930B27C0C0920040D7
:102DB0003093004120930041309300412093004123
:102DC000A0920040FC01E20FF31FE4914D01F1E0FD
:102DD0000FC0CF2FCE2319F0C62FD72F01C0EA0185
:102DE000D0930041C0930041CFEF8C1A9C0AFF0F93
:102DF0000815190570F72F5F3F4FE216F306B0F67E
:102E00008AE290E08093004030930041209300419B
:102E100030930041209300418CE290E08093004089
:102E200005C0509300414093004111960A171B07BB
:102E3000C0F78091670290916802069690936802AD
:102E4000809367022091610230916202821793079A
:102E500068F0109268021092670280916902909166
:102E60006A02089690936A0280936902DF91CF917B
:102E70001F910F91FF90EF90DF90CF90BF90AF9098
:102E80009F908F907F9008950F931F937093680287
:102E90006093670250936A0240936902A801B901E6
:102EA0001F910F910C94761640916D0250916E0215
:102EB00060916B0270916C020C947616FF920F93E6
:102EC0001F93CF93DF93EC018B01F12C08C040914D
:102ED0006D0250916E02B8010E947616F394FE01C5
:102EE000EF0DF11D80818111F2CFDF91CF911F9104
:102EF0000F91FF90089560916B0270916C020C9499
:102F00005E17FF920F931F93CF93DF93EC0189011C
:102F1000709368026093670250936A02409369025B
:102F2000F12C08C040916D0250916E02B8010E94D0
:102F30007616F394FE01EF0DF11D80818111F2CF21
:102F4000DF91CF911F910F91FF90089520916B0217
:102F500030916C020C948117EF92FF920F931F93A4
:102F6000CF93DF93C0E0D0E000E810E0E82EF12C32
:102F700098010C2E02C0359527950A94E2F72E2170
:102F80003F21232B11F081E301C08EE20E945417F0
:102F90002196C830D10561F7DF91CF911F910F9134
:102FA000FF90EF900895CF93DF93CDB7DEB72B97C7
:102FB0000FB6F894DEBF0FBECDBF282F462F372F98
:102FC0008BE0ECEAF1E0DE01119601900D928A951A
:102FD000E1F7822FE62FF72F5AE03196652F0E94F6
:102FE0005B2E8111FACF10825AE0822F652F0E944A
:102FF0005B2EA1E0B0E0AC0FBD1FA90FB11D9C91ED
:103000009293282F8111F1CF842F932F2B960FB6F7
:10301000F894DEBF0FBECDBFDF91CF9108954F92E0
:103020005F926F927F92AF92BF92CF92DF92EF92B8
:10303000FF920F931F93CF93DF93CDB7DEB72B97FC
:103040000FB6F894DEBF0FBECDBF6B017C015A01F5
:103050008BE0ECEAF1E0DE01119601900D928A9589
:10306000E1F7A70196018501BAE04B2E512C612CA6
:10307000712C0F5F1F4FCA01B901A30192010E9479
:103080008F2E211531054105510599F7F801108260
:10309000AAE04A2E512C612C712CC701B601A30164
:1030A00092010E948F2EE1E0F0E0EC0FFD1FE60F91
:1030B000F71F8081F80182938F0169017A01C114A1
:1030C000D104E104F10449F7C5012B960FB6F89439
:1030D000DEBF0FBECDBFDF91CF911F910F91FF904B
:1030E000EF90DF90CF90BF90AF907F906F905F9008
:1030F0004F900895FF920F931F93CF93DF93CDB717
:10310000DEB72B970FB6F894DEBF0FBECDBF9C0184
:10311000F62E472F8BE0ECEAF1E0DE0111960190EC
:103120000D928A95E1F7C901E62FF72F0AE010E02A
:103130003196B8010E94672ECB010097C9F7108223
:103140000AE010E0C901B8010E94672EA1E0B0E0DA
:10315000AC0FBD1FA80FB91F8C9182939B01611505
:10316000710581F78F2D942F2B960FB6F894DEBF43
:103170000FBECDBFDF91CF911F910F91FF900895AA
:10318000CF93DF9300D01F92CDB7DEB7BE016F5F44
:103190007F4F0E94D3170E947B170F900F900F90C4
:1031A000DF91CF910895CF93DF93CDB7DEB72A9704
:1031B0000FB6F894DEBF0FBECDBFAE014F5F5F4FBD
:1031C0000E940F180E947B172A960FB6F894DEBF54
:1031D0000FBECDBFDF91CF910895CF93DF93CDB7D1
:1031E000DEB727970FB6F894DEBF0FBECDBFBE0186
:1031F0006F5F7F4F0E947A180E947B1727960FB649
:10320000F894DEBF0FBECDBFDF91CF9108950F932D
:103210001F93CF93DF93CDB7DEB72B970FB6F894FC
:10322000DEBF0FBECDBF8B01BE016F5F7F4F2A8710
:103230003B87488759870E947A182A853B854885AD
:103240005985B8010E9481172B960FB6F894DEBFFE
:103250000FBECDBFDF91CF911F910F9108950F93B6
:103260001F93CF93DF93CDB7DEB729970FB6F894AE
:10327000DEBF0FBECDBF8B01BE016F5F7F4F4887A2
:1032800059870E947A1848855985B8010E94A61767
:1032900029960FB6F894DEBF0FBECDBFDF91CF9158
:1032A0001F910F9108950F931F93CF93DF93CDB785
:1032B000DEB727970FB6F894DEBF0FBECDBF8B01E8
:1032C000BE016F5F7F4F0E947A18B8010E945E179F
:1032D00027960FB6F894DEBF0FBECDBFDF91CF911A
:1032E0001F910F9108950F931F93CF93DF93CDB745
:1032F000DEB727970FB6F894DEBF0FBECDBF8B01A8
:10330000BE016F5F7F4F2E833F834C835D830E949E
:10331000D3172E813F814C815D81B8010E948117B6
:1033200027960FB6F894DEBF0FBECDBFDF91CF91C9
:103330001F910F9108951F920F920FB60F921124B3
:103340000BB60F922F933F934F935F936F937F939F
:103350008F939F93AF93BF93EF93FF930E94BF1000
:103360000E949D10FF91EF91BF91AF919F918F911E
:103370007F916F915F914F913F912F910F900BBE75
:103380000F900FBE0F901F9018950F931F93609191
:10339000590470915A0480915704909158040091F7
:1033A0006D0210916E022AE030E04AE150E00E9486
:1033B000B0146091120370911303809110039091E7
:1033C000110303E712E02AE030E04AE150E00E94F6
:1033D000DA1186E0E0E1F3E0A7E5B4E001900D92B8
:1033E0008A95E1F71F910F9108950F931F93809194
:1033F0002805882309F48BC0209106033091070328
:1034000080912405909125052817390791F1809125
:103410002805833070F540912405509125052091B1
:10342000060330910703609126057091270580916E
:1034300006039091070300916D0210916E02421BEA
:10344000530B2EE030E00E94B014809128058130AB
:1034500081F4609126057091270580912405909153
:10346000250505EC14E02EE030E040E250E00E943B
:103470009D1280912805823088F1809128058A303C
:1034800068F580912805823019F5609126057091C4
:103490002705809124059091250505E816E020E197
:1034A00030E04AE150E00E949D1260912605709143
:1034B0002705809124059091250500916D021091BA
:1034C0006E022EE030E046E050E04A960E94B014D2
:1034D000809128058F5F809328052FC08091280553
:1034E0008A3058F160912605709127058091240556
:1034F0009091250500916D0210916E0220E130E05F
:103500004AE150E00E94B0141092280516C0809144
:103510000A038823D9F060912605709127058091D0
:1035200006039091070300916D0210916E022EE048
:1035300030E040E250E00E94B01486E0E4E2F5E0C2
:10354000A6E0B3E001900D928A95E1F71F910F91EB
:103550000895AF92BF92CF92DF92EF92FF920F93B6
:103560001F93CF93DF93CEEFD3E08CE1E82E84E07E
:10357000F82EC12CD12C96E0B92EF601E250FC4F6A
:103580008481882369F1F701628173812A813B81FB
:10359000261B370BAA24A3942530310508F4A12C4F
:1035A00000916D0210916E02AA2011F024E030E02B
:1035B00041E050E0888199810E94B014A11039C087
:1035C000F701628173812A813B81261B370B6C5F77
:1035D0007F4F00E018EF41E050E08881998113C0EF
:1035E000F601E45EFB4F84818823B1F000916D0207
:1035F00010916E02F7016281738124E030E041E0B6
:1036000050E0808191810E94B014FE01D7018B2D82
:1036100001900D928A95E1F7F6E0CF0ED11C269627
:1036200086E0E80EF11CEEE1CE16D10409F0A5CF3C
:1036300005C06A817B8124E030E0CBCFDF91CF9160
:103640001F910F91FF90EF90DF90CF90BF90AF90C0
:1036500008950F931F93CF9380916204882309F4F8
:1036600046C0809118039091190320916004309115
:103670006104821B930BC1E0059708F4C0E0009140
:103680006D0210916E02C11152C020911803309149
:1036900019038091600490916104281B390B60919B
:1036A0006004709161046C5F7F4F80915E04909123
:1036B0005F0441E050E00E94B014C1110BC02091A2
:1036C0001803309119038091600490916104281BC4
:1036D000390B02C024E030E0609160047091610415
:1036E00080915E0490915F040FE110E012C0809120
:1036F0001A03882319F160911803709119038091BE
:1037000016039091170300916D0210916E0224E050
:1037100030E041E050E00E94B01486E0EEE5F4E0D5
:10372000A6E1B3E001900D928A95E1F707C06091A0
:1037300018037091190324E030E0B7CFCF911F91A7
:103740000F91089580911E0390911F0345E050E072
:103750006AEF70E00C942F19FF920F931F93CF9391
:10376000DF93F12CC8E1D1E00DC005EC19E027E0B2
:1037700030E048E050E065E070E0CE010E94DA11F0
:10378000F3942D9680915304F81678F30FC00091AE
:103790006D0210916E0227E030E048E050E065E0F5
:1037A00070E0CE010E94B014F3942D9682E08F1544
:1037B00070F7DF91CF911F910F91FF9008952F9295
:1037C0003F924F925F926F927F928F929F92AF92B1
:1037D000BF92CF92DF92EF92FF920F931F93CF93FE
:1037E000DF9300D000D000D0CDB7DEB7E12CF12CB4
:1037F00046E0242E61C08D81869586958695830D41
:103800009401280F311DA9014C595B4F5A834983FC
:10381000F901EC53FB4FFC83EB83FA012081EB8130
:10382000FC81808128278D819E818770992740E8BF
:1038300050E002C0559547958A95E2F72423E1F0C0
:10384000F20160817181F50180819181660D771DA2
:10385000ED81FE81EE0FFF1F00E010E022E030E07E
:1038600042E050E08E0F9F1F0E94B014EB81FC815C
:103870008081E981FA8180832D813E812F5F3F4FD6
:103880003E832D832F30310509F0B5CF3FEFC31AAA
:10389000D30A4BE0C416D10441F03C2C330C360162
:1038A000660C771C1E821D82A6CF5FEFE51AF50A13
:1038B00084E0E816F104B1F0C12CD12C98E19E9D72
:1038C00040019F9D900C11242E9C50012F9CB00C08
:1038D0001124EBE3F4E0AE0EBF1E2501F2E04F0E23
:1038E000511CDBCF26960FB6F894DEBF0FBECDBFBE
:1038F000DF91CF911F910F91FF90EF90DF90CF90CC
:10390000BF90AF909F908F907F906F905F904F90FF
:103910003F902F9008950F931F93FC018581811193
:1039200010C0611107C0628173818081918105E5BA
:103930001AE02CC0628173818081918105EF1BE0C8
:1039400025C08581813081F4611107C06281738156
:103950008081918105E91DE019C0628173818081B8
:10396000918105ED10E112C085818230A9F46111C9
:1039700007C0628173818081918105E114E106C0F5
:10398000628173818081918105EB15E120E130E056
:103990004AE150E00E949D121F910F9108953F92BD
:1039A0004F925F926F927F928F929F92AF92BF924F
:1039B000CF92DF92EF92FF920F931F93CF93DF93FB
:1039C0002091FC033091FD0380910E0390910F0331
:1039D00044244394821793070CF0412C2091540403
:1039E0003091550430913005522E531A442031F055
:1039F0006090FC037090FD03681A06C02091FC03E0
:103A00003091FD03682E621AA12CB12C56E0752E60
:103A10006EE1362E852C912C81E0881A9108BEC06B
:103A20007C9EC0017D9E900D11248C0D9D1DFC017E
:103A3000E059FD4F2481222309F4A4C0552081F0D0
:103A4000FC01EE5CFA4F628173818081918100916B
:103A50006D0210916E0294014AE150E00E94B01490
:103A60006620A9F17C9EC0017D9E900D11248C0DD5
:103A70009D1DFC01E059FD4F2481233040F500914C
:103A80006D0210916E0262817381442031F0FC015D
:103A9000EE5CFA4F8081918103C0808191814A96CA
:103AA00020E130E0462D50E00E94B0147C9EC00121
:103AB0007D9E900D11248C0D9D1D80599D4FFC0104
:103AC0002481213021F460914A020E948B1C7C9E4B
:103AD000F0017D9EF00D1124EC0DFD1DE059FD4F10
:103AE00084818230F8F084818A30E0F484818230ED
:103AF00061F4628173818081918105E816E020E1A3
:103B000030E04AE150E00E949D127C9EF0017D9ED3
:103B1000F00D1124EC0DFD1DE059FD4F84818F5FE8
:103B200084831FC07C9E70017D9EF00C1124EC0CE0
:103B3000FD1C80E792E0E80EF91EF70184818A30CF
:103B400080F0628173818081918100916D0210917A
:103B50006E0220E130E04AE150E00E94B014F7012B
:103B600014827C9EF0017D9EF00D1124EC0DFD1D54
:103B7000DF01AE5CBA4FE059FD4F872D01900D92E9
:103B80008A95E1F72196C530D10509F049CFFFEFBD
:103B9000AF1ABF0A85E0A816B10441F0C0E0D0E03A
:103BA0003A9C60013B9CD00C11243ACF552041F047
:103BB0008091540490915504909331058093300581
:103BC000662071F08091FC039091FD0390930F03A8
:103BD00080930E0380914A0291E0892780934A02E4
:103BE000DF91CF911F910F91FF90EF90DF90CF90D9
:103BF000BF90AF909F908F907F906F905F904F900D
:103C00003F9008950F931F9390910C0380913A0475
:103C1000981709F451C00E94921580913A048111BD
:103C200003C02FE130E002C02FEF3FEF4AE550E044
:103C300065E570E087EB91E00E94811780913A047E
:103C4000813019F42FE130E002C02FEF3FEF43E75E
:103C500050E065E570E08DEB91E00E948117809166
:103C60003A04823019F42FE130E002C02FEF3FEF29
:103C70004CE850E065E570E089EC91E00E94811726
:103C800080913A04813041F018F08230A9F402C0EA
:103C90006AE503C06CE801C063E705E517E126E0CB
:103CA00030E043E050E070E08FE490E00E94DA11F1
:103CB00080913A0480930C031F910F910895DF9235
:103CC000EF92FF920F931F93CF93DF93809156044F
:103CD0008111A2C045E050E062E370E08FEC91E01A
:103CE0000E94A61720EA3EEF44E150E065E570E04F
:103CF00083EF91E00E94811760EA7EEF80915A0184
:103D000090915B010E94531960EA7EEF8BEF91E086
:103D10000E945E1760EA7EEF80E293E00E945E17E9
:103D200027EF3DEB4EE150E065E570E08FEF91E06D
:103D30000E94811767EF7DEB80915C0190915D019E
:103D40000E94531967EF7DEB8BEF91E00E945E17A5
:103D500067EF7DEB8BE293E00E945E1721E935ED82
:103D600048E250E065E570E087E092E00E9481174C
:103D700061E975ED80915E0190915F010E94531998
:103D800061E975ED8BEF91E00E945E1761E975EDD9
:103D900086E393E00E945E1770E6E72E71E0F72E4F
:103DA000C3E0D0E002E310E0EBE0DE2E8C2FC93060
:103DB00018F065E570E002C06BE570E02FEF3FEFB3
:103DC000A8018F5F0E9473196FEF7FEF85EF91E07D
:103DD0000E945E176FEF7FEFF701819191917F0154
:103DE0000E9453196FEF7FEF8BEF91E00E945E17F7
:103DF000DC9EC001DD9E900D11246FEF7FEF805E91
:103E00009C4F0E945E17065F1F4F21960C3D1105C7
:103E100069F681E080935604DF91CF911F910F9155
:103E2000FF90EF90DF9008950E944F10809156040C
:103E3000811113C044E150E06FE570E08FE092E043
:103E40000E94A61742E350E06EE170E081E292E04A
:103E50000E94A61781E080935604089580E20E9494
:103E60001811882361F00E94921585E080930C035D
:103E700081E080933A040E94221110920D0308956C
:103E80000E943A0E882351F00E94921585E080939B
:103E90000C0381E080933A0410920D030895109270
:103EA0006204109202041092080410920E04109200
:103EB000140410921A04109228050895FF920F938B
:103EC0001F93CF93DF9300D000D000D0CDB7DEB7E3
:103ED0000E94AC1BF8E0FF2E32C06091120370917B
:103EE000130380911003909111030DE817E12AE06C
:103EF00030E04AE150E00E94DA112FEB84ED91E0CE
:103F0000215080409040E1F700C000006091120312
:103F10007091130380911003909111030FED19E13B
:103F20002AE030E04AE150E00E94DA112FEB84ED04
:103F300091E0215080409040E1F700C00000FA94E9
:103F400061F66091590470915A04809157049091E0
:103F5000580400916D0210916E022AE030E04AE1AF
:103F600050E00E94B014609112037091130380918D
:103F700010039091110300916D0210916E022AE0DE
:103F800030E04AE150E00E94B01410925D0486E0F7
:103F9000EEE9F1E0DE01119601900D928A95E1F7CC
:103FA00086E0FE013196A7E5B4E001900D928A9576
:103FB000E1F786E0FE013196A0E1B3E001900D92B9
:103FC0008A95E1F780E80E940A1180E80E941811A2
:103FD0000E944F1F80916F00826080936F00269631
:103FE0000FB6F894DEBF0FBECDBFDF91CF911F910A
:103FF0000F91FF9008951F920F920FB60F92112408
:104000000BB60F922F933F934F935F936F937F93D2
:104010008F939F93AF93BF93EF93FF9380910D0383
:10402000813049F028F08230E1F08430F9F41CC08E
:104030000E94021E1BC00E94A21B80915D04882367
:1040400019F00E945E1F12C00E94A91A0E94CF1C84
:104050000E94291B0E94C5190E94F5190E94DF1BAE
:1040600005C00E945F1E02C00E94141FFF91EF91C5
:10407000BF91AF919F918F917F916F915F914F9180
:104080003F912F910F900BBE0F900FBE0F901F907E
:1040900018953F924F925F926F927F928F929F926C
:1040A000AF92BF92CF92DF92EF92FF920F931F9346
:1040B000CF93DF93CDB7DEB72E970FB6F894DEBF60
:1040C0000FBECDBF49835A836B837C83AF82B88692
:1040D000C986DA866DA07EA0E980FA804B815C817A
:1040E000AF81B88589859A859E878D8784179507C6
:1040F00010F45E874D87BA01600F711D3AA1AC01C3
:10410000430F511D6417750708F4AB01BD01AE15CF
:10411000BF0508F4B701E20EF11C9D01280D311D09
:10412000E216F30608F49701CD84DE84C81AD90A92
:10413000C601969587955B01AA1ABB0AB694A79407
:104140008D849E84E0E84E2E512C38C0382E330CDE
:10415000D5018B012CC07D01E3E0F694E794EA954C
:10416000E1F7E30CEBA1FCA1EE0DF11DE080F12CD9
:10417000F7E0CF2ED12CCA22DB22F20102C0F59546
:10418000E795CA94E2F7EE22FF22EF2869F0F301E7
:104190007183608333832283CD84DE84D582C4829D
:1041A0005783468381E00EC00E5F1F4F1196201784
:1041B000310788F602E0800E911C019648155905DA
:1041C00028F680E02E960FB6F894DEBF0FBECDBF66
:1041D000DF91CF911F910F91FF90EF90DF90CF90E3
:1041E000BF90AF909F908F907F906F905F904F9017
:1041F0003F900895BF92CF92DF92EF92FF920F937C
:104200001F93CF93DF9320915A0130915B018091EE
:104210005C0190915D0128173907D8F584E091E0A1
:104220000E94132F6C010AE511E0A0E2EA2EA3E040
:10423000FA2EC0E0D0E0BBE0BB2E8DECC8168BEAB6
:10424000D80631F0F80111821082F701108218C0EF
:10425000BC9EC001BD9E900D1124BC0160507040F9
:104260004BE050E0805E9C4F0E94032FCE01880FF0
:10427000991F84529F4F0E94132FF80191838083CE
:1042800021960E5F1F4FFBE0EF0EF11CC431D105EC
:10429000A1F6DF91CF911F910F91FF90EF90DF90EA
:1042A000CF90BF900895809185018A30D1F40E940B
:1042B000B61087FF08C080913A04882381F080916E
:1042C0003A0481500AC0882351F080913A0490E06A
:1042D000019663E070E00E947B2E80933A04109276
:1042E0008501809185018F5F8093850180E80E9420
:1042F00018118823B9F00E94221180913A0481306C
:1043000031F018F0823071F40AC081E009C00E94D7
:1043100092150E94FA201092560482E001C083E0B8
:1043200080930D030895FF920F931F93CF93DF9314
:104330000AE511E0C0E0D0E03BE0F32EF801619126
:1043400071918F01CE01880F991F84529F4F0E9457
:104350003B2FFC9EC001FD9E900D1124BC016050BE
:1043600070404BE050E0805E9C4F0E94192F2196D8
:10437000C431D10519F76DEC7BEA84E091E0DF915F
:10438000CF911F910F91FF900C943B2F41E0209112
:104390008001309181018217930708F440E0842F57
:1043A00008950F931F93CF93DF9320918001309155
:1043B000810182179307E8F1E0E8F1E046EE53E06F
:1043C00013E118C0B383A28320E030E0EA012B960A
:1043D000DA01A20FB31F0C91DE01A20FB31F0C93E1
:1043E0002F5F3F4F2B30310599F711504B5051093A
:1043F000112329F0B291A291A817B90718F3E12F60
:10440000F0E0EE0FFF1FE65AFE4F91838083FB0121
:104410008BE0189F90011124205E3C4F80E090E0DB
:104420004191D901A80FB91F4C9301968B3091058A
:10443000B9F7DF91CF911F910F91089580917C0082
:104440008B6480937C0080917A00866080937A00F0
:1044500080917A00806C80937A0006C08FE99FE09B
:104460000197F1F700C0000080917A0084FFF6CF39
:10447000909178004091790080917A008F778093B5
:104480007A00342F20E0292B91EE29279CEA392746
:10449000C901089520912E0530912F05C9019695E7
:1044A000879520FF02C024EB922790932F058093DD
:1044B0002E0580912E0590912F0508952F923F9201
:1044C0004F925F926F927F928F929F92AF92BF9224
:1044D000CF92DF92EF92FF920F931F93CF93DF93D0
:1044E000CDB7DEB765970FB6F894DEBF0FBECDBF70
:1044F00080914B0290E0019662E370E00E947B2E77
:1045000080934B0242E054E0588B4F8780E094E068
:104510009A8B898B412C512C16E038E1DE011196E3
:10452000BA87A98797E1992EEF85F889808188233A
:1045300009F409C1A989BA898D919C9111970196B5
:104540008D939C938C3E910510F01082FCC060917D
:104550001003709111034091120350911303149DA5
:104560006001159DD00C1124C60182509C4F9E877E
:104570008D87DC01ED91FC91119712968D919C91A4
:104580001397DB015A96AE17BF0790F03196E617E6
:10459000F70770F0BA01665F7F4F6817790740F040
:1045A000BC016C5F7F4F81E090E06417750710F4E9
:1045B00080E090E0882371F08091530481508093D3
:1045C000530481E080935D0480916F008D7F809320
:1045D0006F002EC4212C312C149DF001159DF00D7F
:1045E0001124E250FC4FFC87EB87129DF001139DD4
:1045F000F00D1124E55CFB4F608171814281538194
:10460000AD85BE85ED91FC91119712968D919C918F
:104610001397DB015F96AE17BF0790F03196E61750
:10462000F70770F0BA01695E7F4F6817790740F0AD
:10463000BC016C5F7F4F81E090E06417750710F458
:1046400080E090E0882309F476C0329DF001339D2C
:10465000F00D1124FC8BEB8BCF018C539B4F129DE3
:104660003001139D700C11240BE3C02E04E0D02EFA
:104670006C0C7D1CDA84DF92E984EF929F938F9318
:104680009F928FE1882ED301AC901196BC90119728
:104690001296CC9012971396DC9013971496EC9088
:1046A00014971596FC9004E021E0EB85FC85408191
:1046B000518162817381848195813D8B0E94492063
:1046C0000F900F900F900F900F903D89882399F1D4
:1046D000D3018D919C911197E981FA81E81BF90B27
:1046E000AF015695479512966D917C911397A4E072
:1046F000F695E795AA95E1F78F819885861B970B2C
:104700008E7FE80FF91FCB88DC88EC0DFD1DEC5384
:10471000FB4F47705527B0E8EB2EF12C02C0F59403
:10472000E7944A95E2F7A7014095808148234083AA
:10473000AF85B8891C92BFEF2B1A3B0AE4E02E1616
:10474000310409F052CFFFEF4F1A5F0A4F855889A5
:104750004A5F5F4F588B4F8789899A8906969A8B53
:10476000898B95E04916510409F0DECE80E80E945D
:104770001811182F80E80E940A1190916204992361
:1047800009F4C6C0809160049091610402979093EF
:10479000610480936004809160049091610441976A
:1047A00010F410926204412C512C16E038E1DE0125
:1047B0001196BA87A98757E1952E149DF001159D92
:1047C000F00D1124E55CFB4F6081718142815381C2
:1047D000E0915E04F0915F04809160049091610427
:1047E000DB015F96AE17BF0790F03196E617F7072B
:1047F00070F0BA01695E7F4F6817790740F0BC011D
:104800006C5F7F4F81E090E06417750710F480E0E3
:1048100090E0882309F473C0349D1001359D300C5D
:104820001124C1018C539B4F149D3001159D700CB8
:104830001124EBE3F4E06E0E7F1EFA85FF93C9842A
:10484000CF929F938F939F924FE1842ED301AC9090
:104850001196BC9011971296CC9012971396DC90FB
:1048600013971496EC9014971596FC9004E021E0B1
:1048700040915E0450915F04609160047091610406
:1048800080916204909163043D8B0E9449200F90B7
:104890000F900F900F900F903D89882381F1F301C5
:1048A00080819181E981FA81E81BF90BAF0156956E
:1048B0004795D30112966D917C91139794E0F695EC
:1048C000E7959A95E1F78D819E81861B970B8E7FE8
:1048D000E80FF91FE20DF31DEC53FB4F477055270E
:1048E00020E8C22ED12C02C0D594C7944A95E2F795
:1048F000A6014095808148234083109262042FEFE7
:10490000421A520A44E04416510409F056CF24C01A
:10491000182B11F180911A0381111EC08091100390
:10492000909111030D9690935F0480935E048091A3
:104930001203909113030497909361048093600491
:1049400081E08093620486E0EEE5F4E0A6E1B3E066
:1049500001900D928A95E1F760915E0470915F0479
:10496000A0916004B09161043B015FEF651A750A84
:104970007D0184E0E80EF11C20E030E0F6E0BF2E7F
:104980001EE1912E02E0A02E4FC0B89EF001B99E0C
:10499000F00D1124E40FF51FE059FD4FD480CC2415
:1049A000C394DC1037C0D0906204DD2099F1C08040
:1049B000D1800280F381E02D6C147D0490F01AE127
:1049C000C10ED11CC616D70660F0EE16FF0648F0E1
:1049D0006F0110E1C10ED11CE1E0F0E0CA16DB0668
:1049E00010F4E0E0F0E0EE23A9F010926204B89E2B
:1049F000F001B99EF00D1124E40FF51FE059FD4FB1
:104A0000A482E0911E03F0911F03F296F0931F031E
:104A1000E0931E0301968530910509F0B6CF2F5F14
:104A20003F4F2530310541F080E090E0929EA0019B
:104A3000939E500D1124A9CF80914B02811166C124
:104A400080911C0390911D030A9738F08091C8054E
:104A50009091C9058733914088F0809182018195BA
:104A6000809382018091830190918401C2979093F9
:104A7000840180938301E8E02E2E01C0212C109246
:104A80006F0210922D0510922C051092C9051092FC
:104A9000C80580E491E090932B0580932A059093BC
:104AA0001D0380931C0300E010E066E0962E7EE17B
:104AB000372E622C712CF2C0989EF001999EF00D59
:104AC0001124EA0DFB1DE059FD4F848061E0861240
:104AD00077C0782F80926F02E080F180E40CF51CA3
:104AE000F182E082E280F380E60CF71CF382E2823E
:104AF000E280F380C0901203D090130360E1E60ED1
:104B0000F11CEC14FD04A8F05093C9054093C805AE
:104B1000B0931D03A0931C0330932D0520932C0507
:104B20008D859E8590932B0580932A0510925304C2
:104B30007FC180926F02E080F1806AE1E60EF11C95
:104B40004E155F0520F440815181465E5F4F989E6F
:104B5000F001999EF00D1124EA0DFB1DE059FD4F67
:104B6000E080F180EA16FB0610F4A081B181989EE6
:104B7000F001999EF00D1124EA0DFB1DE059FD4F47
:104B8000E280F38060E1E60EF11C2E153F0520F473
:104B900022813381205F3F4F989EF001999EF00D56
:104BA0001124EA0DFB1DE059FD4FE280F380CD8416
:104BB000DE84EC14FD0420F4E280F380FE86ED86B2
:104BC00001968530910509F077CF5093C905409340
:104BD000C805B0931D03A0931C0330932D052093AB
:104BE0002C054D855E8550932B0540932A057F3F0C
:104BF00009F44FC07D8B0E944A222091830130919D
:104C000084017D892817390708F043C080E090E0CF
:104C100020E030E0FC01E250FC4F4481411133C000
:104C2000FC01E45EFB4F448141112DC0592D7503F9
:104C3000D0011124309EC001319E900D1124A80F87
:104C4000B91FA059BD4F8D919C911197929EA001C3
:104C5000939E500D1124FA01E250FC4F0D96918362
:104C6000808312968D919C911397419693838283B2
:104C700061E06483DA01A45EBB4F892D01900D923F
:104C80008A95E1F706C02F5F3F4F06968E3191055A
:104C900009F60F5F1F4F0530110501F140908201A9
:104CA000552447FC50944091C8055091C905A091E6
:104CB0001C03B0911D0320912C0530912D0580918E
:104CC0002A0590912B059E878D8780E090E07FEFED
:104CD000309E5001319EB00C1124EECE8091FC0329
:104CE0009091FD0320918201820F911D27FD9A95DD
:104CF0009093FD038093FC0380915404909155049C
:104D0000820D911D90935504809354048091280541
:104D1000813009F054C0809162048823E1F1409110
:104D20005E0450915F0420916004309161046091B1
:104D30002405709125058091260590912705FA019B
:104D40003196E617F70798F0605E7F4F6417750796
:104D500070F0A9014C5F5F4F4817590740F0AC0154
:104D6000425F5F4F81E090E04217530710F480E00C
:104D700090E0882381F01092620482E080932805FD
:104D800080911E0390911F0388539F4F90931F03A0
:104D900080931E032AC080912405909125050196D9
:104DA00090932505809324058091240590912505F5
:104DB000809680349140C8F01092280516C08091EA
:104DC0000A03811112C00E944A22803F9F4F68F05F
:104DD00081E080932805109225051092240580E13A
:104DE00090E090932705809326050E94B61087FFD8
:104DF0000CC080911003909111030697C8F0809128
:104E000010039091110305970FC0882389F08091BA
:104E10001003909111034F968034914048F4809193
:104E20001003909111030596909311038093100342
:104E300065960FB6F894DEBF0FBECDBFDF91CF9160
:104E40001F910F91FF90EF90DF90CF90BF90AF90A8
:104E50009F908F907F906F905F904F903F902F909A
:104E600008951F920F920FB60F9211240BB60F9256
:104E70002F933F934F935F936F937F938F939F9362
:104E8000AF93BF93EF93FF9380910D03813049F06F
:104E900028F0823049F0843061F409C00E94532127
:104EA00008C00E945E2205C00E942E1F02C00E9400
:104EB000401FFF91EF91BF91AF919F918F917F9193
:104EC0006F915F914F913F912F910F900BBE0F907B
:104ED0000FBE0F901F901895E1E6F0E080E8808308
:104EE0001082279A0E94D0150E948C108FE10E9498
:104EF000A411EE9A10928000E1E8F0E098E090832F
:104F0000808182608083EFE6F0E080818260808330
:104F100010929000E1E9F0E09083808182608083CC
:104F2000E1E7F0E080818260808380ED97E09093FC
:104F30009900809398000E941E2290932F058093E1
:104F40002E050895CF92DF92EF92FF920F931F9359
:104F50006B017C0120E030E040E05FE40E942A2AFF
:104F600087FD0EC020E030E040E05FE4C701B601FD
:104F70000E9457290E94B52A8B019C01305806C017
:104F8000C701B6010E94B52A8B019C01B801C90175
:104F90001F910F91FF90EF90DF90CF900895A4E0C4
:104FA000B0E0E5EDF7E20C94B32E7C016A01FC0160
:104FB0008081823008F44AC1FB019081923008F46C
:104FC00042C1843079F4943009F040C1F7019181F5
:104FD000FB018181981709F439C1A4EAEA2EA1E006
:104FE000FA2E34C1943009F42EC1923091F48230FB
:104FF00009F02CC188E0F701DA0101900D928A9541
:10500000E1F7FB018181F70191818923FA01818315
:105010001CC1823009F417C1F70182819381FB0121
:10502000A281B381F7010481158126813781FB01BB
:1050300084809580A680B780FC01EA1BFB0BAF0142
:10504000F7FF04C0442755274E1B5F0B4032510524
:105050000CF074C01E161F06B4F524013501042E91
:1050600004C076946794579447940A94D2F749827F
:105070005A826B827C82412C512C3201439404C0B1
:10508000440C551C661C771C4A95D2F741E0441A23
:10509000510861087108482059206A207B20812C22
:1050A000912C5401839445284628472819F4812CD3
:1050B000912C540149805A806B807C8084289528EB
:1050C000A628B72846C0EF2B09F443C0840F951FCC
:1050D00028013901042E04C07694679457944794AC
:1050E0000A94D2F749825A826B827C82412C512CDD
:1050F0003201439404C0440C551C661C771C4A952D
:10510000D2F741E0441A5108610871084022512247
:105110006222732201E010E020E030E045284628BA
:10512000472819F400E010E0980149805A806B800C
:105130007C8004291529262937290BC0A817B9070F
:1051400024F4812C912C540104C0CD0100E010E026
:105150009801F7014181FB015181451709F446C0CF
:10516000442349F024013501401A510A620A730AA6
:105170009301820104C0081919092A093B0937FD66
:1051800005C0F6011182938382830CC041E0F601D1
:1051900041839383828330952095109501951F4F0D
:1051A0002F4F3F4F04831583268337830EC0880F0C
:1051B000991FAA1FBB1FF60184839583A683B7831B
:1051C00082819381019793838283F6018481958103
:1051D000A681B781AC01BD01415051096109710936
:1051E0004F3F5F4F6F4F7F4310F30CC0F601418379
:1051F00093838283080D191D2A1D3B1D048315838B
:105200002683378383E0F60180834481558166815C
:10521000778177FF1AC0DB01CA0181709927AA271D
:10522000BB277695679557954795842B952BA62B8D
:10523000B72B84839583A683B7838281938101965C
:105240009383828302C07B0101C07601C70124964B
:10525000E0E10C94CF2EA0E2B0E0E1E3F9E20C949F
:10526000C12E6D8F7E8F8F8F98A3298F3A8F4B8F92
:105270005C8FBE016F5E7F4FCE014D960E94CE2B9C
:10528000BE01675F7F4FCE0149960E94CE2BAE01D3
:105290004F5F5F4FBE01675F7F4FCE0141960E9417
:1052A000CF270E94042BA096E2E00C94DD2EA0E212
:1052B000B0E0EDE5F9E20C94C12E6D8F7E8F8F8FFB
:1052C00098A3298F3A8F4B8F5C8FBE016F5E7F4F03
:1052D000CE014D960E94CE2BBE01675F7F4FCE015F
:1052E00049960E94CE2B8A8591E089278A87AE0154
:1052F0004F5F5F4FBE01675F7F4FCE0141960E94B7
:10530000CF270E94042BA096E2E00C94DD2EA8E1AA
:10531000B0E0EDE8F9E20C94BB2E6D8B7E8B8F8BA9
:10532000988F298B3A8B4B8B5C8BBE01675F7F4FCD
:10533000CE0145960E94CE2BBE016F5F7F4FCE01FE
:1053400041960E94CE2B9985923008F475C08981D0
:10535000823008F474C02A853A8123272A87943042
:1053600011F0923019F4981367C06CC0843039F48E
:105370001D861E861F86188A1C861B8604C08230E6
:1053800029F484E08987CE0109965EC08B859C85CF
:105390002B813C81821B930B9C878B874D855E857F
:1053A0006F857889CD80DE80EF80F8844C155D05AF
:1053B0006E057F0538F4440F551F661F771F019750
:1053C0009C878B87EFE1F0E000E010E020E030E424
:1053D00080E090E0DC014C155D056E057F0540F036
:1053E000802B912BA22BB32B4C195D096E097F09E1
:1053F0003695279517950795440F551F661F771FFC
:10540000319749F78C019D010F7711272227332708
:10541000003411052105310559F487FD09C0452BDC
:10542000462B472B29F0805C9F4FAF4FBF4F8078B2
:105430008D879E87AF87B88BCE01099605C0CE01B8
:10544000019602C084EA91E00E94042B6896E8E08D
:105450000C94D72EA8E1B0E0E0E3FAE20C94C12E60
:105460006D8B7E8B8F8B988F298B3A8B4B8B5C8BC4
:10547000BE01675F7F4FCE0145960E94CE2BBE01D5
:105480006F5F7F4FCE0141960E94CE2B898582307F
:1054900058F08981823040F0BE016F5F7F4FCE01AE
:1054A00009960E943D2C01C08FEF6896E2E00C94B3
:1054B000DD2EA8E0B0E0EFE5FAE20C94BF2E23E089
:1054C00029838B019C01002737FD03951127222793
:1054D0003327402F0A83611571058105910519F461
:1054E00082E0898335C02EE130E03C832B83442366
:1054F00071F061157105810520E8920771F10027AF
:1055000011279801061B170B280B390B02C08B01C2
:105510009C01C901B8010E94E82E019718161906CE
:105520002CF00D831E832F83388712C0082E04C0F1
:10553000000F111F221F331F0A94D2F70D831E8301
:105540002F8338872EE130E0281B390B3C832B83D7
:10555000CE0101960E94042B04C060E070E080E060
:105560009FEC2896E4E00C94DB2EACE0B0E0EBEB93
:10557000FAE20C94BF2E69877A878B879C87BE01DD
:105580006F5F7F4FCE0109960E94CE2B89818230BA
:1055900091F1823080F1843041F48A81882331F1A5
:1055A00000E010E020E030E829C02B813C8137FD8D
:1055B00022C02F3131058CF78EE190E0821B930BD6
:1055C0000D811E812F81388504C03695279517954A
:1055D00007958A95D2F78A81882381F030952095A6
:1055E000109501951F4F2F4F3F4F08C00FEF1FEF32
:1055F0002FEF3FE703C000E010E09801B801C901B8
:105600002C96E4E00C94DB2E0F931F93CF93DF9343
:10561000DC0114964D915D916D917C9117971196D7
:10562000EC9111978C91823020F460618FEF90E0C3
:10563000A6C0843009F49EC0823009F495C041159B
:1056400051056105710509F492C012962D913C91A6
:10565000139722388FEF38070CF058C0C2E8DFEFFD
:10566000C21BD30BCA31D1056CF58A019B010C2EEC
:1056700004C036952795179507950A94D2F781E0CF
:1056800090E0A0E0B0E00C2E04C0880F991FAA1F84
:10569000BB1F0A94D2F70197A109B109842395236E
:1056A000A623B72341E050E060E070E0892B8A2B0D
:1056B0008B2B19F440E050E0BA01402B512B622BA8
:1056C000732B03C040E050E0BA01DB01CA018F77C1
:1056D0009927AA27BB2780349105A105B10539F484
:1056E00047FF09C0405C5F4F6F4F7F4F04C0415C74
:1056F0005F4F6F4F7F4F81E090E04115510561058D
:1057000020E4720748F580E090E026C0203831059B
:105710008CF5DB01CA018F779927AA27BB27803434
:105720009105A105B10539F447FF09C0405C5F4F01
:105730006F4F7F4F04C0415C5F4F6F4F7F4F77FDCE
:1057400004C0C90181589F4F07C07695679557954A
:105750004795C90180589F4F97E076956795579573
:1057600047959A95D1F70BC080E090E005C080E0A6
:1057700090E005C08FEF90E040E050E0BA01982F34
:105780009695E0FB97F9362F80FB37F9642F752F3C
:10579000832FDF91CF911F910F910895CF92DF92C8
:1057A000EF92DC01FB01CC901196DC9011971296E0
:1057B0008C9112973FE7E32EE8226E2DA60170E050
:1057C000982F991F9927991F13962C91822F880F34
:1057D000892B90E027FB222720F92183009729F5C8
:1057E000411551056105710511F482E027C082E879
:1057F0009FEF9383828327E0440F551F661F771F17
:105800002A95D1F783E0808309C0440F551F661F96
:10581000771F82819381019793838283411551057C
:10582000610580E4780788F320C08F3F910579F403
:10583000411551056105710519F484E0808319C093
:10584000E4FE03C081E0808310C010820EC08F5739
:1058500091099383828383E0808387E0440F551FFF
:10586000661F771F8A95D1F77064448355836683DA
:105870007783EF90DF90CF900895CF93FC01DB0109
:105880009081923008F452C08C91823008F44EC05E
:10589000943071F4843039F411962C9130E0818188
:1058A000281B310948C08181882309F43FC03BC0CF
:1058B000843029F411968C91811138C034C0923013
:1058C00019F48230B9F735C0823069F3C18111967D
:1058D0008C911197C8131DC02281338112968D912E
:1058E0009C911397821793070CF413C0281739075C
:1058F0000CF417C0448155816681778114968D918F
:105900009D910D90BC91A02D84179507A607B70710
:1059100018F4C11108C00AC0481759076A077B0765
:1059200040F4C11103C02FEF3FEF05C021E030E08C
:1059300002C020E030E0C901CF910895CF93DF93FA
:10594000CDB7DEB72E970FB6F894DEBF0FBECDBF32
:105950000E946C2776E0372E10920D0385E080932D
:105960000C0380E398E190938900809388007894F9
:1059700080910D038130E1F7F8940E944F1F0E943F
:1059800092156AE0462E512CC12CD12C222423944E
:1059900035C03E9C50013F9CB00C1124A60CB71C96
:1059A000850100591D4FF801518240829382828205
:1059B00024828E2D8695858360E0C8010E948B1C11
:1059C000D501AE5CBA4FF801832D01900D928A95F6
:1059D000E1F7FFEFEF1AFF0A23E1820E911C35E099
:1059E000E316F104B1F64FEFC41AD40A54E2450E9F
:1059F000511C85E0C816D10409F494C050E2852EEC
:105A0000912CE12CF12C9EE19C9D30019D9D700C10
:105A10001124BFCF6191DA01A80FB91F6C93D9018E
:105A2000A80FB91F6C9301968831910599F73C9C9A
:105A3000F0013D9CF00D1124E55CFB4F2482DF0159
:105A400011967C926E92129624EB30E0338322837F
:105A5000812C912C38E13C9D20013D9D500C11245E
:105A600044EC54E0440E551EFC87EB87BE87AD879F
:105A70003FC08E2D869586958695E985FA85E80F37
:105A8000F11D808190E0970127703327E0E8F0E076
:105A900002C0F595E7952A95E2F78E239F23892B7F
:105AA000C9F0ED85FE8560817181EB85FC85808183
:105AB00091812F813885620F731FF701EE0FFF1F51
:105AC00006E616E322E030E042E050E08E0F9F1F32
:105AD0000E94B0143FEFE31AF30A4FE0E416F1041A
