:100000000C943A010C9459010C9459010C94590127
:100010000C9459010C9459010C9459010C945901F8
:100020000C9459010C9459010C9459010C945901E8
:100030000C9459010C9459010C9459010C945901D8
:100040000C9459010C9459010C9459010C945901C8
:100050000C9459010C9459010C9459010C945B01B6
:100060000C9459010C9459010C9459010C945901A8
:100070000C9459010C9459010C9459010C94590198
:100080000C9459010C9459010C9459010C94590188
:100090000C9459010C945901000000000000005F0D
:1000A00000000003000300143E143E14242A7F2A9B
:1000B000124333086661364955225000050300009B
:1000C000001C2241000041221C0014083E081408B4
:1000D000083E0808005030000008080808080060C2
:1000E00060000020100804023E5149453E00040211
:1000F0007F00426151494622414949361814127F16
:100100001027454545393E494949320101710907E2
:100110003649494936264949493E003636000000ED
:10012000563600000814224100141414141400411F
:1001300022140802015109063E4159555E7E090903
:10014000097E7F494949363E414141227F41414133
:100150003E7F494949417F090909013E4141493AE8
:100160007F0808087F00417F4100304040403F7FCA
:10017000081422417F404040407F020C027F7F02F2
:1001800004087F3E4141413E7F090909061E2121A5
:10019000215E7F09090976264949493201017F011B
:1001A000013F4040403F1F2040201F7F2010207F04
:1001B00041221C224107087008076151494543004C
:1001C0007F41000002040810200000417F0004026B
:1001D0000102044040404040000102040020545409
:1001E00054787F4444443838444444443844444474
:1001F0007F385454541804047E0505085454543C64
:100200007F0804047800447D40002040443D007F86
:100210001028440000417F40007C047804787C086A
:1002200004047838444444387C1414140808141422
:10023000147C007C080404485454542004043F44B3
:10024000443C4040207C1C2040201C3C4030403C32
:1002500044281028440C5050503C4464544C4400F2
:100260000836414100007F0000414136080002018C
:100270000204020011241FBECFEFD0E2DEBFCDBFCB
:100280001AE1A0E0B1E0E6E8F4E400E00BBF02C050
:1002900007900D92A030B107D9F71BE1A0E0BAE1B9
:1002A00001C01D92AF3EB107E1F70E9470210C948E
:1002B00041220C9400001F920F920FB60F9211244E
:1002C0000BB60F92CF92DF92EF92FF920F931F9394
:1002D0002F933F934F935F936F937F938F939F934E
:1002E000AF93BF93CF93DF93EF93FF93F12C8DE008
:1002F000E82EDD24D394CC24CA9456C0E09EE001BD
:10030000E19ED00D1124C15ED54E4D815E816F817D
:10031000788589819A81AB81BC81481759076A0722
:100320007B0778F1E091021AF0E0E050FF4F808106
:10033000F81638F58881811124C0F8941D821E8238
:100340001F821886D882E091021AEF5FE093021AAA
:10035000F0E0E050FF4FF0827894E985FA858B85D4
:100360009C8509959C878B87F89418828091021A46
:10037000E82FF0E0E050FF4FC08281508093021AD6
:100380007894E09EF001E19EF00D1124E15EF54EBF
:1003900085819681A781B0850196A11DB11D8583B8
:1003A0009683A783B087F3940F2D10E080910B0103
:1003B000992787FD9095801791070CF09FCFFF91AB
:1003C000EF91DF91CF91BF91AF919F918F917F91ED
:1003D0006F915F914F913F912F911F910F91FF90DE
:1003E000EF90DF90CF900F900BBE0F900FBE0F904D
:1003F0001F90189583E884BD85B5836085BD81E035
:1004000080936E0016BC8FEF87BD0895882319F086
:1004100087BD279A089527980895EF92FF920F932A
:100420001F93CF93DF937C018901C0910B01DD27DE
:10043000C7FDD0952196CA30D10554F5CB01BA013C
:100440000E94601F25E732E04AEF5EE30E94131C22
:1004500020E030E040E05FE30E94B71B0E942E1ACC
:100460002DE02C9FF0012D9FF00D1124E15EF54E43
:100470006183728383839483658376838783908784
:100480001082F286E18614870387C0930B0102C0B5
:10049000CFEFDFEFCE01DF91CF911F910F91FF9052
:1004A000EF900895F8943CB135FF02C023E001C0FD
:1004B00020E034FF02C031E023273091031A321BC1
:1004C00030FF09C02093031A2091A41A21503270E2
:1004D000230F2093A41A78940895F8945091A31AA6
:1004E00026B14CB133B1206C4F6724233F6B2323DB
:1004F000209525273091041A322330953093041A21
:100500004091051A422343274093051A23232423AD
:100510003091A31A32273093A31A3091A11A409137
:10052000A31A4223432B4093A11A2091A31A2C7F94
:1005300019F42CE32093061A2091061A215019F081
:100540002093061A0BC02AE02093061A3091A21AB3
:100550002091A31A2C7F232B2093A21A789408951C
:100560008DB18F7C8DB98EB180638EB96F98779A7B
:1005700087B1837C87B988B18C6388B926982E9A15
:1005800020E030E042E050E060E070E082E592E0A0
:100590000E940D0220E030E04AE050E060E070E0B0
:1005A0008DE692E00C940D02F8948091A41A90913B
:1005B000A41A91709093A41A789485950895F8944C
:1005C0009091A11A89239091A11A98279093A11A2A
:1005D00078940895F8949091A21A89239091A21A80
:1005E00098279093A21A789408959091A31A89233A
:1005F0000895F8949091A31A909589230C94DF02A2
:100600000E94EA020C94DF022F923F924F925F9277
:100610006F927F928F929F92AF92BF92CF92DF9212
:10062000EF92FF920F931F93CF93DF93CDB7DEB777
:100630006E970FB6F894DEBF0FBECDBF89869A863F
:10064000AB86BC86CD86DE86EF86F88A098B1A8B50
:100650002B8B3C8B4D8B5E8B6F8B788F89849A8430
:10066000AB84BC84CD84DE84EF84F88849885A88C2
:100670006B887C888D899E89AF89B88D8B8F9C8F84
:10068000AD8FBE8F20E030E040EA53E4C501B401F5
:100690000E94281E87FF8BC020E030E040E753E433
:1006A000C701B6010E94281E87FF81C0A3019201E5
:1006B000C501B4010E94B71B2B013C0120E030E0D2
:1006C000A901752D972D0E94861E18160CF06FC07B
:1006D0002B8D3C8D4D8D5E8DC701B6010E94B71BE1
:1006E000362E072F182F292E20E030E0A9010E9476
:1006F000861E18160CF05BC020E030E0A901C50191
:10070000B4010E94571E87FD05C0C501B4010E94B7
:100710002E1A02C060E070E07A83698320E030E046
:1007200040E85FE3642D752D862D972D0E94E31B15
:100730000E942E1A5B0191E4A91691E0B90620F0FF
:1007400080E4A82EBB24B39420E030E0A901C701C7
:10075000B6010E94571E87FD05C0C701B6010E9461
:100760002E1A02C060E070E07E836D83BC82AB8293
:1007700020E030E040E85FE3632D702F812F922D61
:100780000E94E31B0E942E1ACB01613F710510F0FD
:1007900080EF90E098878F830BA91CA929813A816B
:1007A0004B815C816D817E8198850E945B066E968F
:1007B0000FB6F894DEBF0FBECDBFDF91CF911F9172
:1007C0000F91FF90EF90DF90CF90BF90AF909F90F0
:1007D0008F907F906F905F904F903F902F900895F3
:1007E0008F929F92AF92BF92CF92DF92EF92FF9241
:1007F0000F931F93CF93DF93CDB7DEB76A970FB6F2
:10080000F894DEBF0FBECDBF89869A86AB86BC86C4
:10081000CD86DE86EF86F88A098B1A8B2B8B3C8B74
:100820004D8B5E8B6F8B788F89849A84AB84BC846C
:10083000CD84DE84EF84F888C501B4010E942E1AAD
:100840007A83698329893A894B895C89C501B40116
:100850000E94B71B20E030E040E85FE30E94E31B0A
:100860000E942E1A7C836B83C701B6010E942E1A48
:100870007E836D832D893E894F89588DC701B601CE
:100880000E94B71B20E030E040E85FE30E94E31BDA
:100890000E942E1ACB01613F710510F080EF90E0AD
:1008A00098878F8309A51AA529813A814B815C819C
:1008B0006D817E8198850E9408076A960FB6F8942C
:1008C000DEBF0FBECDBFDF91CF911F910F91FF9083
:1008D000EF90DF90CF90BF90AF909F908F90089552
:1008E000E091071AF091081A8193F093081AE093A7
:1008F000071A08958A3034F09091181A992321F03C
:1009000097E303C090E301C097E5890F0E9470044C
:1009100081E08093151A08952091161A3091171AC4
:1009200040E003C0281B390B4F5F28173907D0F769
:100930003093171A2093161A8091151A811102C04C
:10094000442319F0842F0C947A0408958F929F9277
:10095000AF92BF92CF92DF92EF92FF920F931F93CD
:10096000CF93DF93CDB7DEB7DE011F96ED91FD91FA
:100970008D0199E0A92E9AE1B92ED8C0853239F0BF
:100980006F019FEFC91AD90A0E944208CEC0818127
:100990006F0192E0C90ED11C803341F482816F0156
:1009A00093E0C90ED11C9924939401C0912C982FE7
:1009B0009053812C9A3050F00DC0882D880F880FED
:1009C000880E880C890EF60181916F01982F905343
:1009D0009A3098F3B092081AA092071A1092151A3A
:1009E0008436B9F074F48835F1F13CF4882309F4C5
:1009F000A0C0853209F06CC068C0833609F068C0B9
:100A000055C0853731F0883771F1833709F060C000
:100A100056C07801F2E0EF0EF11CF801308121811F
:100A20003093161A2093171A843671F4832F922F5D
:100A300097FF0AC09195819591099093171A809319
:100A4000161A8DE20E94700480E197E20E948C04E5
:100A500088EE93E00E948C0484E690E00E948C046F
:100A60008AE090E01BC091E0883509F090E0909317
:100A7000181A7801F2E0EF0EF11CF80180819181E3
:100A80009093171A8093161A80E090E10E948C04CC
:100A900080E091E00E948C0480E190E00E948C0450
:100AA0008091161A0E947A04870112C07801F2E040
:100AB000EF0EF11CF80180810E947004F5CFF8015F
:100AC000E080F1800E5F1F4F07C085E20E94700436
:100AD00089E0E82E8AE1F82EE091071AF091081AD1
:100AE0001082F092081AE092071AF70101C08A9466
:100AF0008191811101C002C01814CCF3E093071A50
:100B0000F093081A08C0992011F080E301C080E238
:100B10000E9442088A941814B4F302C00E9442084A
:100B2000F70181917F018111F9CFF6018081811157
:100B300025CFDF91CF911F910F91FF90EF90DF9024
:100B4000CF90BF90AF909F908F9008950C944208E3
:100B500093E89093B00091E09093B1008093B3003C
:100B600008959093AA1A8093A91A26E330E020935F
:100B70000040009779F480EF90E09093A61A80935C
:100B8000A51A80E491E09093A81A8093A71A88E4AC
:100B900090E034C08130910579F480E491E0909345
:100BA000A61A8093A51A80EF90E09093A81A8093DC
:100BB000A71A88EE90E022C08230910579F480EF88
:100BC00090E09093A61A8093A51A80E491E0909308
:100BD000A81A8093A71A88E890E010C0039781F4C0
:100BE00080E491E09093A61A8093A51A80EF90E09C
:100BF0009093A81A8093A71A88E290E0809300410E
:100C00008AE290E08093004020E030E030930041A1
:100C1000209300418091A51A9091A61A0197909374
:100C20000041809300418BE290E08093004030933C
:100C30000041209300418091A71A9091A81A019732
:100C400090930041809300410895CF93873750F4EB
:100C5000883050F08D3350F48F3150F4803150F0A3
:100C6000C2E009C086E702C088E004C0C0E003C05B
:100C7000C1E001C0C3E021EB30E020930040C0930D
:100C80000041682F70E080E090E00E94B51E9B015B
:100C9000AC0160E070E080EF94E40E94F81C0E94D8
:100CA0002E1A70E002C075956795CA95E2F76093B9
:100CB0000041CF9108950F931F93CF93DF93CDB74A
:100CC000DEB728970FB6F894DEBF0FBECDBF2983DD
:100CD0003A834B835C836D837E838F83988769819E
:100CE0007A812B813C814D815E818F819885EAE2FA
:100CF000F0E0E09300407093004160930041309336
:100D0000004120930041EBE2F0E0E093004050937B
:100D10000041409300419093004180930041ECE2F8
:100D2000F0E0E09300402F5F3F4F261B370B01960A
:100D3000841B950B28173907A8F4BC016770772727
:100D4000629FA001639F500D729F500D112473E0AC
:100D5000969587957A95E1F7829FB001839F700DF4
:100D6000112414C0B90167707727689FA001699F9B
:100D7000500D789F500D112463E0369527956A95A4
:100D8000E1F7289FB001299F700D1124242F2770AF
:100D900080E090E005C0109300410093004101966F
:100DA0002813F9CFCA0123E0969587952A95E1F794
:100DB000860F971F20C010930041009300411093AD
:100DC00000410093004110930041009300411093B3
:100DD00000410093004110930041009300411093A3
:100DE0000041009300411093004100930041109393
:100DF0000041009300410197F0F628960FB6F89451
:100E0000DEBF0FBECDBFDF91CF911F910F9108952F
:100E10000F931F93CF93DF93CDB7DEB728970FB60D
:100E2000F894DEBF0FBECDBF29833A834B835C832A
:100E30006D837E838F839887D80129813A816B8166
:100E40007C814D815E81EF81F8858AE290E080931C
:100E50000040309300412093004170930041609323
:100E600000418BE290E0809300405093004140931A
:100E70000041F0930041E09300418CE290E08093C8
:100E800000400CC00D911D91109300410093004152
:100E90000196E817F907B0F72F5F3F4F6217730706
:100EA00010F0CA01F6CF28960FB6F894DEBF0FBE39
:100EB000CDBFDF91CF911F910F9108950F931F9395
:100EC000CF93DF93CDB7DEB728970FB6F894DEBF88
:100ED0000FBECDBF1092AC1A1092AB1A1092AE1A80
:100EE0001092AD1A1A8219828091A51A9091A61AB1
:100EF0000197482F9C838B831E821D828091A71AA5
:100F00009091A81A019798878F830091B11A109138
:100F1000B21A20E03A815C8160E07E8198850E946F
:100F20005B0628960FB6F894DEBF0FBECDBFDF91EB
:100F3000CF911F910F91089586E08093750080E80E
:100F4000809374003F9A249A8FEC97E00197F1F711
:100F500000C0000047988FE39CE90197F1F700C0BB
:100F60000000479A9FEF2DEE82E091502040804094
:100F7000E1F700C0000088E290E08093004081E14A
:100F800090E0809300409FEF26E781E09150204061
:100F90008040E1F700C0000021E030E08BEC90E001
:100FA000809300402093004180EC90E080930040CB
:100FB00088E096E2909300418093004120E130E088
:100FC00081EC90E0809300402093004185EC90E01C
:100FD000809300408EE395E390930041809300411D
:100FE00025EB30E087EC90E08093004020930041B7
:100FF00021E030E086EF90E08093004020930041B4
:1010000080E090E0909300418093004125E530E03E
:101010008AE390E0809300402093004181E090E0DB
:101020000E94B1050E945E071092AC1A1092AB1A92
:101030001092AE1A1092AD1A1092B21A1092B11A02
:101040008FEF9FEF9093B01A8093AF1A89E290E0F0
:10105000809300409FE728E381E09150204080404A
:10106000E1F700C0000020E030E085E390E08093ED
:10107000004020930041EAE6F0E0808180628083B6
:101080002C9A0895CF92DF92EF92FF920F931F93C5
:10109000CF93DF93F091AB1AE091AC1A4091AD1A67
:1010A0005091AE1A8A30E1F41092AC1A1092AB1A39
:1010B000485F5F4F5093AE1A4093AD1A8091A71AC4
:1010C0009091A81A4817590708F49DC0DF91CF9155
:1010D0001F910F91FF90EF90DF90CF900C945E07DF
:1010E000982F90529F3508F08EC0BA01695F7F4FEC
:1010F00025E08202C0011124885090402BE230E0AC
:101100002093004050930041409300417093004170
:10111000609300412F2F3E2F89010C5F1F4FEAE2A1
:10112000EE2EF12CFCE2CF2ED12C821B930B2AC089
:10113000E092004030930041209300413093004101
:1011400020930041C0920040FC01E20FF31FE491A4
:10115000DA01F1E012C0CF2FCE2329F0C091AF1AEF
:10116000D091B01A04C0C091B11AD091B21AD093E4
:101170000041C09300411196FF0F6A177B0758F793
:101180002F5F3F4F0217130798F68AE290E0809393
:101190000040309300412093004130930041209360
:1011A00000418CE290E0809300400AC08091B11A27
:1011B0009091B21A90930041809300414F5F5F4F2E
:1011C0006417750798F78091AB1A9091AC1A9C013F
:1011D0002A5F3F4F3093AC1A2093AB1A0B962091A5
:1011E000A51A3091A61A8217930768F01092AC1ACC
:1011F0001092AB1A8091AD1A9091AE1A0896909306
:10120000AE1A8093AD1ADF91CF911F910F91FF908D
:10121000EF90DF90CF9008951F93CF93DF93EC0171
:1012200010E003C00E9442081F5FFE01E10FF11DA4
:1012300080818111F7CFDF91CF911F910895909315
:10124000AC1A8093AB1A7093AE1A6093AD1A0895DE
:101250009093B01A8093AF1A7093B21A6093B11A38
:1012600008951F93CF93DF93EC017093AC1A6093B2
:10127000AB1A5093AE1A4093AD1A10E003C00E940F
:1012800042081F5FFE01E10FF11D80818111F7CF40
:10129000DF91CF911F91089520911B1A30911C1A54
:1012A0002F5F3F4F30931C1A20931B1A21E030E030
:1012B00030931A1A2093191A08958F929F92AF9221
:1012C000BF92CF92DF92EF92FF920F931F93CF9333
:1012D000DF93CDB7DEB762970FB6F894DEBF0FBECF
:1012E000CDBF89829A82AB82BC82CD82DE82EF82C0
:1012F000F88609871A872B873C874D875E876F871B
:10130000788B898B9A8B29A13AA18BA19CA121155D
:10131000310521F02130310541F508C0892B19F440
:1013200088E391E00AC088E397E007C0892B19F4AD
:1013300088E39DE002C088E393E19F938F938980C7
:101340009A80AB80BC80CD80DE80EF80F8840985F8
:101350001A852B853C854D855E856F8578898989C1
:101360009A890E94F0030F900F9062960FB6F8943E
:10137000DEBF0FBECDBFDF91CF911F910F91FF90C8
:10138000EF90DF90CF90BF90AF909F908F90089597
:1013900080917C008B6480937C0080917A008660D1
:1013A00080937A0080917A00806C80937A0006C0E6
:1013B0008FE99FE00197F1F700C0000080917A006B
:1013C00084FFF6CF909178004091790080917A0067
:1013D0008F7780937A00342F20E0292B91EE2927F4
:1013E0009CEA3927C90108952091D91B3091DA1B55
:1013F000C9019695879520FF02C024EB9227909310
:10140000DA1B8093D91B8091D91B9091DA1B089528
:10141000EF92FF920F931F93CF93DF938C01E09095
:10142000751BF090761B85E6E816F1040CF09EC063
:1014300082E1809FE001819FD00D1124C158D44EDC
:1014400080E090E0A0E2B1E48C879D87AE87BF8703
:1014500060916B1B70916C1B6E567109882777FD2C
:101460008095982F0E94B51E6C837D838E839F8309
:10147000C7016AE070E00E94DB21892B19F5188210
:1014800019821A821B8280E090E0A0EAB3E4888788
:101490009987AA87BB872DEC3CEC4CEC5EE360910E
:1014A000791B70917A1B80917B1B90917C1B0E9411
:1014B000B71B6093791B70937A1B80937B1B90936F
:1014C0007C1B2BC00E94F40962E370E00E94C721DC
:1014D000BC01655B7F4F80E090E00E94601F6887E1
:1014E00079878A879B870E94F4097C0168857985C2
:1014F0008A859B850E942E1A20E431E0261B370B3B
:10150000C701B9010E94C721BC0180E090E00E94A0
:10151000601F688379838A839B83C091751BD091F8
:10152000761B82E1809FF001819FF00D1124E1582C
:10153000F44ECE016AE070E00E94DB21660F771F57
:101540006E5D7E4FDB018D919C91918B808B6481D0
:101550007581868197810E94111F70936C1B609327
:101560006B1B2196D093761BC093751BDF91CF9197
:101570001F910F91FF90EF9008955F926F927F926D
:101580008F929F92AF92BF92CF92DF92EF92FF9293
:101590000F931F93CF93DF935FE8652E5BE1752E6A
:1015A000C0E0D0E062E1562E5C9EF0015D9EF00D41
:1015B0001124E158F44ED30111968C9111978F9319
:1015C0008C918F9380809180A280B380C480D580DD
:1015D000E680F78000851185228533854485558511
:1015E00066857785808991890E9404032196B2E1FE
:1015F0006B0E711C0F900F90C530D105A9F6DF91CD
:10160000CF911F910F91FF90EF90DF90CF90BF90FF
:10161000AF909F908F907F906F905F90089580E043
:1016200090E00E94080A81E090E00E94080A82E0AF
:1016300090E00E94080A83E090E00E94080A84E09B
:1016400090E00C94080A8F929F92AF92BF92CF9233
:10165000DF92EF92FF920F931F93CF93DF93CFEF21
:10166000DFEFD093CA1AC093C91A84E591E0909332
:101670006C1B80936B1B1092761B1092751B109243
:10168000D01A1092CF1A1092701B10926F1B1092EA
:101690007E1B10927D1B0E945E070E940F0B0E9412
:1016A000BD0A1092791B10927A1B10927B1B10922C
:1016B0007C1B10926E1B10926D1B80E090E0A4E1E9
:1016C000B3E48093D11A9093D21AA093D31AB09313
:1016D000D41A80E090E0AEE1B3E48093D51A909301
:1016E000D61AA093D71AB093D81A80E090E0A0EC55
:1016F000B1E48093D91A9093DA1AA093DB1AB093CD
:10170000DC1A80E090E0A0E0B2E48093DD1A9093D0
:10171000DE1AA093DF1AB093E01AD093E21AC093B6
:10172000E11A1F921F9280911E1A8F9380911D1AA9
:101730008F938090D11A9090D21AA090D31AB09023
:10174000D41AC090D51AD090D61AE090D71AF0903B
:10175000D81A0091D91A1091DA1A2091DB1A309117
:10176000DC1A4091DD1A5091DE1A6091DF1A7091F7
:10177000E01A8091E11A9091E21A0E945D090F909F
:101780000F900F900F90DF91CF911F910F91FF90CD
:10179000EF90DF90CF90BF90AF909F908F90089583
:1017A0001F93CF93DF93182F8091C71A9091C81A77
:1017B000069709F081C080917D1B90917E1B892B3B
:1017C00019F0143009F47EC0183019F0103209F005
:1017D00073C08091C91A9091CA1A019665E070E0B1
:1017E0000E94DB2122E1289FE001299FD00D1124D6
:1017F000C158D44E20E030E040E05FE36885798551
:101800008A859B850E94131C288139814A815B81CE
:101810000E94B71B0E94111FEB0120E030E040E066
:101820005FE36091D91A7091DA1A8091DB1A909176
:10183000DC1A0E94131C2091D11A3091D21A4091C7
:10184000D31A5091D41A0E94B71B0E94111F809185
:10185000CF1A9091D01A9E01261B370B37FF03C079
:10186000319521953109FC0131978E9FA0018F9F01
:10187000500D9E9F500D1124421753077CF0009786
:1018800019F11CF0103221F41DC0183021F41AC0D7
:10189000183091F419C0103279F416C0183029F4B8
:1018A00081E06C177D078CF00FC0103229F481E0C5
:1018B000C617D70754F008C0812FDF91CF911F9131
:1018C0000C94F50281E001C080E0DF91CF911F917F
:1018D00008954F925F926F927F928F929F92AF92F4
:1018E000BF92CF92DF92EF92FF920F931F93CF930D
:1018F000DF93CDB7DEB7A4970FB6F894DEBF0FBE67
:10190000CDBF80910C0190910D01892B09F4B7C0D6
:101910000E945E0780E499E10E940C0910920D017B
:1019200010920C011092CC1A1092CB1A80E090E029
:10193000ACEAB2E48093E71A9093E81AA093E91A0C
:10194000B093EA1A00E010E028E033E40093EB1AC9
:101950001093EC1A2093ED1A3093EE1A40E050E009
:1019600060E072E44093F31A5093F41A6093F51A0E
:101970007093F61A80E090E0A0ECB1E48093EF1A47
:101980009093F01AA093F11AB093F21AEFEFFFEFD1
:10199000F093F81AE093F71A0F2EC12CD12CF2E530
:1019A000EF2EF3E4FF2EF02DC092B31AD092B41AAA
:1019B000E092B51AF092B61A0093B71A1093B81ABB
:1019C0002093B91A3093BA1A4093BF1A5093C01A91
:1019D0006093C11A7093C21A8093BB1A9093BC1A79
:1019E000A093BD1AB093BE1AF093C41AE093C31A21
:1019F00082E1E7EEFAE1DE01539601900D928A95BD
:101A0000E1F788E391E09F938F938B889C88AD8862
:101A1000BE88CF88D88CE98CFA8C0B8D1C8D2D8DCF
:101A20003E8D4F8D58A169A17AA18BA19CA10E94E6
:101A3000F00382E1E3EBFAE1DE01119601900D92F1
:101A40008A95E1F788E39DE09F938F9389809A8040
:101A5000AB80BC80CD80DE80EF80F88409851A855C
:101A60002B853C854D855E856F85788989899A8926
:101A70000E94F0030F900F900F900F9076C080910E
:101A8000CB1A9091CC1A75E0472E512CB2010E94CE
:101A9000DB21CB01E2E06E2E712CB3010E94DB2131
:101AA0009F938F931F921F928090E71A9090E81A4D
:101AB000A090E91AB090EA1AC090EB1AD090EC1AF4
:101AC000E090ED1AF090EE1A0091EF1A1091F01AD2
:101AD0002091F11A3091F21A4091F31A5091F41AB0
:101AE0006091F51A7091F61A8091F71A9091F81A90
:101AF0000E945D098091CB1A9091CC1AB2010E948C
:101B0000DB21CB01B3010E94DB219F938F931F92B6
:101B100081E08F938090B31A9090B41AA090B51A78
:101B2000B090B61AC090B71AD090B81AE090B91A0F
:101B3000F090BA1A0091BB1A1091BC1A2091BD1AEC
:101B40003091BE1A4091BF1A5091C01A6091C11ACB
:101B50007091C21A8091C31A9091C41A0E945D09B3
:101B60000FB6F894DEBF0FBECDBF8091CB1A909117
:101B7000CC1A01969093CC1A8093CB1A80E20E94E3
:101B8000D00B882359F010921E1A10921D1A109231
:101B9000C81A1092C71A81E090E00FC088E00E9436
:101BA000D00B882371F081E090E090931E1A80930F
:101BB0001D1A1092C81A1092C71A90930D018093A3
:101BC0000C01A4960FB6F894DEBF0FBECDBFDF9117
:101BD000CF911F910F91FF90EF90DF90CF90BF902A
:101BE000AF909F908F907F906F905F904F900895EF
:101BF00080910E0190910F01892B51F00E945E0798
:101C000082E799E10E940C0910920F0110920E01D7
:101C100084E00E94D00B882351F01092C81A1092D1
:101C2000C71A81E090E090930F0180930E01089510
:101C30008091100190911101892B51F00E945E0753
:101C400086E999E10E940C0910921101109210018D
:101C500084E00E94D00B882351F01092C81A109291
:101C6000C71A81E090E090931101809310010895CC
:101C70002F923F924F925F926F927F928F929F929C
:101C8000AF92BF92CF92DF92EF92FF920F931F938A
:101C9000CF93DF93CDB7DEB7E4970FB6F894DEBFEE
:101CA0000FBECDBF80916D1B90916E1B01969093DE
:101CB0006E1B80936D1B82E1E1EDFAE1DE0153962C
:101CC00001900D928A95E1F7A090D11AB090D21AA6
:101CD0002090D31A3090D41A4090D51A5090D61A2A
:101CE0006090D71A7090D81A80E20E94D00B882397
:101CF00071F08091CF1A9091D01A823F2FEF920706
:101D000034F001979093D01A8093CF1A1BC088E0CB
:101D10000E94D00B2091CF1A3091D01A882321F045
:101D20002F3031050CF402C037FF03C02F5F3F4F47
:101D300005C02115310531F0215031093093D01AF9
:101D40002093CF1A84E00E94D00B20917D1B30910C
:101D50007E1B882371F02115310559F081EF9FEF2B
:101D60009093701B80936F1B10927E1B10927D1BB3
:101D70000EC0232B61F480916F1B9091701B8730F4
:101D800091052CF401969093701B80936F1B00912A
:101D9000CF1A1091D01A17FF2FC0C090D11AD0902F
:101DA000D21AE090D31AF090D41A20E030E0A901C2
:101DB000C701B6010E94CA1D882309F458C0B801A2
:101DC000882777FD8095982F0E94B51E9B01AC0156
:101DD000C701B6010E94B71B6DA37EA31C0120E0C2
:101DE00030E0A901932D0E94571E87FF42C01DA21B
:101DF0001EA2212C312C3DC001151105C1F1C0904E
:101E0000D11AD090D21AE090D31AF090D41A20E0D0
:101E100030E044E953E4C701B6010E94CA1D88239B
:101E200031F1B801882777FD8095982F0E94B51E63
:101E30009B01AC01C701B6010E94B71B6DA37EA335
:101E40001C0120E030E040EC51E4932D0E94B71BD0
:101E500020E030E040EA53E40E94281E87FD09C0DC
:101E60001DA21EA234E9232E43E4342E02C0ADA2EB
:101E7000BEA280917D1B90917E1B892B09F0CFC063
:101E80008090D51A9090D61AA090D71AB090D81AF0
:101E900000916F1B1091701BB801882777FD80950A
:101EA000982F0E94B51E9B01AC01C501B4010E9490
:101EB000B71B2B013C0120E030E040EF52E4752DD0
:101EC000972D0E94571E87FF15C0242D352D462DB6
:101ED000572D60E070E080EF92E40E94E31B69A759
:101EE0007AA78BA79CA7412C512C90EF692E22E456
:101EF000722E04C019A61AA61BA61CA617FDCDC0DB
:101F00008FE79BE198A78FA300E010E0AFA1B8A5F1
:101F1000CD90DD90ED90FC9020E030E040EC51E47D
:101F2000BDA1AEA16B2F7A2F822D932D0E94B71BDE
:101F3000A70196010E94281E87FD65C0EFA1F8A5A4
:101F40002085318542855385C701B6010E94B71BA4
:101F5000BDA1AEA12B2F3A2F422D532D0E94281E3A
:101F600087FD51C0AFA1B8A51496CD90DD90ED903E
:101F7000FC90179720E030E040E052E4C501B40146
:101F80000E94B71BA70196010E94861E1816DCF15D
:101F900020E030E040E052E4642D752D862D972D31
:101FA0000E94B71BA70196010E94F91D18165CF547
:101FB00081E090E090937E1B80937D1B1093CA1A62
:101FC0000093C91A82E1809FF001819FF00D1124D6
:101FD000E158F44E80899189803A9E4F89F020E043
:101FE00030E040E052E4C701B6010E94E31B20E06C
:101FF00030E040E85FE30E94E31B2B013C014DC051
:1020000082E090E030C20F5F1F4FEFA1F8A57296FB
:10201000F8A7EFA30530110509F078CF3EC08091F5
:10202000C91A9091CA1A22E1289F8001299F100D98
:1020300011240158144ED801CD90DD90ED90FC9004
:1020400020E030E040EC51E4BDA1AEA16B2F7A2F2F
:10205000822D932D0E94B71BA70196010E94571E47
:1020600087FD13C0F8012085318542855385C7015E
:10207000B6010E94B71BBDA1AEA12B2F3A2F422D56
:10208000532D0E94571E87FF04C010927E1B109292
:102090007D1B19A61AA61BA61CA61F921F92809034
:1020A000D11A9090D21AA090D31AB090D41AC0909E
:1020B000D51AD090D61AE090D71AF090D81A00917D
:1020C000D91A1091DA1A2091DB1A3091DC1A40915A
:1020D000DD1A5091DE1A6091DF1A7091E01A80913A
:1020E000E11A9091E21A0E940403C090791BD090EB
:1020F0007A1BE0907B1BF0907C1BA7019601B9A591
:10210000AAA5FBA5ECA56B2F7A2F8F2F9E2F0E94DF
:10211000B71B69A77AA78BA79CA7A7019601642D77
:10212000752D862D972D0E94B71B69AB7AAB8BABB3
:102130009CAB0F900F9020E030E0A901B9A5AAA5B3
:10214000FBA5ECA56B2F7A2F8F2F9E2F0E94CA1D07
:10215000882309F44FC160916B1B70916C1B882719
:1021600077FD8095982F0E94B51EB9A5AAA5FBA55D
:10217000ECA52B2F3A2F4F2F5E2F0E94B71B0E94EA
:10218000111F70936C1B60936B1B8FE7482E8BE1C4
:10219000582E18A61FA220E030E040E251E4B9A575
:1021A000AAA5FBA5ECA56B2F7A2F8F2F9E2F0E943F
:1021B000281E87FD77C0A2E18FA198A5A89F3001B6
:1021C000A99F700C1124EFE7FBE16E0E7F1E1F929A
:1021D0001F92D3018C9011969C9011971296AC90FF
:1021E00012971396BC9013971496CC90149715964B
:1021F000DC9015971696EC9016971796FC9017970B
:1022000018960C91189719961C9119971A962C915B
:102210001A971B963C911B971C964C911C971D96E8
:102220005C911D971E966C911E971F967C911F972F
:1022300050968C91509751969C910E94040379A5D9
:102240006AA59BA58CA5272F362F492F582FF20161
:1022500064817581868197810E94B71BD201149693
:102260006D937D938D939C93179751968C91519775
:102270008F9350968C918F93F30180809180A280F0
:10228000B380C480D580E680F780008511852285E3
:1022900033854485558566857785808991890E9437
:1022A000040385C0F201DE01119682E101900D92D6
:1022B0008A95E1F7A2E18FA198A5A89FF001A99FB7
:1022C000F00D1124E158F44E84819581A681B781E7
:1022D0008DA79EA7AFA7B8AB7088618859A54AA5FE
:1022E0003BA52CA5852F942FA32FB22F8D879E87DA
:1022F000AF87B88B8DA59EA5AFA5B8A98D839E830A
:10230000AF83B887798A6A8A1F921F9289809A80E0
:10231000AB80BC80CD80DE80EF80F88409851A8593
:102320002B853C854D855E856F85788989899A895D
:102330000E940403D2011C962D913D914D915C9118
:102340001F976DA57EA58FA598A90E94B71B6D83C9
:102350007E838F8398876F927F9289809A80AB80EB
:10236000BC80CD80DE80EF80F88409851A852B85BE
:102370003C854D855E856F85788989899A890E941B
:10238000040379A56AA59BA58CA5272F362F492F75
:10239000582FF20164817581868197810E94B71B55
:1023A000D20114966D937D938D939C9317970F9004
:1023B0000F900F900F9020E030E048E853E4F201D6
:1023C00064817581868197810E94281E87FD04C0E3
:1023D0008FA198A50E94080A8FA198A5019698A799
:1023E0008FA392E1490E511CAFA1B8A5159709F032
:1023F000D2CE08C080917D1B90917E1B892B11F459
:102400000E94BD0A5DA14EA1852F942FA22DB32D50
:102410008B8B9C8BAD8BBE8B59A94AA93BA92CA950
:10242000852F942FA32FB22F8F8B988FA98FBA8FC0
:1024300082E1FE017396A1EDBAE101900D928A95B9
:10244000E1F720E030E040E753E4B9A9AAA9FBA9ED
:10245000ECA96B2F7A2F8F2F9E2F0E94F91D181633
:102460003CF481E090E09093C81A8093C71A3FC073
:1024700080916D1B90916E1B65E070E00E94DB21E6
:10248000CB0162E070E00E94DB219F938F938091EB
:102490001E1A8F9380911D1A8F938090D11A90905D
:1024A000D21AA090D31AB090D41AC090D51AD09056
:1024B000D61AE090D71AF090D81A0091D91A109134
:1024C000DA1A2091DB1A3091DC1A4091DD1A509112
:1024D000DE1A6091DF1A7091E01A8091E11A9091F2
:1024E000E21A0E945D090F900F900F900F90E496F2
:1024F0000FB6F894DEBF0FBECDBFDF91CF911F9115
:102500000F91FF90EF90DF90CF90BF90AF909F9092
:102510008F907F906F905F904F903F902F90089595
:1025200084E00E94F502882329F01092C81A1092C4
:10253000C71A089588E00E94F5028111F6CF80E263
:102540000E94F5028111F1CF80E10E94F502811114
:10255000ECCF0E94380E8091C71A9091C81A069746
:1025600041F00E94230B86E090E09093C81A80937C
:10257000C71A48E750E06AE670E08BEB99E10C94EB
:102580003109EF92FF920F931F93CF93DF938C014A
:102590000E94F40962E370E00E94C7214E96BC01DC
:1025A00080E090E00E94601F9B01AC0182E1809F6F
:1025B000E001819FD00D1124C55FD44E2C873D874B
:1025C0004E875F8760E070E086E693E40E94E31B3D
:1025D0006C837D838E839F8320E030E040E251E472
:1025E0006091E31A7091E41A8091E51A9091E61ACD
:1025F0000E94B71B20E030E040EF52E40E94B71B7E
:102600007B018C010E94F40964E670E00E94C721FE
:10261000BC0180E090E00E94601F9B01AC016E2D28
:102620007F2D802F912F0E94B71B8B019C01688307
:1026300079838A839B8380E090E0A0E2B1E488877D
:102640009987AA87BB878091711B9091721B65E067
:1026500070E00E94DB21880F991F885E9E4FFC016D
:1026600080819181998B888B0093E31A1093E41AEF
:102670002093E51A3093E61A8091651B9091661BB2
:1026800001969093661B8093651BC39744F080E08E
:1026900090E5A3ECB7E488839983AA83BB83DF9199
:1026A000CF911F910F91FF90EF9008955F926F92DD
:1026B0007F928F929F92AF92BF92CF92DF92EF92D2
:1026C000FF920F931F93CF93DF936BE1662E6BE125
:1026D000762EC0E0D0E072E1572E5C9EF0015D9E48
:1026E000F00D1124E55FF44ED30111968C911197F2
:1026F0008F938C918F9380809180A280B380C480CF
:10270000D580E680F7800085118522853385448554
:10271000558566857785808991890E940403219675
:10272000B2E16B0E711C0F900F90C530D105A9F668
:10273000DF91CF911F910F91FF90EF90DF90CF909D
:10274000BF90AF909F908F907F906F905F90089513
:1027500080E090E00E94C11281E090E00E94C112EE
:1027600082E090E00E94C11283E090E00E94C112DA
:1027700084E090E00C94C1128F929F92AF92BF922E
:10278000CF92DF92EF92FF920F931F93CF93DF933D
:102790000E945E071092CE1A1092CD1A1092661BFC
:1027A0001092651B1092781B1092771B1092721B6F
:1027B0001092711B81E090E09093C61A8093C51A25
:1027C0001092D11A1092D21A1092D31A1092D41ACF
:1027D0001092EE1B1092ED1B1092741B1092731B43
:1027E0001092E31A1092E41A1092E51A1092E61A67
:1027F00086E696E6A6E6B0E48093671B9093681B96
:10280000A093691BB0936A1B80E090E0A6E4B3E458
:102810008093D51A9093D61AA093D71AB093D81A4A
:1028200080E090E0A0ECB1E48093D91A9093DA1A9A
:10283000A093DB1AB093DC1A80E090E0A0E0B2E451
:102840008093DD1A9093DE1AA093DF1AB093E01AFA
:102850008FEF9FEF9093E21A8093E11A1092DB1BA7
:102860001092DC1B1092DD1B1092DE1B80E090E0CA
:10287000A0EAB3E48093E31B9093E41BA093E51BD1
:10288000B093E61B80E090E0A6E6B3E48093DF1B04
:102890009093E01BA093E11BB093E21B80E090E0DB
:1028A000A0E2B1E48093E71B9093E81BA093E91B9F
:1028B000B093EA1BCBEEDBE180E198E49983888357
:1028C0001F921F9280911E1A8F9380911D1A8F93D1
:1028D0008090D11A9090D21AA090D31AB090D41AA6
:1028E000C090D51AD090D61AE090D71AF090D81A86
:1028F0000091D91A1091DA1A2091DB1A3091DC1A62
:102900004091DD1A5091DE1A6091DF1A7091E01A41
:102910008091E11A9091E21A0E945D0989818F935A
:1029200088818F938090DB1B9090DC1BA090DD1B37
:10293000B090DE1BC090DF1BD090E01BE090E11B4D
:10294000F090E21B0091E31B1091E41B2091E51B2A
:102950003091E61B4091E71B5091E81B6091E91B09
:102960007091EA1B8091EB1B9091EC1B0E94040379
:102970000E94A8130F900F900F900F900F900F9040
:10298000DF91CF911F910F91FF90EF90DF90CF904B
:10299000BF90AF909F908F900C94561384E00E944C
:1029A000F502811124C088E00E94F50281111FC048
:1029B00080E20E94F50281111AC080E10E94F502B6
:1029C000811115C08091120190911301892B79F02A
:1029D0000E945E0789EC99E10E940C091092130194
:1029E0001092120110921C1A10921B1A08958091D5
:1029F000120190911301892B89F580911B1A9091F6
:102A00001C1A883592402CF00E94230B86E090E03F
:102A10001BC080E20E94D00B882329F00E94230B68
:102A200083E090E011C088E00E94D00B882329F059
:102A30000E94BC1384E090E007C080E10E94D00BAC
:102A4000882361F085E090E09093C81A8093C71ABC
:102A500081E090E0909313018093120108952F92EA
:102A60003F924F925F926F927F928F929F92AF921E
:102A7000BF92CF92DF92EF92FF920F931F93CF936B
:102A8000DF93CDB7DEB7EC970FB6F894DEBF0FBE7D
:102A9000CDBF8091771B9091781B01969093781B06
:102AA0008093771B82E1E1EDFAE1DE01539601901C
:102AB0000D928A95E1F7E090D11AF090D21A009128
:102AC000D31A1091D41A2090D51A3090D61A40906B
:102AD000D71A5090D81A8091D91A9091DA1AA091E9
:102AE000DB1AB091DC1A8FAB98AFA9AFBAAF809167
:102AF000DD1A9091DE1AA091DF1AB091E01A8BAB2B
:102B00009CABADABBEAB8091671B9091681BA09155
:102B1000691BB0916A1B89A79AA7ABA7BCA79C01A8
:102B2000AD016091E31A7091E41A8091E51A9091D9
:102B3000E61A0E94E31B6093E31A7093E41A8093F1
:102B4000E51A9093E61A80E20E94D00B882371F078
:102B50008091ED1B9091EE1B823FAFEF9A0734F00E
:102B600001979093EE1B8093ED1B1BC088E00E94A1
:102B7000D00B2091ED1B3091EE1B882321F02F30DC
:102B800031050CF402C037FF03C02F5F3F4F05C073
:102B90002115310531F0215031093093EE1B20937E
:102BA000ED1B84E00E94D00B2091C51A3091C61A0B
:102BB000882371F02115310559F081EF9FEF909333
:102BC000741B8093731B1092C61A1092C51A0EC004
:102BD000232B61F48091731B9091741B87309105B6
:102BE0002CF401969093741B8093731B6090ED1BE3
:102BF0007090EE1B77FE3FC08090D11A9090D21A51
:102C0000A090D31AB090D41A20E030E0A901C501F9
:102C1000B4010E94CA1D882309F476C0B301882735
:102C200077FD8095982F0E94B51E9B01AC01C501D0
:102C3000B4010E94B71B7B018C0120E030E0A901A8
:102C40007F2D912F0E94571E87FD0CC020E030E0A1
:102C5000A9016E2D7F2D802F912F0E949B1D811128
:102C600053C004C0E12CF12C00E010E01092EE1BE8
:102C70001092ED1B49C06114710409F445C08090A5
:102C8000D11A9090D21AA090D31AB090D41A20E002
:102C900030E044E953E4C501B4010E94CA1D882311
:102CA00099F1B301882777FD8095982F0E94B51E72
:102CB0009B01AC01C501B4010E94B71B7B018C01D3
:102CC00020E030E040EC51E47F2D912F0E94B71BB3
:102CD00020E030E040EA53E40E94281E87FF0CC049
:102CE00020E030E044E953E46E2D7F2D802F912FBA
:102CF0000E949B1D811108C01092EE1B1092ED1BCB
:102D0000E12CF12C04E913E48091C51A9091C61AC4
:102D1000892B09F05CC04090D51A5090D61A60906B
:102D2000D71A7090D81A2090731B3090741BB10181
:102D3000882777FD8095982F0E94B51E9B01AC01D6
:102D4000C301B2010E94B71B6DA37EA38FA398A7F6
:102D500037FC41C08090DF1B9090E01BA090E11BEE
:102D6000B090E21B20E030E040E052E4C301B20149
:102D70000E94B71BA50194010E94861E18165CF1E3
:102D800020E030E040E052E4BDA1AEA1FFA1E8A503
:102D90006B2F7A2F8F2F9E2F0E94B71BA5019401B6
:102DA0000E94F91D1816BCF420E030E040E052E427
:102DB000C501B4010E94E31B6DA37EA38FA398A756
:102DC00081E090E09093C61A8093C51A04C02DA2AA
:102DD0003EA24FA258A629A53AA54BA55CA56E2DEB
:102DE0007F2D802F912F0E94E31B6FA778AB89ABBB
:102DF0009AAB20E030E0A9010E94571E87FF04C073
:102E00001FA618AA19AA1AAAFBE02F2EFBE13F2E33
:102E10001EA61DA620E030E040E251EC69A57AA58F
:102E20008BA59CA50E94861E18160CF472C022E188
:102E3000EDA5FEA52E9F30012F9F700C11248BE075
:102E40009BE1680E791E1F921F92D3018C90119600
:102E50009C9011971296AC9012971396BC90139772
:102E60001496CC9014971596DC9015971696EC90C6
:102E700016971796FC90179718960C911897199615
:102E80001C9119971A962C911A971B963C911B9797
:102E90001C964C911C971D965C911D971E966C91EB
:102EA0001E971F967C911F9750968C915097519624
:102EB0009C910E94040329A53AA54BA55CA5F101AC
:102EC00060817181828193810E94E31BD1016D93A6
:102ED0007D938D939C93139751968C9151978F93DB
:102EE00050968C918F93F30180809180A280B38063
:102EF000C480D580E680F7800085118522853385E2
:102F00004485558566857785808991890E9404036B
:102F10008AC0F101DE01119682E101900D928A953D
:102F2000E1F7A2E18DA59EA5A89FF001A99FF00D54
:102F30001124E55FF44E7088618889A59AA5ABA538
:102F4000BCA589879A87AB87BC87D10118962D913C
:102F50003D914D915C911B976D917D918D919C91CF
:102F60000E94B71B29A53AA54BA55CA50E94E31BAF
:102F70006BAF7CAF2C01472F862F942FA42DB52D3E
:102F800089839A83AB83BC83798A6A8A1F921F9252
:102F900089809A80AB80BC80CD80DE80EF80F88411
:102FA00009851A852B853C854D855E856F857889D9
:102FB00089899A890E940403F1012085318542851F
:102FC0005385BBADACAD6B2F7A2F842D952D0E9410
:102FD000E31B69837A838B839C836F927F928980C2
:102FE0009A80AB80BC80CD80DE80EF80F88409853C
:102FF0001A852B853C854D855E856F857889898905
:103000009A890E94040329A53AA54BA55CA5D10184
:103010006D917D918D919C910E94E31BF1016083E4
:103020007183828393830F900F900F900F90D10143
:103030008D909D90AD90BC90A5019401BFA5A8A9CD
:10304000F9A9EAA96B2F7A2F8F2F9E2F0E94861E37
:103050001816A4F02FA938AD49AD5AADBFA5A8A93F
:10306000F9A9EAA96B2F7A2F8F2F9E2F0E94B71BE9
:10307000A50194010E94281E87FF33C0F10120851D
:10308000318542855385C501B4010E94B71B7B0180
:103090008C01762F272F3F2D402F512FBFA5A8A998
:1030A000F9A9EAA96B2F7A2F8F2F9E2F0E94861ED7
:1030B00018160CF474C02FA938AD49AD5AADBFA590
:1030C000A8A9F9A9EAA96B2F7A2F8F2F9E2F0E940A
:1030D000B71B2E2D3F2D402F512F0E94281E87FDFC
:1030E0005EC0D10114964D905D906D907C901797C5
:1030F000A3019201BDA1AEA1FFA1E8A56B2F7A2F7C
:103100008F2F9E2F0E94861E1816A4F02BA93CA973
:103110004DA95EA9BDA1AEA1FFA1E8A56B2F7A2F95
:103120008F2F9E2F0E94B71BA30192010E94281E81
:1031300087FF32C0F1012485358546855785C30157
:10314000B2010E94B71B7B018C01762F272F3F2DE8
:10315000402F512FBDA1AEA1FFA1E8A56B2F7A2F63
:103160008F2F9E2F0E94861E1816CCF02BA93CA9EB
:103170004DA95EA9BDA1AEA1FFA1E8A56B2F7A2F35
:103180008F2F9E2F0E94B71B2E2D3F2D402F512F8A
:103190000E94281E87FD03C081E090E02AC0D10173
:1031A00018962D913D914D915C911B97C501B401ED
:1031B0000E94B71B20E030E0A9010E94861E18166D
:1031C0000CF48CC02091CD1A3091CE1A2F5F3F4F56
:1031D0003093CE1A2093CD1AC9016AE070E00E94A4
:1031E000DB21892B09F076C02233310539F482E0E6
:1031F00090E09093C81A8093C71A17C18091711BF1
:103200009091721B01969093721B8093711B65E0E5
:1032100070E00E94DB21880F991F885E9E4FFC01A1
:10322000108101811093EB1B0093EC1B2DEC3CEC07
:103230004CEC5EE36091671B7091681B8091691B89
:1032400090916A1B0E94B71B6093671B7093681B69
:103250008093691B90936A1B10931B1B00931C1B8C
:1032600010932D1B00932E1B10933F1B0093401BAC
:103270001093511B0093521B1093631B0093641B0C
:103280000F931F938090DB1B9090DC1BA090DD1BA5
:10329000B090DE1BC090DF1BD090E01BE090E11BE4
:1032A000F090E21B0091E31B1091E41B2091E51BC1
:1032B0003091E61B4091E71B5091E81B6091E91BA0
:1032C0007091EA1B8091EB1B9091EC1B0E94040310
:1032D0000F900F908DA59EA50E94C1128DA59EA551
:1032E00001969EA78DA792E1290E311CADA5BEA522
:1032F000159709F08FCD1F921F928090D11A909050
:10330000D21AA090D31AB090D41AC090D51AD090E7
:10331000D61AE090D71AF090D81A0091D91A1091C5
:10332000DA1A2091DB1A3091DC1A4091DD1A5091A3
:10333000DE1A6091DF1A7091E01A8091E11A909183
:10334000E21A0E9404035FA548A939A92AA9852F7A
:10335000942FA32FB22F8B8B9C8BAD8BBE8B5DA13B
:103360004EA13FA128A5852F942FA32FB22F8F8B7D
:10337000988FA98FBA8F8FA998ADA9ADBAAD8B8F51
:103380009C8FAD8FBE8F8BA99CA9ADA9BEA98F8F35
:1033900098A3A9A3BAA382E1FE017396A1EDBAE1B5
:1033A00001900D928A95E1F78091771B9091781B9F
:1033B0006DA57EA50E94DB21CB0162E070E00E943A
:1033C000DB219F938F9380911E1A8F9380911D1AFA
:1033D0008F938090D11A9090D21AA090D31AB09067
:1033E000D41AC090D51AD090D61AE090D71AF0907F
:1033F000D81A0091D91A1091DA1A2091DB1A30915B
:10340000DC1A4091DD1A5091DE1A6091DF1A70913A
:10341000E01A8091E11A9091E21A0E945D090F90E2
:103420000F900F900F900F900F90EC960FB6F894AE
:10343000DEBF0FBECDBFDF91CF911F910F91FF90E7
:10344000EF90DF90CF90BF90AF909F908F907F9044
:103450006F905F904F903F902F900895CF92DF92A2
:10346000EF92FF920F931F936B017C0120E030E0FD
:1034700040E05FE40E94281E87FD0EC020E030E09F
:1034800040E05FE4C701B6010E94E31B0E94111FE8
:103490008B019C01305806C0C701B6010E94111F64
:1034A0008B019C01B801C9011F910F91FF90EF9012
:1034B000DF90CF900895A4E0B0E0E1E6FAE10C944B
:1034C000F1217C016A01FC018081823008F44AC14B
:1034D000FB019081923008F442C1843079F4943039
:1034E00009F040C1F7019181FB018181981709F42E
:1034F00039C1A8E3EA2EA9E1FA2E34C1943009F4C7
:103500002EC1923091F4823009F02CC188E0F7018D
:10351000DA0101900D928A95E1F7FB018181F701B3
:1035200091818923FA0181831CC1823009F417C17A
:10353000F70182819381FB01A281B381F7010481AC
:10354000158126813781FB0184809580A680B78014
:10355000FC01EA1BFB0BAF01F7FF04C04427552712
:103560004E1B5F0B403251050CF074C01E161F0637
:10357000B4F524013501042E04C076946794579461
:1035800047940A94D2F749825A826B827C82412CFA
:10359000512C3201439404C0440C551C661C771C0A
:1035A0004A95D2F741E0441A510861087108482051
:1035B00059206A207B20812C912C5401839445282A
:1035C0004628472819F4812C912C540149805A80AF
:1035D0006B807C8084289528A628B72846C0EF2BCE
:1035E00009F443C0840F951F28013901042E04C03B
:1035F00076946794579447940A94D2F749825A82F2
:103600006B827C82412C512C3201439404C0440CC7
:10361000551C661C771C4A95D2F741E0441A5108A4
:1036200061087108402251226222732201E010E0F9
:1036300020E030E045284628472819F400E010E053
:10364000980149805A806B807C800429152926299D
:1036500037290BC0A817B90724F4812C912C5401E9
:1036600004C0CD0100E010E09801F7014181FB01A9
:103670005181451709F446C0442349F0240135011E
:10368000401A510A620A730A9301820104C00819A0
:1036900019092A093B0937FD05C0F60111829383F8
:1036A00082830CC041E0F60141839383828330958D
:1036B0002095109501951F4F2F4F3F4F0483158381
:1036C000268337830EC0880F991FAA1FBB1FF601E0
:1036D00084839583A683B7838281938101979383A3
:1036E0008283F60184819581A681B781AC01BD01F9
:1036F00041505109610971094F3F5F4F6F4F7F433F
:1037000010F30CC0F601418393838283080D191DC9
:103710002A1D3B1D048315832683378383E0F6012E
:103720008083448155816681778177FF1AC0DB01F0
:10373000CA0181709927AA27BB2776956795579567
:103740004795842B952BA62BB72B84839583A68333
:10375000B7838281938101969383828302C07B0128
:1037600001C07601C7012496E0E10C940D22A0E28D
:10377000B0E0EDEBFBE10C94FF216D8F7E8F8F8F1E
:1037800098A3298F3A8F4B8F5C8FBE016F5E7F4F5E
:10379000CE014D960E94A020BE01675F7F4FCE01F3
:1037A00049960E94A020AE014F5F5F4FBE01675F48
:1037B0007F4FCE0141960E945B1A0E94D61FA096B1
:1037C000E2E00C941B22A0E2B0E0E9EEFBE10C94F5
:1037D000FF216D8F7E8F8F8F98A3298F3A8F4B8F0C
:1037E0005C8FBE016F5E7F4FCE014D960E94A02080
:1037F000BE01675F7F4FCE0149960E94A0208A8557
:1038000091E089278A87AE014F5F5F4FBE01675FF6
:103810007F4FCE0141960E945B1A0E94D61FA09650
:10382000E2E00C941B22A0E2B0E0E9E1FCE10C94A0
:10383000F1216D8F7E8F8F8F98A3298F3A8F4B8FB9
:103840005C8FBE016F5E7F4FCE014D960E94A0201F
:10385000BE01675F7F4FCE0149960E94A0209989E3
:10386000923008F412C08985823008F41AC094306E
:1038700021F4823009F4B4C008C0843021F49230BD
:1038800009F4AEC00EC0923051F481E02A899A85C5
:10389000291301C080E08A8BCE014196A3C08230FB
:1038A00051F481E02A899A85291301C080E08A8732
:1038B000CE01099697C08D889E88AF88B88C0D85FB
:1038C0001E852F853889E0E2F0E080E090E0DC01A1
:1038D000C12CD12C760140E050E0BA0180FE18C026
:1038E000400F511F621F731F8C0D9D1DAE1DBF1D0C
:1038F000412C512C32014394401751076207730742
:1039000018F0412C512C3201840D951DA61DB71DB8
:10391000CC0CDD1CEE1CFF1C37FF02C06894C0F805
:10392000000F111F221F331FB694A79497948794FA
:103930003197A1F62B893C89EB85FC852E0F3F1F23
:103940002E5F3F4F3C832B8321E0EA893A85E313C6
:1039500001C020E02A83EB81FC810CC080FF05C000
:1039600076956795579547957068B695A7959795FD
:1039700087953196B7FDF2CF9F010CC0880F991F34
:10398000AA1FBB1F77FD8160440F551F661F771F5D
:10399000215031090097A105E0E4BE0778F32B839D
:1039A0003C838C019D010F77112722273327003498
:1039B00011052105310559F487FD09C0452B462B1A
:1039C000472B29F0805C9F4FAF4FBF4F80788D838E
:1039D0009E83AF83B88783E08983CE01019602C0BE
:1039E00088E399E10E94D61FA096E0E10C940D2295
:1039F000A8E1B0E0EEEFFCE10C94F9216D8B7E8B39
:103A00008F8B988F298B3A8B4B8B5C8BBE01675FBA
:103A10007F4FCE0145960E94A020BE016F5F7F4F71
:103A2000CE0141960E94A0209985923008F475C07D
:103A30008981823008F474C02A853A8123272A8735
:103A4000943011F0923019F4981367C06CC0843030
:103A500039F41D861E861F86188A1C861B8604C0A4
:103A6000823029F484E08987CE0109965EC08B8577
:103A70009C852B813C81821B930B9C878B874D857A
:103A80005E856F857889CD80DE80EF80F8844C1567
:103A90005D056E057F0538F4440F551F661F771FBF
:103AA00001979C878B87EFE1F0E000E010E020E0D9
:103AB00030E480E090E0DC014C155D056E057F058B
:103AC00040F0802B912BA22BB32B4C195D096E0972
:103AD0007F093695279517950795440F551F661F43
:103AE000771F319749F78C019D010F771127222706
:103AF0003327003411052105310559F487FD09C02C
:103B0000452B462B472B29F0805C9F4FAF4FBF4F73
:103B100080788D879E87AF87B88BCE01099605C0C8
:103B2000CE01019602C088E399E10E94D61F6896F3
:103B3000E8E00C941522A8E1B0E0E1EAFDE10C9484
:103B4000FF216D8B7E8B8F8B988F298B3A8B4B8BC4
:103B50005C8BBE01675F7F4FCE0145960E94A0201F
:103B6000BE016F5F7F4FCE0141960E94A0208985E4
:103B7000823058F08981823040F0BE016F5F7F4F04
:103B8000CE0109960E940F2101C081E06896E2E013
:103B90000C941B22A8E1B0E0E0EDFDE10C94FF21C4
:103BA0006D8B7E8B8F8B988F298B3A8B4B8B5C8B9D
:103BB000BE01675F7F4FCE0145960E94A020BE01E7
:103BC0006F5F7F4FCE0141960E94A0208985823091
:103BD00058F08981823040F0BE016F5F7F4FCE0187
:103BE00009960E940F2101C081E06896E2E00C94E2
:103BF0001B22A8E1B0E0EFEFFDE10C94FF216D8BFB
:103C00007E8B8F8B988F298B3A8B4B8B5C8BBE0175
:103C1000675F7F4FCE0145960E94A020BE016F5F77
:103C20007F4FCE0141960E94A0208985823058F0B6
:103C30008981823040F0BE016F5F7F4FCE010996CF
:103C40000E940F2101C08FEF6896E2E00C941B22C6
:103C5000A8E1B0E0EEE2FEE10C94FF216D8B7E8BDB
:103C60008F8B988F298B3A8B4B8B5C8BBE01675F58
:103C70007F4FCE0145960E94A020BE016F5F7F4F0F
:103C8000CE0141960E94A0208985823058F089811A
:103C9000823040F0BE016F5F7F4FCE0109960E94D7
:103CA0000F2101C08FEF6896E2E00C941B22A8E17F
:103CB000B0E0EDE5FEE10C94FF216D8B7E8B8F8BE8
:103CC000988F298B3A8B4B8B5C8BBE01675F7F4F44
:103CD000CE0145960E94A020BE016F5F7F4FCE01AE
:103CE00041960E94A0208985823058F089818230D7
:103CF00040F0BE016F5F7F4FCE0109960E940F21F9
:103D000001C081E06896E2E00C941B22A8E1B0E0DB
:103D1000ECE8FEE10C94FF216D8B7E8B8F8B988FEE
:103D2000298B3A8B4B8B5C8BBE01675F7F4FCE013B
:103D300045960E94A020BE016F5F7F4FCE01419645
:103D40000E94A0208985823058F08981823040F01D
:103D5000BE016F5F7F4FCE0109960E940F2101C007
:103D600081E06896E2E00C941B22A8E0B0E0EBEB67
:103D7000FEE10C94FD2123E029838B019C010027A7
:103D800037FD0395112722273327402F0A8361151A
:103D900071058105910519F482E0898335C02EE112
:103DA00030E03C832B83442371F06115710581055C
:103DB00020E8920771F1002711279801061B170BC5
:103DC000280B390B02C08B019C01C901B8010E946C
:103DD00026220197181619062CF00D831E832F83B7
:103DE000388712C0082E04C0000F111F221F331F76
:103DF0000A94D2F70D831E832F8338872EE130E09B
:103E0000281B390B3C832B83CE0101960E94D61FC1
:103E100004C060E070E080E09FEC2896E4E00C9441
:103E20001922ACE0B0E0E7E1FFE10C94FD216987E5
:103E30007A878B879C87BE016F5F7F4FCE01099683
:103E40000E94A0208981823091F1823080F18430FB
:103E500041F48A81882331F100E010E020E030E86D
:103E600029C02B813C8137FD22C02F3131058CF7D1
:103E70008EE190E0821B930B0D811E812F8138858E
:103E800004C036952795179507958A95D2F78A81AC
:103E9000882381F030952095109501951F4F2F4F65
:103EA0003F4F08C00FEF1FEF2FEF3FE703C000E0C9
:103EB00010E09801B801C9012C96E4E00C94192295
:103EC000A8E0B0E0E6E6FFE10C94F9218B019C014B
:103ED0001A82611571058105910519F482E08983C3
:103EE0005DC083E089834EE150E05C834B83C90170
:103EF000B8010E942622019797FF39C0EE27FF27BD
:103F0000E81BF90B41E050E060E070E00E2E04C0C9
:103F1000440F551F661F771F0A94D2F7415051096D
:103F2000610971094023512362237323C12CD12CD1
:103F30007601C394452B462B472B19F4C12CD12C69
:103F4000760104C03695279517950795EA95D2F71F
:103F50000C291D292E293F290D831E832F83388785
:103F60002EE130E0281B390B3C832B8317C00097D0
:103F700029F40D831E832F83388710C0082E04C0B8
:103F8000000F111F221F331F0A94D2F70D831E83C7
:103F90002F833887481B590B5C834B83CE010196D6
:103FA0000E94D61F2896E8E00C9415220F931F93C9
:103FB000CF93DF93DC0114964D915D916D917C91CF
:103FC00017971196EC9111978C91823020F46061D3
:103FD0008FEF90E0A6C0843009F49EC0823009F4CF
:103FE00095C0411551056105710509F492C01296FD
:103FF0002D913C91139722388FEF38070CF058C061
:10400000C2E8DFEFC21BD30BCA31D1056CF58A01C0
:104010009B010C2E04C036952795179507950A9499
:10402000D2F781E090E0A0E0B0E00C2E04C0880F51
:10403000991FAA1FBB1F0A94D2F70197A109B109C2
:1040400084239523A623B72341E050E060E070E08D
:10405000892B8A2B8B2B19F440E050E0BA01402BBE
:10406000512B622B732B03C040E050E0BA01DB01FF
:10407000CA018F779927AA27BB2780349105A1050C
:10408000B10539F447FF09C0405C5F4F6F4F7F4F68
:1040900004C0415C5F4F6F4F7F4F81E090E041155E
:1040A0005105610520E4720748F580E090E026C0E4
:1040B000203831058CF5DB01CA018F779927AA27B3
:1040C000BB2780349105A105B10539F447FF09C02C
:1040D000405C5F4F6F4F7F4F04C0415C5F4F6F4F3D
:1040E0007F4F77FD04C0C90181589F4F07C0769567
:1040F000679557954795C90180589F4F97E07695EA
:104100006795579547959A95D1F70BC080E090E059
:1041100005C080E090E005C08FEF90E040E050E007
:10412000BA01982F9695E0FB97F9362F80FB37F967
:10413000642F752F832FDF91CF911F910F910895D9
:10414000CF92DF92EF92DC01FB01CC901196DC90D4
:10415000119712968C9112973FE7E32EE8226E2D6D
:10416000A60170E0982F991F9927991F13962C91FB
:10417000822F880F892B90E027FB222720F92183AB
:10418000009729F5411551056105710511F482E08B
:1041900027C082E89FEF9383828327E0440F551F57
:1041A000661F771F2A95D1F783E0808309C0440FEB
:1041B000551F661F771F82819381019793838283A6
:1041C00041155105610580E4780788F320C08F3FD1
:1041D000910579F4411551056105710519F484E0E3
:1041E000808319C0E4FE03C081E0808310C0108288
:1041F0000EC08F5791099383828383E0808387E089
:10420000440F551F661F771F8A95D1F7706444834A
:10421000558366837783EF90DF90CF900895CF9397
:10422000FC01DB019081923008F452C08C91823005
:1042300008F44EC0943071F4843039F411962C9106
:1042400030E08181281B310948C08181882309F42D
:104250003FC03BC0843029F411968C91811138C045
:1042600034C0923019F48230B9F735C0823069F326
:10427000C18111968C911197C8131DC02281338181
:1042800012968D919C911397821793070CF413C08B
:10429000281739070CF417C044815581668177814E
:1042A00014968D919D910D90BC91A02D841795072A
:1042B000A607B70718F4C11108C00AC04817590764
:1042C0006A077B0740F4C11103C02FEF3FEF05C021
:1042D00021E030E002C020E030E0C901CF91089534
:1042E00080E880936100109261000E949C070E9408
:1042F000FA010E94B0020E94C8099093DA1B8093D1
:10430000D91B1092C81A1092C71A21E030E049E177
:1043100050E060E070E08CE499E00E940D02789437
:104320008091191A90911A1A892BD1F3F89410924E
:104330001A1A1092191A78948091C71A9091C81A73
:1043400083309105A9F03CF48130910571F09CF423
:10435000892B41F0E5CF8530910599F07CF00697E7
:10436000F9F612C00E94CE14DBCF0E94180ED8CFEF
:104370000E94380ED5CF0E94F80DD2CF0E942F1583
:10438000CFCF0E94690CCCCF0E949012C9CFAA1B3C
:10439000BB1B51E107C0AA1FBB1FA617B70710F030
:1043A000A61BB70B881F991F5A95A9F78095909562
:1043B000BC01CD01089597FB072E16F4009407D099
:1043C00077FD09D00E94C72107FC05D03EF49095E7
:1043D00081959F4F0895709561957F4F08952F9215
:1043E0003F924F925F926F927F928F929F92AF9285
:1043F000BF92CF92DF92EF92FF920F931F93CF93D2
:10440000DF93CDB7DEB7CA1BDB0B0FB6F894DEBF68
:104410000FBECDBF09942A88398848885F846E848E
:104420007D848C849B84AA84B984C884DF80EE80D8
:10443000FD800C811B81AA81B981CE0FD11D0FB6E1
:10444000F894DEBF0FBECDBFED0108950E942F226C
:1044500084FF0895CB010E942F22805F0895AA2730
:10446000992329F4A85F982B11F480E108959031E5
:1044700018F4AD5F9295A395990FE8F78A2F9927C5
:064480000895F894FFCF3F
:10448600FF00000000000000000000FF0100010026
:1044960001000100FF00000010481F00000420FD7D
:1044A60000F810481A901F00BCAE72970004E0FF97
:1044B60020FD00F80088A0FE0000000000000000BB
:1044C6000000000000000000FFFFFFFFFFFFFDF9F6
:1044D600FDF9FFFFFFFFFDF90000000000000000EE
:1044E60000000000000000000000000000000000C6
:1044F60000000000FFFFFFFFFFFFFFFFFFFFFFFFC2
:10450600FFFFFFFFFFFFFDF9FDF9FFFF00000000C1
:104516000000000000000000000000000000000095
:104526000000FFFFFFFFFDF9FDF9FFFFFFFFFFFFA3
:10453600FFFFFFFFFFFFFFFFFFFFFFFFFFFF000083
:104546000000000000000000000000000000000065
:104556000000FFFFFFFFFDF9FDF9FFFFFFFFFFFF73
:10456600FFFFFFFFFFFFFFFFFFFFFFFFFFFF000053
:104576000000000000000000000000000000000035
:10458600FFFFFFFFFFFFFFFFFFFFFFFFFFFFFDF93D
:10459600FDF9FFFFFFFFFFFFFDF9FDF9FFFFFFFF3D
:1045A6000000000000000000000000000000000005
:1045B600FFFFFFFFFFFFFFFFFFFFFFFFFFFFFDF90D
:1045C600FDF9FFFFFFFFFFFFFDF9FDF9FFFFFFFF0D
:1045D60000000000000000000000000000000000D5
:1045E600FFFFFFFFFDF9FDF9FFFFFFFFFFFFFFFFE5
:1045F600FFFFFFFFFFFFFFFFFFFFFFFFFFFFFFFFC5
:1046060000000000000000000000000000000000A4
:104616000000FFFFFDF9FDF9FFFF269B269B269B69
:10462600269B269B269B269BFFFFFFFFFFFFFFFF88
:104636000000000000000000000000000000000074
:1046460000000000FFFFFFFFFFFF269B00000000A9
:10465600269B00000000269BFFFFFFFFFFFF0000D8
:104666000000000000000000000000000000000044
:10467600000000000000FFFFFFFF269B0000000077
:10468600269B00000000269BFFFFFFFF00000000A6
:104696000000000000000000000000000000000014
:1046A60000000000000000000000269B269B269BC1
:1046B600269B269B269B269B0000000000000000F0
:1046C60000000000000000000000000000000000E4
:1046D60000000000000000000000269B269B000052
:1046E60000000000269B269B000000000000000042
:1046F60000000000000000000000269B269B000032
:1047060000000000000000000000269B269B269B60
:10471600269B269B269B269BB6FA000000000000DF
:104726000000000000000000269B269B269BB6FA90
:10473600B6FAB6FAB6FAB6FAB6FAB6FAB6FA0000A3
:10474600B6FAB6FAB6FA0000B6FAB6FA00000000F3
:104756000000000000000000269B269B269B269B4F
:10476600B6FAB6FAB6FAB6FAB6FAB6FAB6FAB6FAC3
:104776000000B6FAB6FA0000B6FAB6FAB6FA0000C3
:104786000000000000000000269B269B269BB6FA30
:10479600B6FAB6FAB6FAB6FAB6FAB6FAB6FAB6FA93
:1047A600B6FA00000000B6FAB6FAB6FAB6FAB6FAE3
:1047B60000000000000000000000269B269B000071
:1047C60000000000000000000000B6FAB6FAB6FAD3
:1047D600B6FA0000B6FAB6FA0000B6FAB6FAB6FAB3
:1047E600B6FA269B269B0000000000000000000091
:1047F60000000000000000000000B6FAB6FAB6FAA3
:104806000000B6FAB6FAB6FA00000000B6FAB6FA32
:10481600B6FA269B269B269B00000000000000009F
:1048260000000000000000000000B6FAB6FAB6FA72
:104836000000B6FAB6FAB6FA000000000000B6FAB2
:10484600269B269B269B269B00000000000000005E
:104856000000000000000000B6FAB6FAB6FAB6FA92
:104866000000B6FAB6FAB6FA000000000000000032
:10487600B6FA269B269B269B00000000000000003F
:104886000000000000000000B6FAB6FAB6FA000012
:10489600B6FAB6FAB6FAB6FA000000000000000052
:1048A6000000269B269B0000000000000000000080
:1048B6000000000000000000B6FAB6FAB6FA0000E2
:1048C600B6FAB6FAB6FAB6FAB6FA00000000000072
:1048D60000000000000000000000000000000000D2
:1048E6000000000000000000B6FAB6FAB6FA0000B2
:1048F600B6FAB6FAB6FAB6FAB6FA00000000000042
:1049060000000000000000000000000000000000A1
:104916000000000000000000B6FAB6FA0000B6FA81
:10492600B6FAB6FAB6FAB6FAB6FA00000000000011
:104936000000000000000000000000000000000071
:104946000000000000000000B6FAB6FA0000B6FA51
:10495600B6FAB6FAB6FAB6FAB6FA000000000000E1
:104966000000000000000000000000000000000041
:104976000000000000000000B6FAB6FA0000B6FA21
:10498600B6FAB6FAB6FA269B269B269B00000000CE
:104996000000000000000000000000000000000011
:1049A6000000000000000000B6FAB6FA0000B6FAF1
:1049B600B6FAB6FAB6FA269B269B269B000000009E
:1049C60000000000000000000000000000000000E1
:1049D6000000000000000000B6FAB6FA0000B6FAC1
:1049E600B6FAB6FAB6FA269B269B269B269B269BEC
:1049F60000000000000000000000000000000000B1
:104A06000000000000000000269B269B269B00005D
:104A16000000000000000000269B269B269B269B8C
:104A2600269B0000000000000000000000000000BF
:104A36000000000000000000269B269B269B00002D
:104A46000000000000000000000000000000000060
:104A56000000000000000000000000000000000050
:104A660000000000269B269B269B269B269B00007B
:104A76000000000000000000000000000000000030
:104A86000000000000000000000000000000000020
:104A96000000269B269B269B269B269B000000004B
:104AA6000000000000000000000000000000000000
:104AB60000000000000000000000000000000000F0
:104AC6000000000000000000FFFFFFFFFFFFFDF9F0
:104AD600FDF9FFFFFFFFFDF90000000000000000E8
:104AE60000000000000000000000000000000000C0
:104AF60000000000FFFFFFFFFFFFFFFFFFFFFFFFBC
:104B0600FFFFFFFFFFFFFDF9FDF9FFFF00000000BB
:104B1600000000000000000000000000000000008F
:104B26000000FFFFFFFFFDF9FDF9FFFFFFFFFFFF9D
:104B3600FFFFFFFFFFFFFFFFFFFFFFFFFFFF00007D
:104B4600000000000000000000000000000000005F
:104B56000000FFFFFFFFFDF9FDF9FFFFFFFFFFFF6D
:104B6600FFFFFFFFFFFFFFFFFFFFFFFFFFFF00004D
:104B7600000000000000000000000000000000002F
:104B8600FFFFFFFFFFFFFFFFFFFFFFFFFFFFFDF937
:104B9600FDF9FFFFFFFFFFFFFDF9FDF9FFFFFFFF37
:104BA60000000000000000000000000000000000FF
:104BB600FFFFFFFFFFFFFFFFFFFFFFFFFFFFFDF907
:104BC600FDF9FFFFFFFFFFFFFDF9FDF9FFFFFFFF07
:104BD60000000000000000000000000000000000CF
:104BE600FFFFFFFFFDF9FDF9FFFFFFFFFFFFFFFFDF
:104BF600FFFFFFFFFFFFFFFFFFFFFFFFFFFFFFFFBF
:104C0600000000000000000000000000000000009E
:104C16000000FFFFFDF9FDF9FFFF269B269B269B63
:104C2600269B269B269B269BFFFFFFFFFFFFFFFF82
:104C3600000000000000000000000000000000006E
:104C460000000000FFFFFFFFFFFF269B00000000A3
:104C5600269B00000000269BFFFFFFFFFFFF0000D2
:104C6600000000000000000000000000000000003E
:104C7600000000000000FFFFFFFF269B0000000071
:104C8600269B00000000269BFFFFFFFF00000000A0
:104C9600000000000000000000000000000000000E
:104CA60000000000000000000000269B269B269BBB
:104CB600269B269B269B269B0000000000000000EA
:104CC60000000000000000000000000000000000DE
:104CD60000000000000000000000269B269B00004C
:104CE60000000000269B269B00000000000000003C
:104CF6000000269B269B000000000000000000002C
:104D06000000000000000000B6FA269B269B269BAA
:104D1600269B269B269B269BB6FAB6FAB6FAB6FAC9
:104D2600B6FA269B269B269B00000000000000008A
:104D3600000000000000B6FAB6FAB6FAB6FA0000AD
:104D4600B6FAB6FAB6FA0000B6FAB6FAB6FAB6FA8D
:104D5600269B269B269B269B000000000000000049
:104D660000000000B6FAB6FAB6FAB6FAB6FAB6FA1D
:104D76000000B6FAB6FA0000B6FAB6FAB6FAB6FA0D
:104D8600B6FA269B269B269B00000000000000002A
:104D96000000B6FAB6FAB6FAB6FAB6FAB6FAB6FA3D
:104DA600B6FA00000000B6FAB6FA000000000000ED
:104DB6000000269B269B000000000000000000006B
:104DC600B6FAB6FAB6FAB6FA0000B6FAB6FAB6FA0D
:104DD600B6FA0000B6FAB6FA0000000000000000BD
:104DE60000000000000000000000269B269BB6FA8B
:104DF600B6FAB6FAB6FA00000000B6FAB6FAB6FA8D
:104E06000000B6FAB6FAB6FA00000000000000008C
:104E16000000000000000000269B269B269BB6FA99
:104E2600B6FAB6FA000000000000B6FAB6FAB6FA0C
:104E36000000B6FAB6FAB6FA00000000000000005C
:104E46000000000000000000269B269B269B269B58
:104E5600B6FA000000000000B6FAB6FAB6FAB6FADC
:104E66000000B6FAB6FAB6FA00000000000000002C
:104E76000000000000000000269B269B269BB6FA39
:104E86000000000000000000B6FAB6FAB6FA00000C
:104E9600B6FAB6FAB6FAB6FA00000000000000004C
:104EA60000000000000000000000269B269B00007A
:104EB6000000000000000000B6FAB6FAB6FA0000DC
:104EC600B6FAB6FAB6FAB6FAB6FA0000000000006C
:104ED60000000000000000000000000000000000CC
:104EE6000000000000000000B6FAB6FAB6FA0000AC
:104EF600B6FAB6FAB6FAB6FAB6FA0000000000003C
:104F0600000000000000000000000000000000009B
:104F16000000000000000000B6FAB6FA0000B6FA7B
:104F2600B6FAB6FAB6FAB6FAB6FA0000000000000B
:104F3600000000000000000000000000000000006B
:104F46000000000000000000B6FAB6FA0000B6FA4B
:104F5600B6FAB6FAB6FAB6FAB6FA000000000000DB
:104F6600000000000000000000000000000000003B
:104F76000000000000000000269B269B269BB6FA38
:104F8600B6FAB6FAB6FAB6FAB6FA000000000000AB
:104F9600000000000000000000000000000000000B
:104FA6000000000000000000269B269B269BB6FA08
:104FB600B6FAB6FAB6FAB6FAB6FA0000000000007B
:104FC60000000000000000000000000000000000DB
:104FD60000000000269B269B269B269B269BB6FA56
:104FE600B6FAB6FAB6FAB6FAB6FA0000000000004B
:104FF60000000000000000000000000000000000AB
:105006000000269B269B269B269B269B00000000D5
:105016000000269B269B269B000000000000000047
:10502600000000000000000000000000000000007A
:10503600000000000000000000000000000000006A
:105046000000269B269B269B000000000000000017
:10505600000000000000000000000000000000004A
:10506600000000000000000000000000000000003A
:105076000000269B269B269B269B269B0000000065
:10508600000000000000000000000000000000001A
:10509600000000000000000000000000000000000A
:1050A60000000000269B269B269B269B269B000035
:1050B60000000000000000000000000000000000EA
:1050C6000000000000000000000080FF000080FFDC
:1050D600000080FF000080FF0000000000000000CC
:1050E60000000000000000000000000000000000BA
:1050F6000000000000000000000080FF80FF80FF2D
:1051060080FF80FF80FF80FF00000000000000009D
:105116000000000000000000000000000000000089
:10512600000000000000000080FF80FF80FF80FF7D
:1051360080FF80FF80FF80FF80FF000000000000EE
:105146000000000000000000000000000000000059
:10515600000000000000000080FF80FF80FF80FF4D
:1051660080FF80FF80FF80FF80FF000000000000BE
:105176000000000000000000000000000000000029
:10518600000000000000000080FF80FF36EF36EFD1
:1051960036EF36EF36EF80FF80FF0000000000009C
:1051A60000000000000000000000000000000000F9
:1051B600000000000000000080FF36EF36EF36EFFB
:1051C60036EF36EF36EF000080FF000000000000EB
:1051D60000000000000000000000000000000000C9
:1051E600000000000000000036EF36EF36EF36EF25
:1051F60036EF36EF000036EF36EF00000000000015
:105206000000000000000000000000000000000098
:1052160000000000000036EF000000000000000063
:1052260036EF000036EF36EF36EF36EF00000000BF
:105236000000000000000000000000000000000068
:1052460000000000000036EF36EF1804180436EFB1
:1052560036EF36EF1804180436EF36EF000000007C
:105266000000000000000000000036EF36EF0000EE
:1052760000000000000036EF36EF1804180436EF81
:1052860036EF36EF1804180436EF36EF000000004C
:10529600000000000000000036EF36EF36EF36EF74
:1052A60000000000000036EF36EF36EF36EF36EF3F
:1052B60036EF36EF36EF36EF36EF36EF000000000A
:1052C600000000000000000036EF36EF36EF36EF44
:1052D600000000000000000036EF36EF36EF36EF34
:1052E60036EFE4E8E4E836EF36EF000000000000B1
:1052F60000000000000000000E510E510E510E512C
:105306000000000000000000000036EF36EF36EF28
:1053160036EFE4E8E4E836EF0000000000000000A5
:1053260000000000000000000E510E510E510E51FB
:105336000E510000000000000000000036EF36EFBE
:1053460036EF36EF36EF00000000000000000000E8
:10535600000000000000000000000E510E510E512A
:105366000E510E510000000000000E51000000001A
:105376000000000000000E510000000000000000C8
:105386000000000000000000000000000E510E5159
:105396000E510E510E510E510E510E5100000000CD
:1053A6000000000000000E510E510E510E5100007B
:1053B60000000000000000000000000000000E5188
:1053C6000E510E510E510E510E510E510E5100003E
:1053D600000000000E510E510E510E510E510E518D
:1053E6000E51000000000000000000000000000058
:1053F6000E510E510E510E510E510E510E510E51AF
:1054060000000E510E510E510E510E510E510E51FD
:105416000E510E51000000000000000000000000C8
:1054260000000E510E510E510E510E510E510E51DD
:105436000E510E510E510E510E510E5100000E51CD
:105446000E510E510E510000000000000000000039
:1054560000000E510E510E510E510E510E510E51AD
:105466000E510E510E510E510E510E5100000E519D
:105476000E510E510E510000000000000000000009
:10548600000000000E510E510E510E510E510E51DC
:105496000E510E510E510E510E510E5100000000CC
:1054A6000E510E510E510E5100000000000000007A
:1054B600000000000E510E510E510E510E510E51AC
:1054C6000E510E510E510E510E510E51000000009C
:1054D6000E510E510E510E5100000000000000004A
:1054E600000000000E510E510E510E510E510E517C
:1054F6000E510E510E510E510E510E51000000006C
:105506000E510E510E510E51000000000000000019
:1055160000000000593A593A593A593A593A0000A6
:105526000000593A593A593A593A593A0000000096
:1055360036EF36EF36EF36EF0000000000000000D1
:1055460000000000593A593A593A593A593A000076
:105556000000593A593A593A593A593A0000000066
:1055660036EF36EF36EF36EF0000000000000000A1
:1055760000000000593A593A593A593A593A000046
:105586000000593A593A593A593A593A0000000036
:10559600000036EF36EF00000000000000000000BB
:1055A60000000000593A593A593A593A593A000016
:1055B6000000593A593A593A593A593A0000000006
:1055C60000000000000000000000000000000000D5
:1055D6000000000036EF36EF36EF36EF0000000031
:1055E6000000000036EF36EF36EF36EF0000000021
:1055F60000000000000000000000000000000000A5
:105606000000000036EF36EF36EF36EF0000000000
:105616000000000036EF36EF36EF36EF00000000F0
:105626000000000000000000000000000000000074
:105636000000000000000000000000000000000064
:1056460000000000000036EF36EF36EF36EF36EF9B
:105656000000000000000000000000000000000044
:105666000000000000000000000000000000000034
:1056760000000000000036EF36EF36EF36EF36EF6B
:105686000000000000000000000000000000000014
:105696000000000000000000000000000000000004
:1056A60000000000000036EF36EF36EF36EF36EF3B
:1056B60000000000000000000000000000000000E4
:1056C6000000000000000000000080FF000080FFD6
:1056D600000080FF000080FF0000000000000000C6
:1056E60000000000000000000000000000000000B4
:1056F6000000000000000000000080FF80FF80FF27
:1057060080FF80FF80FF80FF000000000000000097
:105716000000000000000000000000000000000083
:10572600000000000000000080FF80FF80FF80FF77
:1057360080FF80FF80FF80FF80FF000000000000E8
:105746000000000000000000000000000000000053
:10575600000000000000000080FF80FF80FF80FF47
:1057660080FF80FF80FF80FF80FF000000000000B8
:105776000000000000000000000000000000000023
:10578600000000000000000080FF80FF36EF36EFCB
:1057960036EF36EF36EF80FF80FF00000000000096
:1057A60000000000000000000000000000000000F3
:1057B600000000000000000080FF36EF36EF36EFF5
:1057C60036EF36EF36EF000080FF000000000000E5
:1057D60000000000000000000000000000000000C3
:1057E600000000000000000036EF36EF36EF36EF1F
:1057F60036EF36EF000036EF36EF0000000000000F
:105806000000000000000000000000000000000092
:1058160000000000000036EF00000000000000005D
:1058260036EF000036EF36EF36EF36EF00000000B9
:105836000000000000000000000000000000000062
:1058460000000000000036EF36EF1804180436EFAB
:1058560036EF36EF1804180436EF36EF0000000076
:105866000000000000000000000000000000000032
:1058760000000000000036EF36EF1804180436EF7B
:1058860036EF36EF1804180436EF36EF0000000046
:10589600000036EF36EF00000000000000000000B8
:1058A60000000000000036EF36EF36EF36EF36EF39
:1058B60036EF36EF36EF36EF36EF36EF0000000004
:1058C60036EF36EF36EF36EF00000000000000003E
:1058D600000000000000000036EF36EF36EF36EF2E
:1058E60036EFE4E8E4E836EF36EF000000000000AB
:1058F60036EF36EF36EF36EF00000000000000000E
:105906000000000000000000000036EF36EF36EF22
:1059160036EFE4E8E4E836EF00000000000000009F
:105926000E510E510E510E510000000000000000F5
:1059360000000000000000000000000036EF36EF17
:1059460036EF36EF36EF00000000000000000E5183
:105956000E510E510E510E510000000000000000C5
:10596600000000000000000000000E5100000000D2
:105976000000000000000E51000000000E510E5104
:105986000E510E510E5100000000000000000000F4
:1059960000000E510E510E510E510E510000000026
:1059A6000000000000000E510E510E510E510E5116
:1059B6000E510E51000000000000000000000E51C4
:1059C6000E510E510E510E510E510E510E51000038
:1059D600000000000E510E510E510E510E510E5187
:1059E6000E51000000000000000000000E510E5194
:1059F6000E510E510E510E510E510E510E510E51A9
:105A060000000E510E510E510E510E510E510E51F7
:105A1600000000000000000000000E510E510E5163
:105A26000E5100000E510E510E510E510E510E51D7
:105A36000E510E510E510E510E510E510E510000C7
:105A4600000000000000000000000E510E510E5133
:105A56000E5100000E510E510E510E510E510E51A7
:105A66000E510E510E510E510E510E510E51000097
:105A760000000000000000000E510E510E510E51A4
:105A8600000000000E510E510E510E510E510E51D6
:105A96000E510E510E510E510E510E5100000000C6
:105AA60000000000000000000E510E510E510E5174
:105AB600000000000E510E510E510E510E510E51A6
:105AC6000E510E510E510E510E510E510000000096
:105AD60000000000000000000E510E510E510E5144
