:100000000C943A010C9459010C9459010C94590127
:100010000C9459010C9459010C9459010C945901F8
:100020000C9459010C9459010C9459010C945901E8
:100030000C9459010C9459010C9459010C945901D8
:100040000C9459010C943E060C9459010C945901DE
:100050000C9459010C9459010C9459010C945901B8
:100060000C9459010C9459010C9459010C945901A8
:100070000C9459010C9459010C9459010C94590198
:100080000C9459010C9459010C9459010C94590188
:100090000C9459010C945901000000000000005F0D
:1000A00000000003000300143E143E14242A7F2A9B
:1000B000124333086661364955225000050300009B
:1000C000001C2241000041221C0014083E081408B4
:1000D000083E0808005030000008080808080060C2
:1000E00060000020100804023E5149453E00040211
:1000F0007F00426151494622414949361814127F16
:100100001027454545393E494949320101710907E2
:100110003649494936264949493E003636000000ED
:10012000563600000814224100141414141400411F
:1001300022140802015109063E4159555E7E090903
:10014000097E7F494949363E414141227F41414133
:100150003E7F494949417F090909013E4141493AE8
:100160007F0808087F00417F4100304040403F7FCA
:10017000081422417F404040407F020C027F7F02F2
:1001800004087F3E4141413E7F090909061E2121A5
:10019000215E7F09090976264949493201017F011B
:1001A000013F4040403F1F2040201F7F2010207F04
:1001B00041221C224107087008076151494543004C
:1001C0007F41000002040810200000417F0004026B
:1001D0000102044040404040000102040020545409
:1001E00054787F4444443838444444443844444474
:1001F0007F385454541804047E0505085454543C64
:100200007F0804047800447D40002040443D007F86
:100210001028440000417F40007C047804787C086A
:1002200004047838444444387C1414140808141422
:10023000147C007C080404485454542004043F44B3
:10024000443C4040207C1C2040201C3C4030403C32
:1002500044281028440C5050503C4464544C4400F2
:100260000836414100007F0000414136080002018C
:100270000204020011241FBECFEFD0E2DEBFCDBFCB
:1002800011E0A0E0B1E0E4E2F3E100E00BBF02C066
:1002900007900D92AA36B107D9F722E0AAE6B1E09D
:1002A00001C01D92A139B207E1F70E9479070C94B1
:1002B00090090C940000E0917A01F0917B019F017C
:1002C0002F5F3F4F30937B0120937A018083089505
:1002D0008A3034F090916B01911104C097E503C00E
:1002E00090E301C097E3890F0E945B0181E0809356
:1002F0006A010895AC0120916C0130916D0180E09C
:100300002417350720F0241B350B8F5FF9CF30936E
:100310006D0120936C0190916A01911101C08111CE
:100320000C94680108958F929F92AF92BF92CF92E2
:10033000DF92EF92FF920F931F93CF93DF93CDB78E
:10034000DEB7FE013F96C190D1908F013EE6A32E0D
:1003500031E0B32EF6018081882309F4E2C08532B2
:1003600031F02FEFC21AD20A0E942B05F3CFF6010B
:100370008181803329F0F2E0CF0ED11CE12C08C03E
:10038000F601828196012D5F3F4F6901EE24E394CF
:1003900090ED980F9A3078F4F601F12C6F0190ED02
:1003A000980F9A3048F48F2D880F880FF80EFF0CA5
:1003B000F90E8191F3CFF12CB0927B01A0927A01DA
:1003C00010926A01833609F461C04CF4853209F455
:1003D0006CC08835C1F1882309F4A3C069C0833794
:1003E00009F45DC01CF4843631F062C0853719F021
:1003F000883749F15DC0480132E0830E911CF80155
:100400002081318130936D0120936C01843661F439
:1004100037FF0AC031952195310930936D01209342
:100420006C018DE20E945B0180E197E20E947A01FB
:1004300088EE93E00E947A0184E690E00E947A01BF
:100440008AE090E01BC091E0883509F090E090933D
:100450006B014801F2E08F0E911CF80180819181BF
:1004600090936D0180936C0180E090E10E947A018D
:1004700080E091E00E947A0180E190E00E947A01A0
:1004800080916C010E946801840112C04801F2E071
:100490008F0E911CF80180810E945B01F5CFF8015D
:1004A000808091800E5F1F4F07C085E20E945B0134
:1004B0002EE6822E21E0922EE0917A01F0917B01CE
:1004C000108290927B0180927A01C4010196FC0116
:1004D0003197208121110CC090937B0180937A0188
:1004E000EE2019F090E3E92E0CC080E2E82E09C05E
:1004F0001F1414F4FA94EACF90937B0180937A014D
:1005000007C01F142CF48E2D0E942B05FA94F9CFEE
:10051000F40181914F01882309F41CCF0E942B051F
:10052000F7CFDF91CF911F910F91FF90EF90DF9068
:10053000CF90BF90AF909F908F9008950C942B0513
:1005400093E89093B00091E09093B1008093B30052
:100550000895909384018093830126E330E02093F3
:100560000040009779F480EF90E0909380018093B1
:100570007F0180E491E0909382018093810188E47F
:1005800090E034C08130910579F480E491E090935B
:10059000800180937F0180EF90E0909382018093AF
:1005A000810188EE90E022C08230910579F480EFDD
:1005B00090E09093800180937F0180E491E090939C
:1005C00082018093810188E890E010C0039781F454
:1005D00080E491E09093800180937F0180EF90E030
:1005E000909382018093810188E290E080930041A2
:1005F0008AE290E08093004020E030E030930041B8
:100600002093004180917F01909180010197909308
:100610000041809300418BE290E080930040309352
:1006200000412093004180918101909182010197C6
:1006300090930041809300410895CF93873748F409
:10064000883048F08D3350F48F3150F4803150F4BD
:1006500003C086E703C088E0C3E005C0C0E003C074
:10066000C1E001C0C2E021EB30E020930040C09324
:100670000041682F70E080E090E00E9497089B01A5
:10068000AC0160E070E080EF94E40E94F4070E9407
:10069000660870E002C075956795CA95E2F76093A9
:1006A0000041CF9108950F931F93CF93DF93CDB760
:1006B000DEB728970FB6F894DEBF0FBECDBF2983F3
:1006C0003A834B835C836D837E838F8398876981B4
:1006D0007A812B813C814D815E818F819885EAE210
:1006E000F0E0E0930040709300416093004130934C
:1006F000004120930041EBE2F0E0E0930040509392
:100700000041409300419093004180930041ECE20E
:10071000F0E0E09300402F5F3F4F261B370B019620
:10072000841B950B2817390790F4482F4770429F78
:10073000B001439F700D112453E0969587955A950B
:10074000E1F7829FA001839F500D112411C0422F19
:100750004770489FB001499F700D112443E03695C2
:1007600027954A95E1F7289FA001299F500D112454
:10077000862F8770815028F010930041009300412C
:10078000F9CFCB0123E0969587952A95E1F7840F61
:10079000951F019708F110930041009300411093B9
:1007A00000410093004110930041009300411093D9
:1007B00000410093004110930041009300411093C9
:1007C00000410093004110930041009300411093B9
:1007D000004100930041DDCF28960FB6F894DEBFAC
:1007E0000FBECDBFDF91CF911F910F910895EF9272
:1007F000FF920F931F93CF93DF93CDB7DEB7289768
:100800000FB6F894DEBF0FBECDBF29833A834B836A
:100810005C836D837E838F83988789819A81EB8047
:10082000FC806D817E81AF81B8852AE230E0209323
:1008300000409093004180930041F0920041E0928B
:1008400000412BE230E02093004070930041609320
:100850000041B0930041A09300412CE230E020938E
:100860000040E816F906A0F0A8019B018A01A21732
:10087000B30760F04E5F5F4FF80100811181109364
:100880000041009300412F5F3F4FF0CF0196E9CF29
:1008900028960FB6F894DEBF0FBECDBFDF91CF9183
:1008A0001F910F91FF90EF9008950F931F93CF9397
:1008B000DF93CDB7DEB728970FB6F894DEBF0FBE33
:1008C000CDBFEFE7F1E017821682118610861A82FB
:1008D0001982808191810197482F9C838B831E828E
:1008E0001D8282819381019798878F830485158566
:1008F00020E03A815C8160E07E8198850E9453030C
:1009000028960FB6F894DEBF0FBECDBFDF91CF9112
:100910001F910F91089586E08093750080E8809381
:1009200074003F9A249A8FEC97E00197F1F700C08A
:10093000000047988FE39CE90197F1F700C00000A1
:10094000479A9FEF2DEE82E0915020408040E1F7E2
:1009500000C0000088E290E08093004081E190E0D8
:10096000809300409FEF26E781E091502040804037
:10097000E1F700C0000021E030E08BEC90E08093D4
:1009800000402093004180EC90E08093004088E09C
:1009900096E2909300418093004120E130E081ECA9
:1009A00090E0809300402093004185EC90E080939C
:1009B00000408EE395E3909300418093004125EB46
:1009C00030E087EC90E0809300402093004121E0EC
:1009D00030E086EF90E0809300402093004180E07B
:1009E00090E0909300418093004125E530E08AE358
:1009F00090E0809300402093004181E090E00E94CD
:100A0000A9020E945504EFE7F1E0178216821186D1
:100A10001086158614868FEF9FEF9387828789E271
:100A200090E0809300409FE728E381E091502040D0
:100A30008040E1F700C0000020E030E085E390E076
:100A40008093004020930041EAE6F0E080818062DC
:100A500080832C9A08959F92AF92BF92CF92DF929B
:100A6000EF92FF920F931F93CF93DF932091870113
:100A7000309188018A30F9F4109286011092850134
:100A8000285F3F4F30938801209387018091810137
:100A9000909182012817390708F4A8C0DF91CF91FF
:100AA0001F910F91FF90EF90DF90CF90BF90AF908C
:100AB0009F900C94550490EE980F9F3508F096C0C7
:100AC0006091850170918601A901495F5F4F082EF1
:100AD000000C990B8097E5E0E89FE001E99FD00DBD
:100AE00011248BE290E080930040309300412093EA
:100AF00000415093004140930041CB01DB0114962B
:100B00000AE210E0ECE2EE2EF12CA817B90780F112
:100B100000930040909300418093004190930041E6
:100B200080930041E0920040FC01E61BF70BEC0FC4
:100B3000FD1FE856FF4F94906901F1E04C155D05EB
:100B4000A8F0BF2EB92029F0A0908901B0908A01A9
:100B500004C0A0908B01B0908C01B0920041A09293
:100B60000041EFEFCE1ADE0AFF0FE8CF0196CDCF9E
:100B70006AE270E0609300409093004180930041EE
:100B800090930041809300418CE290E0809300407C
:100B90004217530758F080918B0190918C019093EC
:100BA0000041809300412F5F3F4FF2CF809185013C
:100BB000909186019C012A5F3F4F309386012093DC
:100BC00085010B9620917F01309180018217930758
:100BD00068F01092860110928501809187019091B2
:100BE000880108969093880180938701DF91CF91C7
:100BF0001F910F91FF90EF90DF90CF90BF90AF903B
:100C00009F9008950F931F93CF938C01C0E0F8013C
:100C1000EC0FF11D8081882321F00E942B05CF5F0E
:100C2000F6CFCF911F910F910895EFE7F1E09783F1
:100C30008683718760870895EFE7F1E09387828765
:100C40007587648708950F931F93CF938C017093DA
:100C50008601609385015093880140938701C0E02D
:100C6000F801EC0FF11D8081882321F00E942B05F3
:100C7000CF5FF6CFCF911F910F9108951F920F92E2
:100C80000FB60F9211240BB60F92CF92DF92EF9214
:100C9000FF920F931F932F933F934F935F936F9305
:100CA0007F938F939F93AF93BF93CF93DF93EF93F4
:100CB000FF932F9A10E00DE0DD24D394CC24CA9446
:100CC000E12EF12C80911501082E000C990B8E1548
:100CD0009F050CF457C00E9DE0010F9DD00D11240F
:100CE000C357DE4F4F81588569857A858B819C81FA
:100CF000AD81BE81481759076A077B0778F1E091FB
:100D00007E01F0E0E050FF4F8081181738F58881B0
:100D1000811124C0F8941F82188619861A86D882F9
:100D2000E0917E01EF5FE0937E01F0E0E050FF4F45
:100D300010837894EB85FC8589819A8109959A8343
:100D40008983F894188280917E01E82FF0E0E050CA
:100D5000FF4FC082815080937E0178940E9DF001F8
:100D60000F9DF00D1124E357FE4F87819085A185DB
:100D7000B2850196A11DB11D87839087A187B28797
:100D80001F5F9ECFFF91EF91DF91CF91BF91AF9108
:100D90009F918F917F916F915F914F913F912F9193
:100DA0001F910F91FF90EF90DF90CF900F900BBEAF
:100DB0000F900FBE0F901F9018958DE080938100CB
:100DC00084E89EE1909389008093880082E080937C
:100DD0006F0010928500109284000895009741F0F2
:100DE000EFECF7E03197F1F700C000000197F6CF84
:100DF00008950E94950820E030E04AE754E40E94FC
:100E000023090E946608CB010C94EE068F309105F1
:100E100014F08EE090E0880F991FFC01EA5EFE4F0F
:100E200060E070E0808191810C941C06CF93DF9389
:100E3000EC010E9406078CE491E09F938F930E943F
:100E4000930180E090E00E94EE06CE010E9406072A
:100E500081E591E09F938F930E9493010F900F90F3
:100E60000F900F90CE010196DF91CF910895CF930F
:100E7000DF93EC010E94060786E591E09F938F9334
:100E80000E94930188EE93E00E94EE06CE010E943C
:100E900006078BE591E09F938F930E9493010F903B
:100EA0000F900F900F90CE010196DF91CF91089592
:100EB000CF93DF93EC010E94060780E691E09F93B9
:100EC0008F930E94930180ED97E00E94EE06CE0181
:100ED0000E94060785E691E09F938F930E949301FD
:100EE0000F900F900F900F90CE010196DF91CF9150
:100EF000089580E88093610010926100279A0E9413
:100F00008B0483B7817F83BF0E94DD06E0911501CA
:100F100031E03E0F2DE03203D0011124A357BE4F24
:100F200012961C921E92119741E050E060E070E032
:100F300013964D935D936D937C93169717964D93EF
:100F40005D936D937C931A971C9286E197E01C96B3
:100F50009C938E931B9732E03E0F3203D0011124F5
:100F6000A357BE4F12961C921E92119742E050E07A
:100F700060E070E013964D935D936D937C931697AC
:100F800017964D935D936D937C931A971C9287E30C
:100F900097E01C969C938E931B9733E03E0F309303
:100FA00015013203F0011124E357FE4F1282118222
:100FB00086E090E0A0E0B0E083839483A583B683CD
:100FC00087839087A187B287108288E597E094870E
:100FD0008387789478942F9883B7816083BF8895AE
:100FE00083B78E7F83BFF6CF0E9408080C94E90870
:100FF0000E94E20858F00E94DB0840F029F45F3FAD
:1010000029F00C94D20851110C941D090C94D808A5
:101010000E94FA0868F39923B1F3552391F3951BC5
:10102000550BBB27AA2762177307840738F09F5F09
:101030005F4F220F331F441FAA1FA9F335D00E2E76
:101040003AF0E0E832D091505040E695001CCAF7E3
:101050002BD0FE2F29D0660F771F881FBB1F2617A6
:1010600037074807AB07B0E809F0BB0B802DBF017D
:10107000FF2793585F4F3AF09E3F510578F00C944C
:10108000D2080C941D095F3FE4F3983ED4F3869593
:1010900077956795B795F7959F5FC9F7880F911D6D
:1010A0009695879597F90895E1E0660F771F881F59
:1010B000BB1F621773078407BA0720F0621B730B0C
:1010C000840BBA0BEE1F88F7E09508950E94020981
:1010D00088F09F5798F0B92F9927B751B0F0E1F0F9
:1010E000660F771F881F991F1AF0BA95C9F714C0A9
:1010F000B13091F00E941C09B1E008950C941C09D4
:10110000672F782F8827B85F39F0B93FCCF38695E1
:1011100077956795B395D9F73EF49095809570953E
:1011200061957F4F8F4F9F4F0895E89409C097FBBB
:101130003EF490958095709561957F4F8F4F9F4FAE
:101140009923A9F0F92F96E9BB279395F6958795F2
:1011500077956795B795F111F8CFFAF4BB0F11F4B5
:1011600060FF1BC06F5F7F4F8F4F9F4F16C088235C
:1011700011F096E911C0772321F09EE8872F762F92
:1011800005C0662371F096E8862F70E060E02AF0D3
:101190009A95660F771F881FDAF7880F96958795BF
:1011A00097F9089597F99F6780E870E060E00895E7
:1011B0009FEF80EC089500240A941616170618066F
:1011C0000906089500240A9412161306140605064B
:1011D0000895092E0394000C11F4882352F0BB0FDC
:1011E00040F4BF2B11F460FF04C06F5F7F4F8F4F3F
:1011F0009F4F089557FD9058440F551F59F05F3F7A
:1012000071F04795880F97FB991F61F09F3F79F028
:1012100087950895121613061406551FF2CF4695AA
:10122000F1DF08C0161617061806991FF1CF86952C
:101230007105610508940895E894BB276627772710
:10124000CB0197F908950E9436090C94E9080E9491
:10125000DB0838F00E94E20820F0952311F00C948E
:10126000D2080C94D80811240C941D090E94FA0885
:1012700070F3959FC1F3950F50E0551F629FF001E9
:10128000729FBB27F00DB11D639FAA27F00DB11D02
:10129000AA1F649F6627B00DA11D661F829F22278B
:1012A000B00DA11D621F739FB00DA11D621F839F12
:1012B000A00D611D221F749F3327A00D611D231FE8
:1012C000849F600D211D822F762F6A2F11249F5736
:1012D00050409AF0F1F088234AF0EE0FFF1FBB1F39
:1012E000661F771F881F91505040A9F79E3F5105F8
:1012F00080F00C94D2080C941D095F3FE4F3983EF3
:10130000D4F3869577956795B795F795E7959F5FA1
:10131000C1F7FE2B880F911D9695879597F9089533
:04132000F894FFCF6F
:10132400FF000000000000000000000000000000BA
:101334000000000000FF9F835B43BD649F24790687
:101344006636E6AFE0FFA0FE20FD60FC20FAA7D8D9
:10135400B0C0B2F8FF000000060000000200000068
:10136400010000000100000000007A445B54313C9D
:10137400003E54315D005B54323C003E54325D000B
:0A1384005B54333C003E54335D001F
:00000001FF
