:100000000C943A010C9459010C9459010C94590127
:100010000C9459010C9459010C9459010C945901F8
:100020000C9459010C9459010C9459010C945901E8
:100030000C9459010C9459010C9459010C945901D8
:100040000C9459010C9459010C9459010C945901C8
:100050000C9459010C9459010C9459010C945901B8
:100060000C9459010C9459010C9459010C945901A8
:100070000C9459010C9459010C9459010C94590198
:100080000C9459010C9459010C9459010C94590188
:100090000C9459010C945901000000000000005F0D
:1000A00000000003000300143E143E14242A7F2A9B
:1000B000124333086661364955225000050300009B
:1000C000001C2241000041221C0014083E081408B4
:1000D000083E0808005030000008080808080060C2
:1000E00060000020100804023E5149453E00040211
:1000F0007F00426151494622414949361814127F16
:100100001027454545393E494949320101710907E2
:100110003649494936264949493E003636000000ED
:10012000563600000814224100141414141400411F
:1001300022140802015109063E4159555E7E090903
:10014000097E7F494949363E414141227F41414133
:100150003E7F494949417F090909013E4141493AE8
:100160007F0808087F00417F4100304040403F7FCA
:10017000081422417F404040407F020C027F7F02F2
:1001800004087F3E4141413E7F090909061E2121A5
:10019000215E7F09090976264949493201017F011B
:1001A000013F4040403F1F2040201F7F2010207F04
:1001B00041221C224107087008076151494543004C
:1001C0007F41000002040810200000417F0004026B
:1001D0000102044040404040000102040020545409
:1001E00054787F4444443838444444443844444474
:1001F0007F385454541804047E0505085454543C64
:100200007F0804047800447D40002040443D007F86
:100210001028440000417F40007C047804787C086A
:1002200004047838444444387C1414140808141422
:10023000147C007C080404485454542004043F44B3
:10024000443C4040207C1C2040201C3C4030403C32
:1002500044281028440C5050503C4464544C4400F2
:100260000836414100007F0000414136080002018C
:100270000204020011241FBECFEFD0E2DEBFCDBFCB
:1002800011E0A0E0B1E0E4E7FCE000E00BBF02C059
:1002900007900D92A631B107D9F721E0A6E1B1E0B0
:1002A00001C01D92A432B207E1F70E94F1040C9440
:1002B00038060C940000E1E6F0E080E880831082CC
:1002C0000C944D0393E89093B00091E09093B100AB
:1002D0008093B300089590931B0180931A0126E345
:1002E00030E020930040009779F480EF90E0909305
:1002F00017018093160180E491E090931901809397
:10030000180188E490E034C08130910579F480E4EC
:1003100091E0909317018093160180EF90E0909305
:1003200019018093180188EE90E022C08230910577
:1003300079F480EF90E0909317018093160180E4A8
:1003400091E0909319018093180188E890E010C023
:10035000039781F480E491E0909317018093160154
:1003600080EF90E0909319018093180188E290E06B
:10037000809300418AE290E08093004020E030E0EA
:100380003093004120930041809116019091170114
:10039000019790930041809300418BE290E080931D
:1003A00000403093004120930041809118019091CA
:1003B0001901019790930041809300410895CF93D4
:1003C000873748F4883048F08D3350F48F3150F43B
:1003D000803150F403C086E703C088E0C3E005C065
:1003E000C0E003C0C1E001C0C2E021EB30E02093D7
:1003F0000040C0930041682F70E080E090E00E94D0
:10040000AC059B01AC0160E070E080EF94E40E94D9
:1004100009050E947B0570E002C075956795CA9535
:10042000E2F760930041CF9108950F931F93CF930C
:10043000DF93CDB7DEB728970FB6F894DEBF0FBEB7
:10044000CDBF29833A834B835C836D837E838F8307
:10045000988769817A812B813C814D815E818F8172
:100460009885EAE2F0E0E0930040709300416093E9
:1004700000413093004120930041EBE2F0E0E09333
:10048000004050930041409300419093004180937D
:100490000041ECE2F0E0E09300402F5F3F4F261B6D
:1004A000370B0196841B950B2817390790F4482FBA
:1004B0004770429FB001439F700D112453E0969501
:1004C00087955A95E1F7829FA001839F500D1124D3
:1004D00011C0422F4770489FB001499F700D1124F1
:1004E00043E0369527954A95E1F7289FA001299F7B
:1004F000500D1124862F8770815028F010930041F1
:1005000000930041F9CFCB0123E0969587952A957A
:10051000E1F7840F951F019708F1109300410093B4
:10052000004110930041009300411093004100935B
:10053000004110930041009300411093004100934B
:10054000004110930041009300411093004100933B
:1005500000411093004100930041DDCF28960FB673
:10056000F894DEBF0FBECDBFDF91CF911F910F91E9
:100570000895EF92FF920F931F93CF93DF93CDB720
:10058000DEB728970FB6F894DEBF0FBECDBF298324
:100590003A834B835C836D837E838F8398878981C5
:1005A0009A81EB80FC806D817E81AF81B8852AE2E3
:1005B00030E0209300409093004180930041F092FE
:1005C0000041E09200412BE230E020930040709324
:1005D000004160930041B0930041A09300412CE2A0
:1005E00030E020930040E816F906A0F0A8019B0136
:1005F0008A01A217B30760F04E5F5F4FF8010081D8
:10060000118110930041009300412F5F3F4FF0CFC5
:100610000196E9CF28960FB6F894DEBF0FBECDBF86
:10062000DF91CF911F910F91FF90EF9008950F935D
:100630001F93CF93DF93CDB7DEB728970FB6F8940B
:10064000DEBF0FBECDBFE6E1F1E017821682118654
:1006500010861A821982808191810197482F9C838C
:100660008B831E821D8282819381019798878F835D
:100670000485158520E03A815C8160E07E81988563
:100680000E94150228960FB6F894DEBF0FBECDBFAC
:10069000DF91CF911F910F91089586E080937500AF
:1006A00080E8809374003F9A249A8FEC97E001973A
:1006B000F1F700C0000047988FE39CE90197F1F73C
:1006C00000C00000479A9FEF2DEE82E0915020403D
:1006D0008040E1F700C0000088E290E08093004095
:1006E00081E190E0809300409FEF26E781E0915008
:1006F00020408040E1F700C0000021E030E08BECBA
:1007000090E0809300402093004180EC90E0809343
:10071000004088E096E2909300418093004120E100
:1007200030E081EC90E0809300402093004185EC24
:1007300090E0809300408EE395E390930041809396
:10074000004125EB30E087EC90E08093004020935F
:10075000004121E030E086EF90E08093004020935C
:10076000004180E090E0909300418093004125E5B6
:1007700030E08AE390E0809300402093004181E0E4
:1007800090E00E946B010E941703E6E1F1E01782FE
:1007900016821186108680E098EF958784878FEF08
:1007A0009FEF9387828789E290E0809300409FE7E4
:1007B00028E381E0915020408040E1F700C0000034
:1007C00020E030E085E390E08093004020930041FA
:1007D000EAE6F0E08081806280832C9A08959F92FF
:1007E000AF92BF92CF92DF92EF92FF920F931F933F
:1007F000CF93DF9320911E0130911F018A30F9F4CD
:1008000010921D0110921C01275F3F4F30931F0172
:1008100020931E0180911801909119012817390722
:1008200008F4A5C0DF91CF911F910F91FF90EF9039
:10083000DF90CF90BF90AF909F900C94170390EEF5
:10084000980F9F3508F093C060911C0170911D01B5
:10085000A901495F5F4F082E000C990B8097E5E0D6
:10086000E89FE001E99FD00D11248BE290E0809396
:100870000040309300412093004150930041409349
:100880000041CB01DB0114960AE210E0ECE2EE2E0F
:10089000F12CA817B90780F1009300409093004114
:1008A000809300419093004180930041E09200408A
:1008B000FC01E61BF70BEC0FFD1FE856FF4F949071
:1008C0006901F1E04C155D05A8F0BF2EB92029F0B3
:1008D000A0902001B090210104C0A0902201B0900E
:1008E0002301B0920041A0920041EFEFCE1ADE0A40
:1008F000FF0FE8CF0196CDCF6AE270E06093004031
:100900009093004180930041909300418093004177
:100910008CE290E0809300404217530758F080919A
:1009200022019091230190930041809300412F5F19
:100930003F4FF2CF80911C0190911D01069690933C
:100940001D0180931C01209116013091170182171F
:10095000930768F010921D0110921C0180911E01F6
:1009600090911F01089690931F0180931E01DF91C3
:10097000CF911F910F91FF90EF90DF90CF90BF909C
:10098000AF909F9008950F931F93CF938C01C0E079
:10099000F801EC0FF11D8081882321F00E94EF0304
:1009A000CF5FF6CFCF911F910F9108950F931F93B3
:1009B000CF938C0170931D0160931C0150931F0114
:1009C00040931E01C0E0F801EC0FF11D80818823E7
:1009D00021F00E94EF03CF5FF6CFCF911F910F91CF
:1009E0000895CF93DF930E945B01CDE1D0E080E0DA
:1009F00091E00E94C3042FEF80E792E021508040F5
:100A00009040E1F700C00000219789F7DF91CF9176
:100A100008950E941D050C94FE050E94F70558F0EC
:100A20000E94F00540F029F45F3F29F00C94E7059F
:100A300051110C9432060C94ED050E940F0668F3D8
:100A40009923B1F3552391F3951B550BBB27AA2787
:100A500062177307840738F09F5F5F4F220F331FC1
:100A6000441FAA1FA9F335D00E2E3AF0E0E832D089
:100A700091505040E695001CCAF72BD0FE2F29D08C
:100A8000660F771F881FBB1F261737074807AB075E
:100A9000B0E809F0BB0B802DBF01FF2793585F4FD3
:100AA0003AF09E3F510578F00C94E7050C9432061D
:100AB0005F3FE4F3983ED4F3869577956795B795B5
:100AC000F7959F5FC9F7880F911D9695879597F9C0
:100AD0000895E1E0660F771F881FBB1F6217730739
:100AE0008407BA0720F0621B730B840BBA0BEE1F4E
:100AF00088F7E09508950E94170688F09F5798F0B0
:100B0000B92F9927B751B0F0E1F0660F771F881F12
:100B1000991F1AF0BA95C9F714C0B13091F00E942C
:100B20003106B1E008950C943106672F782F88279D
:100B3000B85F39F0B93FCCF3869577956795B39553
:100B4000D9F73EF490958095709561957F4F8F4FC2
:100B50009F4F0895E89409C097FB3EF490958095C7
:100B6000709561957F4F8F4F9F4F9923A9F0F92F73
:100B700096E9BB279395F695879577956795B795F1
:100B8000F111F8CFFAF4BB0F11F460FF1BC06F5FD7
:100B90007F4F8F4F9F4F16C0882311F096E911C0E9
:100BA000772321F09EE8872F762F05C0662371F00A
:100BB00096E8862F70E060E02AF09A95660F771F1E
:100BC000881FDAF7880F9695879597F9089597F912
:100BD0009F6780E870E060E008959FEF80EC0895E3
:100BE00000240A941616170618060906089500240C
:100BF0000A9412161306140605060895092E039486
:100C0000000C11F4882352F0BB0F40F4BF2B11F4F9
:100C100060FF04C06F5F7F4F8F4F9F4F089557FD58
:100C20009058440F551F59F05F3F71F04795880F5A
:100C300097FB991F61F09F3F79F0879508951216F1
:100C400013061406551FF2CF4695F1DF08C016169D
:100C500017061806991FF1CF86957105610508944E
:100C60000895E894BB2766277727CB0197F9089565
:040C7000F894FFCF26
:100C740048656C6C6F20536F757468616D70746F28
:060C84006E21200A0000B1
:00000001FF
